{
  "contractName": "HeroesSale",
  "abi": [
    {
      "inputs": [
        {
          "internalType": "contract Heroes",
          "name": "_heroesContract",
          "type": "address"
        }
      ],
      "stateMutability": "nonpayable",
      "type": "constructor"
    },
    {
      "inputs": [],
      "name": "heroesContract",
      "outputs": [
        {
          "internalType": "contract Heroes",
          "name": "",
          "type": "address"
        }
      ],
      "stateMutability": "view",
      "type": "function",
      "constant": true
    },
    {
      "inputs": [
        {
          "internalType": "uint256",
          "name": "_tokenId",
          "type": "uint256"
        },
        {
          "internalType": "uint256",
          "name": "_amount",
          "type": "uint256"
        },
        {
          "internalType": "address",
          "name": "_from",
          "type": "address"
        }
      ],
      "name": "buyHero",
      "outputs": [],
      "stateMutability": "payable",
      "type": "function",
      "payable": true
    },
    {
      "inputs": [
        {
          "internalType": "uint256",
          "name": "_tokenId",
          "type": "uint256"
        },
        {
          "internalType": "uint256",
          "name": "_amount",
          "type": "uint256"
        },
        {
          "internalType": "address",
          "name": "_to",
          "type": "address"
        }
      ],
      "name": "giftHero",
      "outputs": [],
      "stateMutability": "payable",
      "type": "function",
      "payable": true
    }
  ],
  "bytecode": "0x608060405234801561001057600080fd5b506040516104073803806104078339818101604052602081101561003357600080fd5b8101908080519060200190929190505050336000806101000a81548173ffffffffffffffffffffffffffffffffffffffff021916908373ffffffffffffffffffffffffffffffffffffffff16021790555080600160006101000a81548173ffffffffffffffffffffffffffffffffffffffff021916908373ffffffffffffffffffffffffffffffffffffffff16021790555050610332806100d56000396000f3fe6080604052600436106100345760003560e01c80633629b89d1461003957806355b5b35b14610091578063ab8e9523146100d2575b600080fd5b61008f6004803603606081101561004f57600080fd5b810190808035906020019092919080359060200190929190803573ffffffffffffffffffffffffffffffffffffffff16906020019092919050505061012a565b005b34801561009d57600080fd5b506100a6610200565b604051808273ffffffffffffffffffffffffffffffffffffffff16815260200191505060405180910390f35b610128600480360360608110156100e857600080fd5b810190808035906020019092919080359060200190929190803573ffffffffffffffffffffffffffffffffffffffff169060200190929190505050610226565b005b600160009054906101000a900473ffffffffffffffffffffffffffffffffffffffff1673ffffffffffffffffffffffffffffffffffffffff1663909308b5848484336040518563ffffffff1660e01b8152600401808581526020018481526020018373ffffffffffffffffffffffffffffffffffffffff1681526020018273ffffffffffffffffffffffffffffffffffffffff168152602001945050505050600060405180830381600087803b1580156101e357600080fd5b505af11580156101f7573d6000803e3d6000fd5b50505050505050565b600160009054906101000a900473ffffffffffffffffffffffffffffffffffffffff1681565b600160009054906101000a900473ffffffffffffffffffffffffffffffffffffffff1673ffffffffffffffffffffffffffffffffffffffff1663909308b5848433856040518563ffffffff1660e01b8152600401808581526020018481526020018373ffffffffffffffffffffffffffffffffffffffff1681526020018273ffffffffffffffffffffffffffffffffffffffff168152602001945050505050600060405180830381600087803b1580156102df57600080fd5b505af11580156102f3573d6000803e3d6000fd5b5050505050505056fea2646970667358221220818408f59e5c41ffb4175e871e045f5385a7b75fe3dc8f1a41eb63d9659b438e64736f6c634300060c0033",
  "immutableReferences": {},
  "source": "// SPDX-License-Identifier: MIT\r\npragma solidity >=0.5.0 <0.7.0;\r\n\r\nimport \"./Heroes.sol\";\r\n\r\ncontract HeroesSale {\r\n    address owner;\r\n    Heroes public heroesContract;\r\n\r\n    constructor(Heroes _heroesContract) public {\r\n        owner = msg.sender;\r\n        heroesContract = _heroesContract;\r\n    }\r\n\r\n    function buyHero(uint256 _tokenId, uint256 _amount, address _from) public payable {\r\n        heroesContract.buyToken(_tokenId, _amount, _from, msg.sender);\r\n    }\r\n\r\n    function giftHero(uint256 _tokenId, uint256 _amount, address _to) public payable {\r\n        heroesContract.buyToken(_tokenId, _amount, msg.sender, _to);\r\n    }\r\n}\r\n",
  "sourcePath": "C:/Users/vikas/Desktop/graphic-nft-new/src/contracts/HeroesSale.sol",
  "compiler": {
    "name": "solc",
    "version": "0.6.12+commit.27d51765.Emscripten.clang"
  },
  "schemaVersion": "3.4.1",
  "updatedAt": "2021-11-08T17:57:55.772Z",
  "networkType": "ethereum",
  "devdoc": {
    "kind": "dev",
    "methods": {},
    "version": 1
  },
  "userdoc": {
    "kind": "user",
    "methods": {},
    "version": 1
  }
}