{
  "contractName": "Heroes",
  "abi": [
    {
      "inputs": [],
      "stateMutability": "nonpayable",
      "type": "constructor"
    },
    {
      "anonymous": false,
      "inputs": [
        {
          "indexed": true,
          "internalType": "address",
          "name": "account",
          "type": "address"
        },
        {
          "indexed": true,
          "internalType": "address",
          "name": "operator",
          "type": "address"
        },
        {
          "indexed": false,
          "internalType": "bool",
          "name": "approved",
          "type": "bool"
        }
      ],
      "name": "ApprovalForAll",
      "type": "event"
    },
    {
      "anonymous": false,
      "inputs": [
        {
          "indexed": true,
          "internalType": "address",
          "name": "operator",
          "type": "address"
        },
        {
          "indexed": true,
          "internalType": "address",
          "name": "from",
          "type": "address"
        },
        {
          "indexed": true,
          "internalType": "address",
          "name": "to",
          "type": "address"
        },
        {
          "indexed": false,
          "internalType": "uint256[]",
          "name": "ids",
          "type": "uint256[]"
        },
        {
          "indexed": false,
          "internalType": "uint256[]",
          "name": "values",
          "type": "uint256[]"
        }
      ],
      "name": "TransferBatch",
      "type": "event"
    },
    {
      "anonymous": false,
      "inputs": [
        {
          "indexed": true,
          "internalType": "address",
          "name": "operator",
          "type": "address"
        },
        {
          "indexed": true,
          "internalType": "address",
          "name": "from",
          "type": "address"
        },
        {
          "indexed": true,
          "internalType": "address",
          "name": "to",
          "type": "address"
        },
        {
          "indexed": false,
          "internalType": "uint256",
          "name": "id",
          "type": "uint256"
        },
        {
          "indexed": false,
          "internalType": "uint256",
          "name": "value",
          "type": "uint256"
        }
      ],
      "name": "TransferSingle",
      "type": "event"
    },
    {
      "anonymous": false,
      "inputs": [
        {
          "indexed": false,
          "internalType": "string",
          "name": "value",
          "type": "string"
        },
        {
          "indexed": true,
          "internalType": "uint256",
          "name": "id",
          "type": "uint256"
        }
      ],
      "name": "URI",
      "type": "event"
    },
    {
      "inputs": [
        {
          "internalType": "uint256",
          "name": "",
          "type": "uint256"
        }
      ],
      "name": "allHeroes",
      "outputs": [
        {
          "internalType": "uint256",
          "name": "tokenId",
          "type": "uint256"
        },
        {
          "internalType": "string",
          "name": "tokenName",
          "type": "string"
        },
        {
          "internalType": "string",
          "name": "tokenURI",
          "type": "string"
        }
      ],
      "stateMutability": "view",
      "type": "function",
      "constant": true
    },
    {
      "inputs": [
        {
          "internalType": "uint256",
          "name": "",
          "type": "uint256"
        }
      ],
      "name": "allUsers",
      "outputs": [
        {
          "internalType": "address",
          "name": "userAddress",
          "type": "address"
        }
      ],
      "stateMutability": "view",
      "type": "function",
      "constant": true
    },
    {
      "inputs": [
        {
          "internalType": "address",
          "name": "account",
          "type": "address"
        },
        {
          "internalType": "uint256",
          "name": "id",
          "type": "uint256"
        }
      ],
      "name": "balanceOf",
      "outputs": [
        {
          "internalType": "uint256",
          "name": "",
          "type": "uint256"
        }
      ],
      "stateMutability": "view",
      "type": "function",
      "constant": true
    },
    {
      "inputs": [
        {
          "internalType": "address[]",
          "name": "accounts",
          "type": "address[]"
        },
        {
          "internalType": "uint256[]",
          "name": "ids",
          "type": "uint256[]"
        }
      ],
      "name": "balanceOfBatch",
      "outputs": [
        {
          "internalType": "uint256[]",
          "name": "",
          "type": "uint256[]"
        }
      ],
      "stateMutability": "view",
      "type": "function",
      "constant": true
    },
    {
      "inputs": [],
      "name": "collectionName",
      "outputs": [
        {
          "internalType": "string",
          "name": "",
          "type": "string"
        }
      ],
      "stateMutability": "view",
      "type": "function",
      "constant": true
    },
    {
      "inputs": [],
      "name": "collectionNameSymbol",
      "outputs": [
        {
          "internalType": "string",
          "name": "",
          "type": "string"
        }
      ],
      "stateMutability": "view",
      "type": "function",
      "constant": true
    },
    {
      "inputs": [],
      "name": "heroCounter",
      "outputs": [
        {
          "internalType": "uint256",
          "name": "",
          "type": "uint256"
        }
      ],
      "stateMutability": "view",
      "type": "function",
      "constant": true
    },
    {
      "inputs": [
        {
          "internalType": "address",
          "name": "account",
          "type": "address"
        },
        {
          "internalType": "address",
          "name": "operator",
          "type": "address"
        }
      ],
      "name": "isApprovedForAll",
      "outputs": [
        {
          "internalType": "bool",
          "name": "",
          "type": "bool"
        }
      ],
      "stateMutability": "view",
      "type": "function",
      "constant": true
    },
    {
      "inputs": [],
      "name": "mintPrice",
      "outputs": [
        {
          "internalType": "uint256",
          "name": "",
          "type": "uint256"
        }
      ],
      "stateMutability": "view",
      "type": "function",
      "constant": true
    },
    {
      "inputs": [
        {
          "internalType": "address",
          "name": "",
          "type": "address"
        }
      ],
      "name": "rewards",
      "outputs": [
        {
          "internalType": "uint256",
          "name": "",
          "type": "uint256"
        }
      ],
      "stateMutability": "view",
      "type": "function",
      "constant": true
    },
    {
      "inputs": [
        {
          "internalType": "address",
          "name": "from",
          "type": "address"
        },
        {
          "internalType": "address",
          "name": "to",
          "type": "address"
        },
        {
          "internalType": "uint256[]",
          "name": "ids",
          "type": "uint256[]"
        },
        {
          "internalType": "uint256[]",
          "name": "amounts",
          "type": "uint256[]"
        },
        {
          "internalType": "bytes",
          "name": "data",
          "type": "bytes"
        }
      ],
      "name": "safeBatchTransferFrom",
      "outputs": [],
      "stateMutability": "nonpayable",
      "type": "function"
    },
    {
      "inputs": [
        {
          "internalType": "address",
          "name": "from",
          "type": "address"
        },
        {
          "internalType": "address",
          "name": "to",
          "type": "address"
        },
        {
          "internalType": "uint256",
          "name": "id",
          "type": "uint256"
        },
        {
          "internalType": "uint256",
          "name": "amount",
          "type": "uint256"
        },
        {
          "internalType": "bytes",
          "name": "data",
          "type": "bytes"
        }
      ],
      "name": "safeTransferFrom",
      "outputs": [],
      "stateMutability": "nonpayable",
      "type": "function"
    },
    {
      "inputs": [
        {
          "internalType": "address",
          "name": "operator",
          "type": "address"
        },
        {
          "internalType": "bool",
          "name": "approved",
          "type": "bool"
        }
      ],
      "name": "setApprovalForAll",
      "outputs": [],
      "stateMutability": "nonpayable",
      "type": "function"
    },
    {
      "inputs": [
        {
          "internalType": "bytes4",
          "name": "interfaceId",
          "type": "bytes4"
        }
      ],
      "name": "supportsInterface",
      "outputs": [
        {
          "internalType": "bool",
          "name": "",
          "type": "bool"
        }
      ],
      "stateMutability": "view",
      "type": "function",
      "constant": true
    },
    {
      "inputs": [
        {
          "internalType": "address",
          "name": "",
          "type": "address"
        }
      ],
      "name": "timestamps",
      "outputs": [
        {
          "internalType": "uint256",
          "name": "",
          "type": "uint256"
        }
      ],
      "stateMutability": "view",
      "type": "function",
      "constant": true
    },
    {
      "inputs": [
        {
          "internalType": "string",
          "name": "",
          "type": "string"
        }
      ],
      "name": "tokenNameExists",
      "outputs": [
        {
          "internalType": "bool",
          "name": "",
          "type": "bool"
        }
      ],
      "stateMutability": "view",
      "type": "function",
      "constant": true
    },
    {
      "inputs": [
        {
          "internalType": "string",
          "name": "",
          "type": "string"
        }
      ],
      "name": "tokenURIExists",
      "outputs": [
        {
          "internalType": "bool",
          "name": "",
          "type": "bool"
        }
      ],
      "stateMutability": "view",
      "type": "function",
      "constant": true
    },
    {
      "inputs": [
        {
          "internalType": "uint256",
          "name": "",
          "type": "uint256"
        }
      ],
      "name": "uri",
      "outputs": [
        {
          "internalType": "string",
          "name": "",
          "type": "string"
        }
      ],
      "stateMutability": "view",
      "type": "function",
      "constant": true
    },
    {
      "inputs": [],
      "name": "userCounter",
      "outputs": [
        {
          "internalType": "uint256",
          "name": "",
          "type": "uint256"
        }
      ],
      "stateMutability": "view",
      "type": "function",
      "constant": true
    },
    {
      "inputs": [
        {
          "internalType": "address",
          "name": "",
          "type": "address"
        }
      ],
      "name": "userExists",
      "outputs": [
        {
          "internalType": "bool",
          "name": "",
          "type": "bool"
        }
      ],
      "stateMutability": "view",
      "type": "function",
      "constant": true
    },
    {
      "inputs": [
        {
          "internalType": "string",
          "name": "_name",
          "type": "string"
        },
        {
          "internalType": "string",
          "name": "_tokenURI",
          "type": "string"
        }
      ],
      "name": "mintHero",
      "outputs": [],
      "stateMutability": "payable",
      "type": "function",
      "payable": true
    },
    {
      "inputs": [
        {
          "internalType": "address",
          "name": "_user",
          "type": "address"
        }
      ],
      "name": "createUser",
      "outputs": [],
      "stateMutability": "nonpayable",
      "type": "function"
    },
    {
      "inputs": [
        {
          "internalType": "address",
          "name": "_userAddress",
          "type": "address"
        },
        {
          "internalType": "uint256",
          "name": "_id",
          "type": "uint256"
        }
      ],
      "name": "getSales",
      "outputs": [
        {
          "internalType": "uint256",
          "name": "",
          "type": "uint256"
        }
      ],
      "stateMutability": "view",
      "type": "function",
      "constant": true
    },
    {
      "inputs": [
        {
          "internalType": "address",
          "name": "_userAddress",
          "type": "address"
        },
        {
          "internalType": "uint256",
          "name": "_id",
          "type": "uint256"
        }
      ],
      "name": "getStakes",
      "outputs": [
        {
          "internalType": "uint256",
          "name": "",
          "type": "uint256"
        }
      ],
      "stateMutability": "view",
      "type": "function",
      "constant": true
    },
    {
      "inputs": [
        {
          "internalType": "address",
          "name": "_userAddress",
          "type": "address"
        },
        {
          "internalType": "uint256",
          "name": "_id",
          "type": "uint256"
        }
      ],
      "name": "getSalePrice",
      "outputs": [
        {
          "internalType": "uint256",
          "name": "",
          "type": "uint256"
        }
      ],
      "stateMutability": "view",
      "type": "function",
      "constant": true
    },
    {
      "inputs": [],
      "name": "getOwner",
      "outputs": [
        {
          "internalType": "address",
          "name": "",
          "type": "address"
        }
      ],
      "stateMutability": "view",
      "type": "function",
      "constant": true
    },
    {
      "inputs": [],
      "name": "getMintPrice",
      "outputs": [
        {
          "internalType": "uint256",
          "name": "",
          "type": "uint256"
        }
      ],
      "stateMutability": "view",
      "type": "function",
      "constant": true
    },
    {
      "inputs": [
        {
          "internalType": "uint256",
          "name": "_price",
          "type": "uint256"
        }
      ],
      "name": "setMintPrice",
      "outputs": [
        {
          "internalType": "bool",
          "name": "",
          "type": "bool"
        }
      ],
      "stateMutability": "nonpayable",
      "type": "function"
    },
    {
      "inputs": [
        {
          "internalType": "address",
          "name": "_address",
          "type": "address"
        }
      ],
      "name": "getUserId",
      "outputs": [
        {
          "internalType": "uint256",
          "name": "",
          "type": "uint256"
        }
      ],
      "stateMutability": "view",
      "type": "function",
      "constant": true
    },
    {
      "inputs": [
        {
          "internalType": "uint256",
          "name": "_tokenId",
          "type": "uint256"
        },
        {
          "internalType": "uint256",
          "name": "_amount",
          "type": "uint256"
        },
        {
          "internalType": "address",
          "name": "_to",
          "type": "address"
        }
      ],
      "name": "transferToken",
      "outputs": [],
      "stateMutability": "payable",
      "type": "function",
      "payable": true
    },
    {
      "inputs": [
        {
          "internalType": "uint256",
          "name": "_tokenId",
          "type": "uint256"
        },
        {
          "internalType": "uint256",
          "name": "_amount",
          "type": "uint256"
        },
        {
          "internalType": "address",
          "name": "_from",
          "type": "address"
        },
        {
          "internalType": "address",
          "name": "_to",
          "type": "address"
        }
      ],
      "name": "buyToken",
      "outputs": [],
      "stateMutability": "payable",
      "type": "function",
      "payable": true
    },
    {
      "inputs": [
        {
          "internalType": "uint256",
          "name": "_tokenId",
          "type": "uint256"
        },
        {
          "internalType": "uint256",
          "name": "_amount",
          "type": "uint256"
        },
        {
          "internalType": "bool",
          "name": "_toggle",
          "type": "bool"
        },
        {
          "internalType": "address",
          "name": "_saleContAddress",
          "type": "address"
        }
      ],
      "name": "toggleForSale",
      "outputs": [],
      "stateMutability": "nonpayable",
      "type": "function"
    },
    {
      "inputs": [
        {
          "internalType": "uint256",
          "name": "_tokenId",
          "type": "uint256"
        },
        {
          "internalType": "uint256",
          "name": "_amount",
          "type": "uint256"
        },
        {
          "internalType": "bool",
          "name": "_toggle",
          "type": "bool"
        },
        {
          "internalType": "uint256",
          "name": "_time",
          "type": "uint256"
        },
        {
          "internalType": "uint256",
          "name": "_reward",
          "type": "uint256"
        }
      ],
      "name": "toggleForStake",
      "outputs": [],
      "stateMutability": "nonpayable",
      "type": "function"
    },
    {
      "inputs": [
        {
          "internalType": "uint256",
          "name": "_tokenId",
          "type": "uint256"
        },
        {
          "internalType": "uint256",
          "name": "_price",
          "type": "uint256"
        }
      ],
      "name": "setPrice",
      "outputs": [],
      "stateMutability": "nonpayable",
      "type": "function"
    }
  ],
  "bytecode": "0x60806040523480156200001157600080fd5b506040518060400160405280600e81526020017f4865726f436f6c6c656374696f6e000000000000000000000000000000000000815250620000606301ffc9a760e01b6200019360201b60201c565b62000071816200029c60201b60201c565b6200008963d9b67a2660e01b6200019360201b60201c565b620000a1630e89341c60e01b6200019360201b60201c565b506040518060400160405280600f81526020017f4865726f20436f6c6c656374696f6e000000000000000000000000000000000081525060049080519060200190620000ef929190620002b8565b506040518060400160405280600481526020017f48434f4c00000000000000000000000000000000000000000000000000000000815250600590805190602001906200013d929190620002b8565b5066b1a2bc2ec5000060088190555033600960006101000a81548173ffffffffffffffffffffffffffffffffffffffff021916908373ffffffffffffffffffffffffffffffffffffffff1602179055506200035e565b63ffffffff60e01b817bffffffffffffffffffffffffffffffffffffffffffffffffffffffff1916141562000230576040517f08c379a000000000000000000000000000000000000000000000000000000000815260040180806020018281038252601c8152602001807f4552433136353a20696e76616c696420696e746572666163652069640000000081525060200191505060405180910390fd5b6001600080837bffffffffffffffffffffffffffffffffffffffffffffffffffffffff19167bffffffffffffffffffffffffffffffffffffffffffffffffffffffff1916815260200190815260200160002060006101000a81548160ff02191690831515021790555050565b8060039080519060200190620002b4929190620002b8565b5050565b828054600181600116156101000203166002900490600052602060002090601f016020900481019282601f10620002fb57805160ff19168380011785556200032c565b828001600101855582156200032c579182015b828111156200032b5782518255916020019190600101906200030e565b5b5090506200033b91906200033f565b5090565b5b808211156200035a57600081600090555060010162000340565b5090565b6151c6806200036e6000396000f3fe6080604052600436106101f85760003560e01c8063909308b51161010d578063cdd87618116100a0578063e9c98e681161006f578063e9c98e6814611343578063f0c37a59146113a8578063f242432a146113d3578063f4a0a528146114ef578063f7d9757714611540576101f8565b8063cdd87618146110b4578063e3844e3814611105578063e5326ab11461122c578063e985e9c5146112bc576101f8565b8063a7745713116100dc578063a774571314610f80578063a7f93ebd14610fef578063b925ba351461101a578063c54b9c8c14611089576101f8565b8063909308b514610d68578063a22cb46514610de0578063a2bdedf414610e3d578063a46b1fac14610ea2576101f8565b80633b20eab5116101905780634e1273f41161015f5780634e1273f414610a665780636817c76c14610c145780636823e68014610c3f5780636f9507f914610c97578063893d20e814610d27576101f8565b80633b20eab5146107565780633c0e9a68146108a857806343d32ae7146109195780634cb8a68b146109f7576101f8565b80630e89341c116101cc5780630e89341c146103a857806313a39f441461045c5780632b956ff7146104c15780632eb2c2d614610526576101f8565b8062fdd58e146101fd57806301ffc9a71461026c5780630700037d146102dc5780630e666e4914610341575b600080fd5b34801561020957600080fd5b506102566004803603604081101561022057600080fd5b81019080803573ffffffffffffffffffffffffffffffffffffffff16906020019092919080359060200190929190505050611585565b6040518082815260200191505060405180910390f35b34801561027857600080fd5b506102c46004803603602081101561028f57600080fd5b8101908080357bffffffffffffffffffffffffffffffffffffffffffffffffffffffff19169060200190929190505050611665565b60405180821515815260200191505060405180910390f35b3480156102e857600080fd5b5061032b600480360360208110156102ff57600080fd5b81019080803573ffffffffffffffffffffffffffffffffffffffff1690602001909291905050506116cc565b6040518082815260200191505060405180910390f35b34801561034d57600080fd5b506103906004803603602081101561036457600080fd5b81019080803573ffffffffffffffffffffffffffffffffffffffff1690602001909291905050506116e4565b60405180821515815260200191505060405180910390f35b3480156103b457600080fd5b506103e1600480360360208110156103cb57600080fd5b8101908080359060200190929190505050611704565b6040518080602001828103825283818151815260200191508051906020019080838360005b83811015610421578082015181840152602081019050610406565b50505050905090810190601f16801561044e5780820380516001836020036101000a031916815260200191505b509250505060405180910390f35b34801561046857600080fd5b506104bf600480360360a081101561047f57600080fd5b81019080803590602001909291908035906020019092919080351515906020019092919080359060200190929190803590602001909291905050506117a8565b005b3480156104cd57600080fd5b50610510600480360360208110156104e457600080fd5b81019080803573ffffffffffffffffffffffffffffffffffffffff169060200190929190505050611ca3565b6040518082815260200191505060405180910390f35b34801561053257600080fd5b50610754600480360360a081101561054957600080fd5b81019080803573ffffffffffffffffffffffffffffffffffffffff169060200190929190803573ffffffffffffffffffffffffffffffffffffffff169060200190929190803590602001906401000000008111156105a657600080fd5b8201836020820111156105b857600080fd5b803590602001918460208302840111640100000000831117156105da57600080fd5b919080806020026020016040519081016040528093929190818152602001838360200280828437600081840152601f19601f8201169050808301925050505050505091929192908035906020019064010000000081111561063a57600080fd5b82018360208201111561064c57600080fd5b8035906020019184602083028401116401000000008311171561066e57600080fd5b919080806020026020016040519081016040528093929190818152602001838360200280828437600081840152601f19601f820116905080830192505050505050509192919290803590602001906401000000008111156106ce57600080fd5b8201836020820111156106e057600080fd5b8035906020019184600183028401116401000000008311171561070257600080fd5b91908080601f016020809104026020016040519081016040528093929190818152602001838380828437600081840152601f19601f820116905080830192505050505050509192919290505050611d3b565b005b6108a66004803603604081101561076c57600080fd5b810190808035906020019064010000000081111561078957600080fd5b82018360208201111561079b57600080fd5b803590602001918460018302840111640100000000831117156107bd57600080fd5b91908080601f016020809104026020016040519081016040528093929190818152602001838380828437600081840152601f19601f8201169050808301925050505050505091929192908035906020019064010000000081111561082057600080fd5b82018360208201111561083257600080fd5b8035906020019184600183028401116401000000008311171561085457600080fd5b91908080601f016020809104026020016040519081016040528093929190818152602001838380828437600081840152601f19601f8201169050808301925050505050505091929192905050506121c6565b005b3480156108b457600080fd5b50610917600480360360808110156108cb57600080fd5b810190808035906020019092919080359060200190929190803515159060200190929190803573ffffffffffffffffffffffffffffffffffffffff169060200190929190505050612a0d565b005b34801561092557600080fd5b506109df6004803603602081101561093c57600080fd5b810190808035906020019064010000000081111561095957600080fd5b82018360208201111561096b57600080fd5b8035906020019184600183028401116401000000008311171561098d57600080fd5b91908080601f016020809104026020016040519081016040528093929190818152602001838380828437600081840152601f19601f820116905080830192505050505050509192919290505050612de7565b60405180821515815260200191505060405180910390f35b348015610a0357600080fd5b50610a5060048036036040811015610a1a57600080fd5b81019080803573ffffffffffffffffffffffffffffffffffffffff16906020019092919080359060200190929190505050612e1d565b6040518082815260200191505060405180910390f35b348015610a7257600080fd5b50610bbd60048036036040811015610a8957600080fd5b8101908080359060200190640100000000811115610aa657600080fd5b820183602082011115610ab857600080fd5b80359060200191846020830284011164010000000083111715610ada57600080fd5b919080806020026020016040519081016040528093929190818152602001838360200280828437600081840152601f19601f82011690508083019250505050505050919291929080359060200190640100000000811115610b3a57600080fd5b820183602082011115610b4c57600080fd5b80359060200191846020830284011164010000000083111715610b6e57600080fd5b919080806020026020016040519081016040528093929190818152602001838360200280828437600081840152601f19601f820116905080830192505050505050509192919290505050612f41565b6040518080602001828103825283818151815260200191508051906020019060200280838360005b83811015610c00578082015181840152602081019050610be5565b505050509050019250505060405180910390f35b348015610c2057600080fd5b50610c29613053565b6040518082815260200191505060405180910390f35b610c9560048036036060811015610c5557600080fd5b810190808035906020019092919080359060200190929190803573ffffffffffffffffffffffffffffffffffffffff169060200190929190505050613059565b005b348015610ca357600080fd5b50610cac61313f565b6040518080602001828103825283818151815260200191508051906020019080838360005b83811015610cec578082015181840152602081019050610cd1565b50505050905090810190601f168015610d195780820380516001836020036101000a031916815260200191505b509250505060405180910390f35b348015610d3357600080fd5b50610d3c6131dd565b604051808273ffffffffffffffffffffffffffffffffffffffff16815260200191505060405180910390f35b610dde60048036036080811015610d7e57600080fd5b810190808035906020019092919080359060200190929190803573ffffffffffffffffffffffffffffffffffffffff169060200190929190803573ffffffffffffffffffffffffffffffffffffffff169060200190929190505050613207565b005b348015610dec57600080fd5b50610e3b60048036036040811015610e0357600080fd5b81019080803573ffffffffffffffffffffffffffffffffffffffff1690602001909291908035151590602001909291905050506134fc565b005b348015610e4957600080fd5b50610e7660048036036020811015610e6057600080fd5b8101908080359060200190929190505050613695565b604051808273ffffffffffffffffffffffffffffffffffffffff16815260200191505060405180910390f35b348015610eae57600080fd5b50610f6860048036036020811015610ec557600080fd5b8101908080359060200190640100000000811115610ee257600080fd5b820183602082011115610ef457600080fd5b80359060200191846001830284011164010000000083111715610f1657600080fd5b91908080601f016020809104026020016040519081016040528093929190818152602001838380828437600081840152601f19601f8201169050808301925050505050505091929192905050506136d3565b60405180821515815260200191505060405180910390f35b348015610f8c57600080fd5b50610fd960048036036040811015610fa357600080fd5b81019080803573ffffffffffffffffffffffffffffffffffffffff16906020019092919080359060200190929190505050613709565b6040518082815260200191505060405180910390f35b348015610ffb57600080fd5b5061100461382d565b6040518082815260200191505060405180910390f35b34801561102657600080fd5b506110736004803603604081101561103d57600080fd5b81019080803573ffffffffffffffffffffffffffffffffffffffff16906020019092919080359060200190929190505050613837565b6040518082815260200191505060405180910390f35b34801561109557600080fd5b5061109e61395b565b6040518082815260200191505060405180910390f35b3480156110c057600080fd5b50611103600480360360208110156110d757600080fd5b81019080803573ffffffffffffffffffffffffffffffffffffffff169060200190929190505050613961565b005b34801561111157600080fd5b5061113e6004803603602081101561112857600080fd5b8101908080359060200190929190505050613b91565b604051808481526020018060200180602001838103835285818151815260200191508051906020019080838360005b8381101561118857808201518184015260208101905061116d565b50505050905090810190601f1680156111b55780820380516001836020036101000a031916815260200191505b50838103825284818151815260200191508051906020019080838360005b838110156111ee5780820151818401526020810190506111d3565b50505050905090810190601f16801561121b5780820380516001836020036101000a031916815260200191505b509550505050505060405180910390f35b34801561123857600080fd5b50611241613ceb565b6040518080602001828103825283818151815260200191508051906020019080838360005b83811015611281578082015181840152602081019050611266565b50505050905090810190601f1680156112ae5780820380516001836020036101000a031916815260200191505b509250505060405180910390f35b3480156112c857600080fd5b5061132b600480360360408110156112df57600080fd5b81019080803573ffffffffffffffffffffffffffffffffffffffff169060200190929190803573ffffffffffffffffffffffffffffffffffffffff169060200190929190505050613d89565b60405180821515815260200191505060405180910390f35b34801561134f57600080fd5b506113926004803603602081101561136657600080fd5b81019080803573ffffffffffffffffffffffffffffffffffffffff169060200190929190505050613e1d565b6040518082815260200191505060405180910390f35b3480156113b457600080fd5b506113bd613e35565b6040518082815260200191505060405180910390f35b3480156113df57600080fd5b506114ed600480360360a08110156113f657600080fd5b81019080803573ffffffffffffffffffffffffffffffffffffffff169060200190929190803573ffffffffffffffffffffffffffffffffffffffff16906020019092919080359060200190929190803590602001909291908035906020019064010000000081111561146757600080fd5b82018360208201111561147957600080fd5b8035906020019184600183028401116401000000008311171561149b57600080fd5b91908080601f016020809104026020016040519081016040528093929190818152602001838380828437600081840152601f19601f820116905080830192505050505050509192919290505050613e3b565b005b3480156114fb57600080fd5b506115286004803603602081101561151257600080fd5b81019080803590602001909291905050506141b0565b60405180821515815260200191505060405180910390f35b34801561154c57600080fd5b506115836004803603604081101561156357600080fd5b81019080803590602001909291908035906020019092919050505061421c565b005b60008073ffffffffffffffffffffffffffffffffffffffff168373ffffffffffffffffffffffffffffffffffffffff16141561160c576040517f08c379a000000000000000000000000000000000000000000000000000000000815260040180806020018281038252602b815260200180615021602b913960400191505060405180910390fd5b6001600083815260200190815260200160002060008473ffffffffffffffffffffffffffffffffffffffff1673ffffffffffffffffffffffffffffffffffffffff16815260200190815260200160002054905092915050565b6000806000837bffffffffffffffffffffffffffffffffffffffffffffffffffffffff19167bffffffffffffffffffffffffffffffffffffffffffffffffffffffff1916815260200190815260200160002060009054906101000a900460ff169050919050565b60106020528060005260406000206000915090505481565b600c6020528060005260406000206000915054906101000a900460ff1681565b606060038054600181600116156101000203166002900480601f01602080910402602001604051908101604052809291908181526020018280546001816001161561010002031660029004801561179c5780601f106117715761010080835404028352916020019161179c565b820191906000526020600020905b81548152906001019060200180831161177f57829003601f168201915b50505050509050919050565b60006117b333611ca3565b90506000600b6000838152602001908152602001600020905060006117d83389611585565b9050868110156117e757600080fd5b600f60003373ffffffffffffffffffffffffffffffffffffffff1673ffffffffffffffffffffffffffffffffffffffff16815260200190815260200160002054851161183257600080fd5b84600f60003373ffffffffffffffffffffffffffffffffffffffff1673ffffffffffffffffffffffffffffffffffffffff16815260200190815260200160002081905550816003016000898152602001908152602001600020548402601060003373ffffffffffffffffffffffffffffffffffffffff1673ffffffffffffffffffffffffffffffffffffffff1681526020019081526020016000205401601060003373ffffffffffffffffffffffffffffffffffffffff1673ffffffffffffffffffffffffffffffffffffffff168152602001908152602001600020819055508515611ae757868260010160008a8152602001908152602001600020548360030160008b815260200190815260200160002054018203101561195357600080fd5b868260030160008a815260200190815260200160002054018260030160008a8152602001908152602001600020819055508160000160009054906101000a900473ffffffffffffffffffffffffffffffffffffffff16600b600085815260200190815260200160002060000160006101000a81548173ffffffffffffffffffffffffffffffffffffffff021916908373ffffffffffffffffffffffffffffffffffffffff160217905550600060019050600190505b6006548111611ae15782600201600082815260200190815260200160002054600b600086815260200190815260200160002060020160008381526020019081526020016000208190555082600101600082815260200190815260200160002054600b600086815260200190815260200160002060010160008381526020019081526020016000208190555082600301600082815260200190815260200160002054600b60008681526020019081526020016000206003016000838152602001908152602001600020819055508080600101915050611a08565b50611c99565b868260030160008a8152602001908152602001600020541015611b0957600080fd5b868260030160008a815260200190815260200160002054038260030160008a8152602001908152602001600020819055508160000160009054906101000a900473ffffffffffffffffffffffffffffffffffffffff16600b600085815260200190815260200160002060000160006101000a81548173ffffffffffffffffffffffffffffffffffffffff021916908373ffffffffffffffffffffffffffffffffffffffff160217905550600060019050600190505b6006548111611c975782600201600082815260200190815260200160002054600b600086815260200190815260200160002060020160008381526020019081526020016000208190555082600101600082815260200190815260200160002054600b600086815260200190815260200160002060010160008381526020019081526020016000208190555082600301600082815260200190815260200160002054600b60008681526020019081526020016000206003016000838152602001908152602001600020819055508080600101915050611bbe565b505b5050505050505050565b600080600190505b6007548111611d34578273ffffffffffffffffffffffffffffffffffffffff16600b600083815260200190815260200160002060000160009054906101000a900473ffffffffffffffffffffffffffffffffffffffff1673ffffffffffffffffffffffffffffffffffffffff161415611d275780915050611d36565b8080600101915050611cab565b505b919050565b8151835114611d95576040517f08c379a00000000000000000000000000000000000000000000000000000000081526004018080602001828103825260288152602001806151486028913960400191505060405180910390fd5b600073ffffffffffffffffffffffffffffffffffffffff168473ffffffffffffffffffffffffffffffffffffffff161415611e1b576040517f08c379a00000000000000000000000000000000000000000000000000000000081526004018080602001828103825260258152602001806150756025913960400191505060405180910390fd5b611e236143be565b73ffffffffffffffffffffffffffffffffffffffff168573ffffffffffffffffffffffffffffffffffffffff161480611e695750611e6885611e636143be565b613d89565b5b611ebe576040517f08c379a000000000000000000000000000000000000000000000000000000000815260040180806020018281038252603281526020018061509a6032913960400191505060405180910390fd5b6000611ec86143be565b9050611ed88187878787876143c6565b60005b84518110156120a9576000858281518110611ef257fe5b602002602001015190506000858381518110611f0a57fe5b60200260200101519050611f91816040518060600160405280602a81526020016150cc602a91396001600086815260200190815260200160002060008d73ffffffffffffffffffffffffffffffffffffffff1673ffffffffffffffffffffffffffffffffffffffff168152602001908152602001600020546143ce9092919063ffffffff16565b6001600084815260200190815260200160002060008b73ffffffffffffffffffffffffffffffffffffffff1673ffffffffffffffffffffffffffffffffffffffff16815260200190815260200160002081905550612048816001600085815260200190815260200160002060008b73ffffffffffffffffffffffffffffffffffffffff1673ffffffffffffffffffffffffffffffffffffffff1681526020019081526020016000205461448890919063ffffffff16565b6001600084815260200190815260200160002060008a73ffffffffffffffffffffffffffffffffffffffff1673ffffffffffffffffffffffffffffffffffffffff168152602001908152602001600020819055505050806001019050611edb565b508473ffffffffffffffffffffffffffffffffffffffff168673ffffffffffffffffffffffffffffffffffffffff168273ffffffffffffffffffffffffffffffffffffffff167f4a39dc06d4c0dbc64b70af90fd698a233a518aa5d07e595d983b8c0526c8f7fb8787604051808060200180602001838103835285818151815260200191508051906020019060200280838360005b8381101561215957808201518184015260208101905061213e565b50505050905001838103825284818151815260200191508051906020019060200280838360005b8381101561219b578082015181840152602081019050612180565b5050505090500194505050505060405180910390a46121be818787878787614510565b505050505050565b600073ffffffffffffffffffffffffffffffffffffffff163373ffffffffffffffffffffffffffffffffffffffff16141561220057600080fd5b600c60003373ffffffffffffffffffffffffffffffffffffffff1673ffffffffffffffffffffffffffffffffffffffff16815260200190815260200160002060009054906101000a900460ff1661225b5761225a33613961565b5b600d826040518082805190602001908083835b60208310612291578051825260208201915060208101905060208303925061226e565b6001836020036101000a038019825116818451168082178552505050505050905001915050908152602001604051809103902060009054906101000a900460ff16156127da576000600190506122e5614e32565b600a600083815260200190815260200160002060405180606001604052908160008201548152602001600182018054600181600116156101000203166002900480601f0160208091040260200160405190810160405280929190818152602001828054600181600116156101000203166002900480156123a65780601f1061237b576101008083540402835291602001916123a6565b820191906000526020600020905b81548152906001019060200180831161238957829003601f168201915b50505050508152602001600282018054600181600116156101000203166002900480601f0160208091040260200160405190810160405280929190818152602001828054600181600116156101000203166002900480156124485780601f1061241d57610100808354040283529160200191612448565b820191906000526020600020905b81548152906001019060200180831161242b57829003601f168201915b5050505050815250509050600191505b60065482116126cf57600a600083815260200190815260200160002060405180606001604052908160008201548152602001600182018054600181600116156101000203166002900480601f0160208091040260200160405190810160405280929190818152602001828054600181600116156101000203166002900480156125225780601f106124f757610100808354040283529160200191612522565b820191906000526020600020905b81548152906001019060200180831161250557829003601f168201915b50505050508152602001600282018054600181600116156101000203166002900480601f0160208091040260200160405190810160405280929190818152602001828054600181600116156101000203166002900480156125c45780601f10612599576101008083540402835291602001916125c4565b820191906000526020600020905b8154815290600101906020018083116125a757829003601f168201915b5050505050815250509050836040516020018082805190602001908083835b6020831061260657805182526020820191506020810190506020830392506125e3565b6001836020036101000a0380198251168184511680821785525050505050509050019150506040516020818303038152906040528051906020012081602001516040516020018082805190602001908083835b6020831061267c5780518252602082019150602081019050602083039250612659565b6001836020036101000a0380198251168184511680821785525050505050509050019150506040516020818303038152906040528051906020012014156126c2576126cf565b8180600101925050612458565b826040516020018082805190602001908083835b6020831061270657805182526020820191506020810190506020830392506126e3565b6001836020036101000a0380198251168184511680821785525050505050509050019150506040516020818303038152906040528051906020012081604001516040516020018082805190602001908083835b6020831061277c5780518252602082019150602081019050602083039250612759565b6001836020036101000a03801982511681845116808217855250505050505090500191505060405160208183030381529060405280519060200120146127c157600080fd5b60606127d23360065460018461489f565b505050612a09565b600660008154809291906001019190505550600e816040518082805190602001908083835b6020831061282257805182526020820191506020810190506020830392506127ff565b6001836020036101000a038019825116818451168082178552505050505050905001915050908152602001604051809103902060009054906101000a900460ff161561286d57600080fd5b606061287e3360065460018461489f565b6001600e836040518082805190602001908083835b602083106128b65780518252602082019150602081019050602083039250612893565b6001836020036101000a038019825116818451168082178552505050505050905001915050908152602001604051809103902060006101000a81548160ff0219169083151502179055506001600d846040518082805190602001908083835b602083106129385780518252602082019150602081019050602083039250612915565b6001836020036101000a038019825116818451168082178552505050505050905001915050908152602001604051809103902060006101000a81548160ff02191690831515021790555061298a614e32565b6040518060600160405280600654815260200185815260200184815250905080600a600060065481526020019081526020016000206000820151816000015560208201518160010190805190602001906129e5929190614e53565b506040820151816002019080519060200190612a02929190614e53565b5090505050505b5050565b6000612a1833611ca3565b90506000600b600083815260200190815260200160002090506000612a3d3388611585565b905085811015612a4c57600080fd5b8415612c215785826001016000898152602001908152602001600020548360030160008a8152602001908152602001600020540182031015612a8d57600080fd5b858260010160008981526020019081526020016000205401826001016000898152602001908152602001600020819055508160000160009054906101000a900473ffffffffffffffffffffffffffffffffffffffff16600b600085815260200190815260200160002060000160006101000a81548173ffffffffffffffffffffffffffffffffffffffff021916908373ffffffffffffffffffffffffffffffffffffffff160217905550600060019050600190505b6006548111612c1b5782600201600082815260200190815260200160002054600b600086815260200190815260200160002060020160008381526020019081526020016000208190555082600101600082815260200190815260200160002054600b600086815260200190815260200160002060010160008381526020019081526020016000208190555082600301600082815260200190815260200160002054600b60008681526020019081526020016000206003016000838152602001908152602001600020819055508080600101915050612b42565b50612dd3565b85826001016000898152602001908152602001600020541015612c4357600080fd5b858260010160008981526020019081526020016000205403826001016000898152602001908152602001600020819055508160000160009054906101000a900473ffffffffffffffffffffffffffffffffffffffff16600b600085815260200190815260200160002060000160006101000a81548173ffffffffffffffffffffffffffffffffffffffff021916908373ffffffffffffffffffffffffffffffffffffffff160217905550600060019050600190505b6006548111612dd15782600201600082815260200190815260200160002054600b600086815260200190815260200160002060020160008381526020019081526020016000208190555082600101600082815260200190815260200160002054600b600086815260200190815260200160002060010160008381526020019081526020016000208190555082600301600082815260200190815260200160002054600b60008681526020019081526020016000206003016000838152602001908152602001600020819055508080600101915050612cf8565b505b612dde8460016134fc565b50505050505050565b600e818051602081018201805184825260208301602085012081835280955050505050506000915054906101000a900460ff1681565b600080600190506000600b60008381526020019081526020016000209050600191505b6007548211612f3457600b6000838152602001908152602001600020905084604051602001808273ffffffffffffffffffffffffffffffffffffffff1660601b8152601401915050604051602081830303815290604052805190602001208160000160009054906101000a900473ffffffffffffffffffffffffffffffffffffffff16604051602001808273ffffffffffffffffffffffffffffffffffffffff1660601b8152601401915050604051602081830303815290604052805190602001201415612f27578060030160008581526020019081526020016000205492505050612f3b565b8180600101925050612e40565b6000925050505b92915050565b60608151835114612f9d576040517f08c379a000000000000000000000000000000000000000000000000000000000815260040180806020018281038252602981526020018061511f6029913960400191505060405180910390fd5b6060835167ffffffffffffffff81118015612fb757600080fd5b50604051908082528060200260200182016040528015612fe65781602001602082028036833780820191505090505b50905060005b84518110156130485761302585828151811061300457fe5b602002602001015185838151811061301857fe5b6020026020010151611585565b82828151811061303157fe5b602002602001018181525050806001019050612fec565b508091505092915050565b60085481565b60006130653385611585565b9050600061307233611ca3565b90506000600b60008381526020019081526020016000209050600081600301600088815260200190815260200160002054826001016000898152602001908152602001600020540190508581850310156130cb57600080fd5b60606130da33878a8a85613e3b565b600c60008773ffffffffffffffffffffffffffffffffffffffff1673ffffffffffffffffffffffffffffffffffffffff16815260200190815260200160002060009054906101000a900460ff166131355761313486613961565b5b5050505050505050565b60058054600181600116156101000203166002900480601f0160208091040260200160405190810160405280929190818152602001828054600181600116156101000203166002900480156131d55780601f106131aa576101008083540402835291602001916131d5565b820191906000526020600020905b8154815290600101906020018083116131b857829003601f168201915b505050505081565b6000600960009054906101000a900473ffffffffffffffffffffffffffffffffffffffff16905090565b600073ffffffffffffffffffffffffffffffffffffffff168173ffffffffffffffffffffffffffffffffffffffff16141561324157600080fd5b600073ffffffffffffffffffffffffffffffffffffffff168273ffffffffffffffffffffffffffffffffffffffff16141561327b57600080fd5b8073ffffffffffffffffffffffffffffffffffffffff168273ffffffffffffffffffffffffffffffffffffffff1614156132b457600080fd5b60006132bf83611ca3565b90506000600b60008381526020019081526020016000209050848160010160008881526020019081526020016000205410156132fa57600080fd5b60606133098585898985613e3b565b858260010160008981526020019081526020016000205403826001016000898152602001908152602001600020819055508160000160009054906101000a900473ffffffffffffffffffffffffffffffffffffffff16600b600085815260200190815260200160002060000160006101000a81548173ffffffffffffffffffffffffffffffffffffffff021916908373ffffffffffffffffffffffffffffffffffffffff160217905550600060019050600190505b60065481116134975782600201600082815260200190815260200160002054600b600086815260200190815260200160002060020160008381526020019081526020016000208190555082600101600082815260200190815260200160002054600b600086815260200190815260200160002060010160008381526020019081526020016000208190555082600301600082815260200190815260200160002054600b600086815260200190815260200160002060030160008381526020019081526020016000208190555080806001019150506133be565b600c60008673ffffffffffffffffffffffffffffffffffffffff1673ffffffffffffffffffffffffffffffffffffffff16815260200190815260200160002060009054906101000a900460ff166134f2576134f185613961565b5b5050505050505050565b8173ffffffffffffffffffffffffffffffffffffffff1661351b6143be565b73ffffffffffffffffffffffffffffffffffffffff161415613588576040517f08c379a00000000000000000000000000000000000000000000000000000000081526004018080602001828103825260298152602001806150f66029913960400191505060405180910390fd5b80600260006135956143be565b73ffffffffffffffffffffffffffffffffffffffff1673ffffffffffffffffffffffffffffffffffffffff16815260200190815260200160002060008473ffffffffffffffffffffffffffffffffffffffff1673ffffffffffffffffffffffffffffffffffffffff16815260200190815260200160002060006101000a81548160ff0219169083151502179055508173ffffffffffffffffffffffffffffffffffffffff166136426143be565b73ffffffffffffffffffffffffffffffffffffffff167f17307eab39ab6107e8899845ad3d59bd9653f200f220920489ca2b5937696c318360405180821515815260200191505060405180910390a35050565b600b6020528060005260406000206000915090508060000160009054906101000a900473ffffffffffffffffffffffffffffffffffffffff16905081565b600d818051602081018201805184825260208301602085012081835280955050505050506000915054906101000a900460ff1681565b600080600190506000600b60008381526020019081526020016000209050600191505b600754821161382057600b6000838152602001908152602001600020905084604051602001808273ffffffffffffffffffffffffffffffffffffffff1660601b8152601401915050604051602081830303815290604052805190602001208160000160009054906101000a900473ffffffffffffffffffffffffffffffffffffffff16604051602001808273ffffffffffffffffffffffffffffffffffffffff1660601b8152601401915050604051602081830303815290604052805190602001201415613813578060010160008581526020019081526020016000205492505050613827565b818060010192505061372c565b6000925050505b92915050565b6000600854905090565b600080600190506000600b60008381526020019081526020016000209050600191505b600754821161394e57600b6000838152602001908152602001600020905084604051602001808273ffffffffffffffffffffffffffffffffffffffff1660601b8152601401915050604051602081830303815290604052805190602001208160000160009054906101000a900473ffffffffffffffffffffffffffffffffffffffff16604051602001808273ffffffffffffffffffffffffffffffffffffffff1660601b8152601401915050604051602081830303815290604052805190602001201415613941578060020160008581526020019081526020016000205492505050613955565b818060010192505061385a565b6000925050505b92915050565b60065481565b6007600081548092919060010191905055506000600b600060075481526020019081526020016000209050818160000160006101000a81548173ffffffffffffffffffffffffffffffffffffffff021916908373ffffffffffffffffffffffffffffffffffffffff1602179055508060000160009054906101000a900473ffffffffffffffffffffffffffffffffffffffff16600b6000600754815260200190815260200160002060000160006101000a81548173ffffffffffffffffffffffffffffffffffffffff021916908373ffffffffffffffffffffffffffffffffffffffff160217905550600060019050600190505b6006548111613b345781600201600082815260200190815260200160002054600b6000600754815260200190815260200160002060020160008381526020019081526020016000208190555081600101600082815260200190815260200160002054600b6000600754815260200190815260200160002060010160008381526020019081526020016000208190555081600301600082815260200190815260200160002054600b600060075481526020019081526020016000206003016000838152602001908152602001600020819055508080600101915050613a55565b6001600c60008573ffffffffffffffffffffffffffffffffffffffff1673ffffffffffffffffffffffffffffffffffffffff16815260200190815260200160002060006101000a81548160ff021916908315150217905550505050565b600a602052806000526040600020600091509050806000015490806001018054600181600116156101000203166002900480601f016020809104026020016040519081016040528092919081815260200182805460018160011615610100020316600290048015613c435780601f10613c1857610100808354040283529160200191613c43565b820191906000526020600020905b815481529060010190602001808311613c2657829003601f168201915b505050505090806002018054600181600116156101000203166002900480601f016020809104026020016040519081016040528092919081815260200182805460018160011615610100020316600290048015613ce15780601f10613cb657610100808354040283529160200191613ce1565b820191906000526020600020905b815481529060010190602001808311613cc457829003601f168201915b5050505050905083565b60048054600181600116156101000203166002900480601f016020809104026020016040519081016040528092919081815260200182805460018160011615610100020316600290048015613d815780601f10613d5657610100808354040283529160200191613d81565b820191906000526020600020905b815481529060010190602001808311613d6457829003601f168201915b505050505081565b6000600260008473ffffffffffffffffffffffffffffffffffffffff1673ffffffffffffffffffffffffffffffffffffffff16815260200190815260200160002060008373ffffffffffffffffffffffffffffffffffffffff1673ffffffffffffffffffffffffffffffffffffffff16815260200190815260200160002060009054906101000a900460ff16905092915050565b600f6020528060005260406000206000915090505481565b60075481565b600073ffffffffffffffffffffffffffffffffffffffff168473ffffffffffffffffffffffffffffffffffffffff161415613ec1576040517f08c379a00000000000000000000000000000000000000000000000000000000081526004018080602001828103825260258152602001806150756025913960400191505060405180910390fd5b613ec96143be565b73ffffffffffffffffffffffffffffffffffffffff168573ffffffffffffffffffffffffffffffffffffffff161480613f0f5750613f0e85613f096143be565b613d89565b5b613f64576040517f08c379a000000000000000000000000000000000000000000000000000000000815260040180806020018281038252602981526020018061504c6029913960400191505060405180910390fd5b6000613f6e6143be565b9050613f8e818787613f7f88614aa2565b613f8888614aa2565b876143c6565b61400b836040518060600160405280602a81526020016150cc602a91396001600088815260200190815260200160002060008a73ffffffffffffffffffffffffffffffffffffffff1673ffffffffffffffffffffffffffffffffffffffff168152602001908152602001600020546143ce9092919063ffffffff16565b6001600086815260200190815260200160002060008873ffffffffffffffffffffffffffffffffffffffff1673ffffffffffffffffffffffffffffffffffffffff168152602001908152602001600020819055506140c2836001600087815260200190815260200160002060008873ffffffffffffffffffffffffffffffffffffffff1673ffffffffffffffffffffffffffffffffffffffff1681526020019081526020016000205461448890919063ffffffff16565b6001600086815260200190815260200160002060008773ffffffffffffffffffffffffffffffffffffffff1673ffffffffffffffffffffffffffffffffffffffff168152602001908152602001600020819055508473ffffffffffffffffffffffffffffffffffffffff168673ffffffffffffffffffffffffffffffffffffffff168273ffffffffffffffffffffffffffffffffffffffff167fc3d58168c5ae7397731d063d5bbf3d657854427343f4c083240f7aacaa2d0f628787604051808381526020018281526020019250505060405180910390a46141a8818787878787614b12565b505050505050565b60003373ffffffffffffffffffffffffffffffffffffffff16600960009054906101000a900473ffffffffffffffffffffffffffffffffffffffff1673ffffffffffffffffffffffffffffffffffffffff161461420c57600080fd5b8160088190555060019050919050565b600061422733611ca3565b90506000600b6000838152602001908152602001600020905082816002016000868152602001908152602001600020819055508060000160009054906101000a900473ffffffffffffffffffffffffffffffffffffffff16600b600084815260200190815260200160002060000160006101000a81548173ffffffffffffffffffffffffffffffffffffffff021916908373ffffffffffffffffffffffffffffffffffffffff160217905550600060019050600190505b60065481116143b75781600201600082815260200190815260200160002054600b600085815260200190815260200160002060020160008381526020019081526020016000208190555081600101600082815260200190815260200160002054600b600085815260200190815260200160002060010160008381526020019081526020016000208190555081600301600082815260200190815260200160002054600b600085815260200190815260200160002060030160008381526020019081526020016000208190555080806001019150506142de565b5050505050565b600033905090565b505050505050565b600083831115829061447b576040517f08c379a00000000000000000000000000000000000000000000000000000000081526004018080602001828103825283818151815260200191508051906020019080838360005b83811015614440578082015181840152602081019050614425565b50505050905090810190601f16801561446d5780820380516001836020036101000a031916815260200191505b509250505060405180910390fd5b5082840390509392505050565b600080828401905083811015614506576040517f08c379a000000000000000000000000000000000000000000000000000000000815260040180806020018281038252601b8152602001807f536166654d6174683a206164646974696f6e206f766572666c6f77000000000081525060200191505060405180910390fd5b8091505092915050565b61452f8473ffffffffffffffffffffffffffffffffffffffff16614e1f565b15614897578373ffffffffffffffffffffffffffffffffffffffff1663bc197c8187878686866040518663ffffffff1660e01b8152600401808673ffffffffffffffffffffffffffffffffffffffff1681526020018573ffffffffffffffffffffffffffffffffffffffff168152602001806020018060200180602001848103845287818151815260200191508051906020019060200280838360005b838110156145e75780820151818401526020810190506145cc565b50505050905001848103835286818151815260200191508051906020019060200280838360005b8381101561462957808201518184015260208101905061460e565b50505050905001848103825285818151815260200191508051906020019080838360005b8381101561466857808201518184015260208101905061464d565b50505050905090810190601f1680156146955780820380516001836020036101000a031916815260200191505b5098505050505050505050602060405180830381600087803b1580156146ba57600080fd5b505af19250505080156146ee57506040513d60208110156146da57600080fd5b810190808051906020019092919050505060015b6147f8576146fa614f0e565b8061470557506147a7565b806040517f08c379a00000000000000000000000000000000000000000000000000000000081526004018080602001828103825283818151815260200191508051906020019080838360005b8381101561476c578082015181840152602081019050614751565b50505050905090810190601f1680156147995780820380516001836020036101000a031916815260200191505b509250505060405180910390fd5b6040517f08c379a0000000000000000000000000000000000000000000000000000000008152600401808060200182810382526034815260200180614fc56034913960400191505060405180910390fd5b63bc197c8160e01b7bffffffffffffffffffffffffffffffffffffffffffffffffffffffff1916817bffffffffffffffffffffffffffffffffffffffffffffffffffffffff191614614895576040517f08c379a0000000000000000000000000000000000000000000000000000000008152600401808060200182810382526028815260200180614ff96028913960400191505060405180910390fd5b505b505050505050565b600073ffffffffffffffffffffffffffffffffffffffff168473ffffffffffffffffffffffffffffffffffffffff161415614925576040517f08c379a00000000000000000000000000000000000000000000000000000000081526004018080602001828103825260218152602001806151706021913960400191505060405180910390fd5b600061492f6143be565b90506149508160008761494188614aa2565b61494a88614aa2565b876143c6565b6149b3836001600087815260200190815260200160002060008873ffffffffffffffffffffffffffffffffffffffff1673ffffffffffffffffffffffffffffffffffffffff1681526020019081526020016000205461448890919063ffffffff16565b6001600086815260200190815260200160002060008773ffffffffffffffffffffffffffffffffffffffff1673ffffffffffffffffffffffffffffffffffffffff168152602001908152602001600020819055508473ffffffffffffffffffffffffffffffffffffffff16600073ffffffffffffffffffffffffffffffffffffffff168273ffffffffffffffffffffffffffffffffffffffff167fc3d58168c5ae7397731d063d5bbf3d657854427343f4c083240f7aacaa2d0f628787604051808381526020018281526020019250505060405180910390a4614a9b81600087878787614b12565b5050505050565b606080600167ffffffffffffffff81118015614abd57600080fd5b50604051908082528060200260200182016040528015614aec5781602001602082028036833780820191505090505b5090508281600081518110614afd57fe5b60200260200101818152505080915050919050565b614b318473ffffffffffffffffffffffffffffffffffffffff16614e1f565b15614e17578373ffffffffffffffffffffffffffffffffffffffff1663f23a6e6187878686866040518663ffffffff1660e01b8152600401808673ffffffffffffffffffffffffffffffffffffffff1681526020018573ffffffffffffffffffffffffffffffffffffffff16815260200184815260200183815260200180602001828103825283818151815260200191508051906020019080838360005b83811015614bea578082015181840152602081019050614bcf565b50505050905090810190601f168015614c175780820380516001836020036101000a031916815260200191505b509650505050505050602060405180830381600087803b158015614c3a57600080fd5b505af1925050508015614c6e57506040513d6020811015614c5a57600080fd5b810190808051906020019092919050505060015b614d7857614c7a614f0e565b80614c855750614d27565b806040517f08c379a00000000000000000000000000000000000000000000000000000000081526004018080602001828103825283818151815260200191508051906020019080838360005b83811015614cec578082015181840152602081019050614cd1565b50505050905090810190601f168015614d195780820380516001836020036101000a031916815260200191505b509250505060405180910390fd5b6040517f08c379a0000000000000000000000000000000000000000000000000000000008152600401808060200182810382526034815260200180614fc56034913960400191505060405180910390fd5b63f23a6e6160e01b7bffffffffffffffffffffffffffffffffffffffffffffffffffffffff1916817bffffffffffffffffffffffffffffffffffffffffffffffffffffffff191614614e15576040517f08c379a0000000000000000000000000000000000000000000000000000000008152600401808060200182810382526028815260200180614ff96028913960400191505060405180910390fd5b505b505050505050565b600080823b905060008111915050919050565b60405180606001604052806000815260200160608152602001606081525090565b828054600181600116156101000203166002900490600052602060002090601f016020900481019282601f10614e9457805160ff1916838001178555614ec2565b82800160010185558215614ec2579182015b82811115614ec1578251825591602001919060010190614ea6565b5b509050614ecf9190614ed3565b5090565b5b80821115614eec576000816000905550600101614ed4565b5090565b6000601f19601f8301169050919050565b60008160e01c9050919050565b600060443d1015614f1e57614fc1565b60046000803e614f2f600051614f01565b6308c379a08114614f405750614fc1565b60405160043d036004823e80513d602482011167ffffffffffffffff82111715614f6c57505050614fc1565b808201805167ffffffffffffffff811115614f8b575050505050614fc1565b8060208301013d8501811115614fa657505050505050614fc1565b614faf82614ef0565b60208401016040528296505050505050505b9056fe455243313135353a207472616e7366657220746f206e6f6e2045524331313535526563656976657220696d706c656d656e746572455243313135353a204552433131353552656365697665722072656a656374656420746f6b656e73455243313135353a2062616c616e636520717565727920666f7220746865207a65726f2061646472657373455243313135353a2063616c6c6572206973206e6f74206f776e6572206e6f7220617070726f766564455243313135353a207472616e7366657220746f20746865207a65726f2061646472657373455243313135353a207472616e736665722063616c6c6572206973206e6f74206f776e6572206e6f7220617070726f766564455243313135353a20696e73756666696369656e742062616c616e636520666f72207472616e73666572455243313135353a2073657474696e6720617070726f76616c2073746174757320666f722073656c66455243313135353a206163636f756e747320616e6420696473206c656e677468206d69736d61746368455243313135353a2069647320616e6420616d6f756e7473206c656e677468206d69736d61746368455243313135353a206d696e7420746f20746865207a65726f2061646472657373a26469706673582212202e75037befebf59a1cc77363a0caf7b31ff9f2c0cbd8f20444299118e126d07d64736f6c634300060c0033",
  "immutableReferences": {},
  "source": "// SPDX-License-Identifier: MIT\r\npragma solidity >=0.6.0 <0.8.0;\r\n\r\nimport \"./ERC1155.sol\";\r\n\r\ncontract Heroes is ERC1155 {\r\n    string public collectionName;\r\n    string public collectionNameSymbol;\r\n    uint256 public heroCounter;\r\n    uint256 public userCounter;\r\n    uint256 public mintPrice;\r\n    address payable owner;\r\n\r\n    struct Hero {\r\n        uint256 tokenId;\r\n        string tokenName;\r\n        string tokenURI;\r\n    }\r\n\r\n    struct User {\r\n        address userAddress;\r\n        mapping(uint256 => uint256) sales; // no. of heroes for sale to id\r\n        mapping(uint256 => uint256) salePrice; // price for each hero id\r\n        mapping(uint256 => uint256) stakes; // no. of heroes for stake to id\r\n    }\r\n\r\n    mapping(uint256 => Hero) public allHeroes;\r\n    mapping(uint256 => User) public allUsers;\r\n    mapping(address => bool) public userExists;\r\n    mapping(string => bool) public tokenNameExists;\r\n    mapping(string => bool) public tokenURIExists;\r\n\r\n    mapping(address => uint) public timestamps;\r\n    mapping(address => uint) public rewards;\r\n\r\n    constructor() public ERC1155(\"HeroCollection\") {\r\n        collectionName = \"Hero Collection\";\r\n        collectionNameSymbol = \"HCOL\";\r\n        mintPrice = 0.05 * 1000000000000000000;\r\n        owner = msg.sender;\r\n    }\r\n\r\n    function mintHero(\r\n        // string memory _id,\r\n        string memory _name,\r\n        string memory _tokenURI\r\n    ) public payable {\r\n        require(msg.sender != address(0));\r\n\r\n        if (!userExists[msg.sender]) {\r\n            createUser(msg.sender);\r\n        }\r\n\r\n        if (tokenNameExists[_name]) {\r\n            uint256 i = 1;\r\n            Hero memory hero = allHeroes[i];\r\n            for (i = 1; i <= heroCounter; i++) {\r\n                hero = allHeroes[i];\r\n                if (\r\n                    keccak256(abi.encodePacked(hero.tokenName)) ==\r\n                    keccak256(abi.encodePacked(_name))\r\n                ) {\r\n                    break;\r\n                }\r\n            }\r\n            require(\r\n                keccak256(abi.encodePacked(hero.tokenURI)) ==\r\n                    keccak256(abi.encodePacked(_tokenURI))\r\n            );\r\n            bytes memory data;\r\n            _mint(msg.sender, heroCounter, 1, data);\r\n        } else {\r\n            heroCounter++;\r\n            require(!tokenURIExists[_tokenURI]);\r\n            bytes memory data;\r\n            _mint(msg.sender, heroCounter, 1, data);\r\n\r\n            tokenURIExists[_tokenURI] = true;\r\n            tokenNameExists[_name] = true;\r\n\r\n            Hero memory newHero = Hero(heroCounter, _name, _tokenURI);\r\n            allHeroes[heroCounter] = newHero;\r\n        }\r\n\r\n        // address payable sendTo = owner;\r\n        // sendTo.transfer(msg.value);\r\n    }\r\n\r\n    function createUser(address _user) public {\r\n        userCounter++;\r\n        User storage newUser = allUsers[userCounter];\r\n        newUser.userAddress = _user;\r\n\r\n        allUsers[userCounter].userAddress = newUser.userAddress;\r\n        uint256 i = 1;\r\n\r\n        for (i = 1; i <= heroCounter; i++) {\r\n            allUsers[userCounter].salePrice[i] = newUser.salePrice[i];\r\n            allUsers[userCounter].sales[i] = newUser.sales[i];\r\n            allUsers[userCounter].stakes[i] = newUser.stakes[i];\r\n        }\r\n\r\n        userExists[_user] = true;\r\n    }\r\n\r\n    function getSales(address _userAddress, uint256 _id)\r\n        public\r\n        view\r\n        returns (uint256)\r\n    {\r\n        uint256 i = 1;\r\n        User storage user = allUsers[i];\r\n        for (i = 1; i <= userCounter; i++) {\r\n            user = allUsers[i];\r\n            if (\r\n                keccak256(abi.encodePacked(user.userAddress)) ==\r\n                keccak256(abi.encodePacked(_userAddress))\r\n            ) {\r\n                return user.sales[_id];\r\n            }\r\n        }\r\n        return 0;\r\n    }\r\n\r\n    function getStakes(address _userAddress, uint256 _id)\r\n        public\r\n        view\r\n        returns (uint256)\r\n    {\r\n        uint256 i = 1;\r\n        User storage user = allUsers[i];\r\n        for (i = 1; i <= userCounter; i++) {\r\n            user = allUsers[i];\r\n            if (\r\n                keccak256(abi.encodePacked(user.userAddress)) ==\r\n                keccak256(abi.encodePacked(_userAddress))\r\n            ) {\r\n                return user.stakes[_id];\r\n            }\r\n        }\r\n        return 0;\r\n    }\r\n\r\n    function getSalePrice(address _userAddress, uint256 _id)\r\n        public\r\n        view\r\n        returns (uint256)\r\n    {\r\n        uint256 i = 1;\r\n        User storage user = allUsers[i];\r\n        for (i = 1; i <= userCounter; i++) {\r\n            user = allUsers[i];\r\n            if (\r\n                keccak256(abi.encodePacked(user.userAddress)) ==\r\n                keccak256(abi.encodePacked(_userAddress))\r\n            ) {\r\n                return user.salePrice[_id];\r\n            }\r\n        }\r\n        return 0;\r\n    }\r\n\r\n    function getOwner() public view returns (address) {\r\n        return owner;\r\n    }\r\n\r\n    function getMintPrice() public view returns (uint256) {\r\n        return mintPrice;\r\n    }\r\n\r\n    function setMintPrice(uint256 _price) public returns (bool) {\r\n        require(owner == msg.sender);\r\n        mintPrice = _price;\r\n        return true;\r\n    }\r\n\r\n    function getUserId(address _address) public view returns (uint256) {\r\n        for (uint256 i = 1; i <= userCounter; i++) {\r\n            if (allUsers[i].userAddress == _address) {\r\n                return i;\r\n            }\r\n        }\r\n    }\r\n\r\n    function transferToken(\r\n        uint256 _tokenId,\r\n        uint256 _amount,\r\n        address _to\r\n    ) public payable {\r\n        uint256 balance = balanceOf(msg.sender, _tokenId);\r\n        uint256 _userId = getUserId(msg.sender);\r\n        User storage user = allUsers[_userId];\r\n        uint256 totalSet = user.sales[_tokenId] + user.stakes[_tokenId];\r\n        require(balance - totalSet >= _amount);\r\n        bytes memory data;\r\n        safeTransferFrom(msg.sender, _to, _tokenId, _amount, data);\r\n        if (!userExists[_to]) {\r\n            createUser(_to);\r\n        }\r\n    }\r\n\r\n    function buyToken(\r\n        uint256 _tokenId,\r\n        uint256 _amount,\r\n        address _from,\r\n        address _to\r\n    ) public payable {\r\n        require(_to != address(0));\r\n        require(_from != address(0));\r\n        require(_from != _to);\r\n\r\n        uint256 _userId = getUserId(_from);\r\n        User storage user = allUsers[_userId];\r\n        require(user.sales[_tokenId] >= _amount);\r\n        bytes memory data;\r\n        safeTransferFrom(_from, _to, _tokenId, _amount, data);\r\n        user.sales[_tokenId] = user.sales[_tokenId] - _amount;\r\n\r\n        allUsers[_userId].userAddress = user.userAddress;\r\n        uint256 i = 1;\r\n\r\n        for (i = 1; i <= heroCounter; i++) {\r\n            allUsers[_userId].salePrice[i] = user.salePrice[i];\r\n            allUsers[_userId].sales[i] = user.sales[i];\r\n            allUsers[_userId].stakes[i] = user.stakes[i];\r\n        }\r\n\r\n        if (!userExists[_to]) {\r\n            createUser(_to);\r\n        }\r\n    }\r\n\r\n    function toggleForSale(\r\n        uint256 _tokenId,\r\n        uint256 _amount,\r\n        bool _toggle,\r\n        address _saleContAddress\r\n    ) public {\r\n        uint256 _userId = getUserId(msg.sender);\r\n        User storage user = allUsers[_userId];\r\n        uint256 bal = balanceOf(msg.sender, _tokenId);\r\n        require(bal >= _amount);\r\n        if (_toggle) {\r\n            require(\r\n                bal - (user.stakes[_tokenId] + user.sales[_tokenId]) >= _amount\r\n            );\r\n            user.sales[_tokenId] = user.sales[_tokenId] + _amount;\r\n\r\n            allUsers[_userId].userAddress = user.userAddress;\r\n            uint256 i = 1;\r\n\r\n            for (i = 1; i <= heroCounter; i++) {\r\n                allUsers[_userId].salePrice[i] = user.salePrice[i];\r\n                allUsers[_userId].sales[i] = user.sales[i];\r\n                allUsers[_userId].stakes[i] = user.stakes[i];\r\n            }\r\n        } else {\r\n            require(user.sales[_tokenId] >= _amount);\r\n            user.sales[_tokenId] = user.sales[_tokenId] - _amount;\r\n\r\n            allUsers[_userId].userAddress = user.userAddress;\r\n            uint256 i = 1;\r\n\r\n            for (i = 1; i <= heroCounter; i++) {\r\n                allUsers[_userId].salePrice[i] = user.salePrice[i];\r\n                allUsers[_userId].sales[i] = user.sales[i];\r\n                allUsers[_userId].stakes[i] = user.stakes[i];\r\n            }\r\n        }\r\n        setApprovalForAll(_saleContAddress, true);\r\n    }\r\n\r\n    function toggleForStake(\r\n        uint256 _tokenId,\r\n        uint256 _amount,\r\n        bool _toggle,\r\n        uint256 _time,\r\n        uint256 _reward\r\n    ) public {\r\n        uint256 _userId = getUserId(msg.sender);\r\n        User storage user = allUsers[_userId];\r\n        uint256 bal = balanceOf(msg.sender, _tokenId);\r\n        require(bal >= _amount);\r\n\r\n        require(_time > timestamps[msg.sender]);\r\n        timestamps[msg.sender] = _time;\r\n        rewards[msg.sender] = rewards[msg.sender] + (_reward * user.stakes[_tokenId]);\r\n\r\n        if (_toggle) {\r\n            require(\r\n                bal - (user.stakes[_tokenId] + user.sales[_tokenId]) >= _amount\r\n            );\r\n            user.stakes[_tokenId] = user.stakes[_tokenId] + _amount;\r\n\r\n            allUsers[_userId].userAddress = user.userAddress;\r\n            uint256 i = 1;\r\n\r\n            for (i = 1; i <= heroCounter; i++) {\r\n                allUsers[_userId].salePrice[i] = user.salePrice[i];\r\n                allUsers[_userId].sales[i] = user.sales[i];\r\n                allUsers[_userId].stakes[i] = user.stakes[i];\r\n            }\r\n        } else {\r\n            require(user.stakes[_tokenId] >= _amount);\r\n            user.stakes[_tokenId] = user.stakes[_tokenId] - _amount;\r\n\r\n            allUsers[_userId].userAddress = user.userAddress;\r\n            uint256 i = 1;\r\n\r\n            for (i = 1; i <= heroCounter; i++) {\r\n                allUsers[_userId].salePrice[i] = user.salePrice[i];\r\n                allUsers[_userId].sales[i] = user.sales[i];\r\n                allUsers[_userId].stakes[i] = user.stakes[i];\r\n            }\r\n        }\r\n    }\r\n\r\n    function setPrice(uint256 _tokenId, uint256 _price) public {\r\n        uint256 _userId = getUserId(msg.sender);\r\n        User storage user = allUsers[_userId];\r\n        user.salePrice[_tokenId] = _price;\r\n        allUsers[_userId].userAddress = user.userAddress;\r\n        uint256 i = 1;\r\n\r\n        for (i = 1; i <= heroCounter; i++) {\r\n            allUsers[_userId].salePrice[i] = user.salePrice[i];\r\n            allUsers[_userId].sales[i] = user.sales[i];\r\n            allUsers[_userId].stakes[i] = user.stakes[i];\r\n        }\r\n    }\r\n}\r\n",
  "sourcePath": "C:\\Users\\vikas\\Desktop\\graphic-nft-new\\src\\contracts\\Heroes.sol",
  "compiler": {
    "name": "solc",
    "version": "0.6.12+commit.27d51765.Emscripten.clang"
  },
  "schemaVersion": "3.4.1",
  "updatedAt": "2021-11-08T17:57:55.703Z",
  "networkType": "ethereum",
  "devdoc": {
    "kind": "dev",
    "methods": {
      "balanceOf(address,uint256)": {
        "details": "See {IERC1155-balanceOf}. Requirements: - `account` cannot be the zero address."
      },
      "balanceOfBatch(address[],uint256[])": {
        "details": "See {IERC1155-balanceOfBatch}. Requirements: - `accounts` and `ids` must have the same length."
      },
      "isApprovedForAll(address,address)": {
        "details": "See {IERC1155-isApprovedForAll}."
      },
      "safeBatchTransferFrom(address,address,uint256[],uint256[],bytes)": {
        "details": "See {IERC1155-safeBatchTransferFrom}."
      },
      "safeTransferFrom(address,address,uint256,uint256,bytes)": {
        "details": "See {IERC1155-safeTransferFrom}."
      },
      "setApprovalForAll(address,bool)": {
        "details": "See {IERC1155-setApprovalForAll}."
      },
      "supportsInterface(bytes4)": {
        "details": "See {IERC165-supportsInterface}. Time complexity O(1), guaranteed to always use less than 30 000 gas."
      },
      "uri(uint256)": {
        "details": "See {IERC1155MetadataURI-uri}. This implementation returns the same URI for *all* token types. It relies on the token type ID substitution mechanism https://eips.ethereum.org/EIPS/eip-1155#metadata[defined in the EIP]. Clients calling this function must replace the `\\{id\\}` substring with the actual token type ID."
      }
    },
    "version": 1
  },
  "userdoc": {
    "kind": "user",
    "methods": {},
    "version": 1
  }
}