{
  "contractName": "LucidLandsGem",
  "abi": [
    {
      "inputs": [],
      "stateMutability": "nonpayable",
      "type": "constructor"
    },
    {
      "anonymous": false,
      "inputs": [
        {
          "indexed": true,
          "internalType": "address",
          "name": "owner",
          "type": "address"
        },
        {
          "indexed": true,
          "internalType": "address",
          "name": "spender",
          "type": "address"
        },
        {
          "indexed": false,
          "internalType": "uint256",
          "name": "value",
          "type": "uint256"
        }
      ],
      "name": "Approval",
      "type": "event"
    },
    {
      "anonymous": false,
      "inputs": [
        {
          "indexed": true,
          "internalType": "address",
          "name": "account",
          "type": "address"
        },
        {
          "indexed": false,
          "internalType": "bool",
          "name": "isExcluded",
          "type": "bool"
        }
      ],
      "name": "ExcludeFromFees",
      "type": "event"
    },
    {
      "anonymous": false,
      "inputs": [
        {
          "indexed": false,
          "internalType": "address[]",
          "name": "accounts",
          "type": "address[]"
        },
        {
          "indexed": false,
          "internalType": "bool",
          "name": "isExcluded",
          "type": "bool"
        }
      ],
      "name": "ExcludeMultipleAccountsFromFees",
      "type": "event"
    },
    {
      "anonymous": false,
      "inputs": [
        {
          "indexed": true,
          "internalType": "address",
          "name": "previousOwner",
          "type": "address"
        },
        {
          "indexed": true,
          "internalType": "address",
          "name": "newOwner",
          "type": "address"
        }
      ],
      "name": "OwnershipTransferred",
      "type": "event"
    },
    {
      "anonymous": false,
      "inputs": [
        {
          "indexed": false,
          "internalType": "uint256",
          "name": "tokensSwapped",
          "type": "uint256"
        },
        {
          "indexed": false,
          "internalType": "uint256",
          "name": "ethReceived",
          "type": "uint256"
        },
        {
          "indexed": false,
          "internalType": "uint256",
          "name": "tokensIntoLiqudity",
          "type": "uint256"
        }
      ],
      "name": "SwapAndLiquify",
      "type": "event"
    },
    {
      "anonymous": false,
      "inputs": [
        {
          "indexed": true,
          "internalType": "address",
          "name": "from",
          "type": "address"
        },
        {
          "indexed": true,
          "internalType": "address",
          "name": "to",
          "type": "address"
        },
        {
          "indexed": false,
          "internalType": "uint256",
          "name": "value",
          "type": "uint256"
        }
      ],
      "name": "Transfer",
      "type": "event"
    },
    {
      "anonymous": false,
      "inputs": [
        {
          "indexed": true,
          "internalType": "address",
          "name": "newAddress",
          "type": "address"
        },
        {
          "indexed": true,
          "internalType": "address",
          "name": "oldAddress",
          "type": "address"
        }
      ],
      "name": "UpdateUniswapV2Router",
      "type": "event"
    },
    {
      "inputs": [],
      "name": "_devFee",
      "outputs": [
        {
          "internalType": "uint256",
          "name": "",
          "type": "uint256"
        }
      ],
      "stateMutability": "view",
      "type": "function",
      "constant": true
    },
    {
      "inputs": [],
      "name": "_devWalletAddress",
      "outputs": [
        {
          "internalType": "address payable",
          "name": "",
          "type": "address"
        }
      ],
      "stateMutability": "view",
      "type": "function",
      "constant": true
    },
    {
      "inputs": [
        {
          "internalType": "address",
          "name": "",
          "type": "address"
        }
      ],
      "name": "_isBlacklisted",
      "outputs": [
        {
          "internalType": "bool",
          "name": "",
          "type": "bool"
        }
      ],
      "stateMutability": "view",
      "type": "function",
      "constant": true
    },
    {
      "inputs": [],
      "name": "_liquidityFee",
      "outputs": [
        {
          "internalType": "uint256",
          "name": "",
          "type": "uint256"
        }
      ],
      "stateMutability": "view",
      "type": "function",
      "constant": true
    },
    {
      "inputs": [],
      "name": "_marketingFee",
      "outputs": [
        {
          "internalType": "uint256",
          "name": "",
          "type": "uint256"
        }
      ],
      "stateMutability": "view",
      "type": "function",
      "constant": true
    },
    {
      "inputs": [],
      "name": "_marketingWalletAddress",
      "outputs": [
        {
          "internalType": "address payable",
          "name": "",
          "type": "address"
        }
      ],
      "stateMutability": "view",
      "type": "function",
      "constant": true
    },
    {
      "inputs": [],
      "name": "_maxTxAmount",
      "outputs": [
        {
          "internalType": "uint256",
          "name": "",
          "type": "uint256"
        }
      ],
      "stateMutability": "view",
      "type": "function",
      "constant": true
    },
    {
      "inputs": [],
      "name": "_maxWalletAmount",
      "outputs": [
        {
          "internalType": "uint256",
          "name": "",
          "type": "uint256"
        }
      ],
      "stateMutability": "view",
      "type": "function",
      "constant": true
    },
    {
      "inputs": [],
      "name": "_prevDevFee",
      "outputs": [
        {
          "internalType": "uint256",
          "name": "",
          "type": "uint256"
        }
      ],
      "stateMutability": "view",
      "type": "function",
      "constant": true
    },
    {
      "inputs": [],
      "name": "_prevMarketingFee",
      "outputs": [
        {
          "internalType": "uint256",
          "name": "",
          "type": "uint256"
        }
      ],
      "stateMutability": "view",
      "type": "function",
      "constant": true
    },
    {
      "inputs": [],
      "name": "_previousLiquidityFee",
      "outputs": [
        {
          "internalType": "uint256",
          "name": "",
          "type": "uint256"
        }
      ],
      "stateMutability": "view",
      "type": "function",
      "constant": true
    },
    {
      "inputs": [],
      "name": "_totalFees",
      "outputs": [
        {
          "internalType": "uint256",
          "name": "",
          "type": "uint256"
        }
      ],
      "stateMutability": "view",
      "type": "function",
      "constant": true
    },
    {
      "inputs": [
        {
          "internalType": "address",
          "name": "owner",
          "type": "address"
        },
        {
          "internalType": "address",
          "name": "spender",
          "type": "address"
        }
      ],
      "name": "allowance",
      "outputs": [
        {
          "internalType": "uint256",
          "name": "",
          "type": "uint256"
        }
      ],
      "stateMutability": "view",
      "type": "function",
      "constant": true
    },
    {
      "inputs": [
        {
          "internalType": "address",
          "name": "spender",
          "type": "address"
        },
        {
          "internalType": "uint256",
          "name": "amount",
          "type": "uint256"
        }
      ],
      "name": "approve",
      "outputs": [
        {
          "internalType": "bool",
          "name": "",
          "type": "bool"
        }
      ],
      "stateMutability": "nonpayable",
      "type": "function"
    },
    {
      "inputs": [
        {
          "internalType": "address",
          "name": "account",
          "type": "address"
        }
      ],
      "name": "balanceOf",
      "outputs": [
        {
          "internalType": "uint256",
          "name": "",
          "type": "uint256"
        }
      ],
      "stateMutability": "view",
      "type": "function",
      "constant": true
    },
    {
      "inputs": [],
      "name": "botFee",
      "outputs": [
        {
          "internalType": "uint256",
          "name": "",
          "type": "uint256"
        }
      ],
      "stateMutability": "view",
      "type": "function",
      "constant": true
    },
    {
      "inputs": [],
      "name": "deadBlocks",
      "outputs": [
        {
          "internalType": "uint256",
          "name": "",
          "type": "uint256"
        }
      ],
      "stateMutability": "view",
      "type": "function",
      "constant": true
    },
    {
      "inputs": [],
      "name": "decimals",
      "outputs": [
        {
          "internalType": "uint8",
          "name": "",
          "type": "uint8"
        }
      ],
      "stateMutability": "view",
      "type": "function",
      "constant": true
    },
    {
      "inputs": [
        {
          "internalType": "address",
          "name": "spender",
          "type": "address"
        },
        {
          "internalType": "uint256",
          "name": "subtractedValue",
          "type": "uint256"
        }
      ],
      "name": "decreaseAllowance",
      "outputs": [
        {
          "internalType": "bool",
          "name": "",
          "type": "bool"
        }
      ],
      "stateMutability": "nonpayable",
      "type": "function"
    },
    {
      "inputs": [
        {
          "internalType": "address",
          "name": "spender",
          "type": "address"
        },
        {
          "internalType": "uint256",
          "name": "addedValue",
          "type": "uint256"
        }
      ],
      "name": "increaseAllowance",
      "outputs": [
        {
          "internalType": "bool",
          "name": "",
          "type": "bool"
        }
      ],
      "stateMutability": "nonpayable",
      "type": "function"
    },
    {
      "inputs": [],
      "name": "launchedAt",
      "outputs": [
        {
          "internalType": "uint256",
          "name": "",
          "type": "uint256"
        }
      ],
      "stateMutability": "view",
      "type": "function",
      "constant": true
    },
    {
      "inputs": [],
      "name": "name",
      "outputs": [
        {
          "internalType": "string",
          "name": "",
          "type": "string"
        }
      ],
      "stateMutability": "view",
      "type": "function",
      "constant": true
    },
    {
      "inputs": [],
      "name": "owner",
      "outputs": [
        {
          "internalType": "address",
          "name": "",
          "type": "address"
        }
      ],
      "stateMutability": "view",
      "type": "function",
      "constant": true
    },
    {
      "inputs": [],
      "name": "renounceOwnership",
      "outputs": [],
      "stateMutability": "nonpayable",
      "type": "function"
    },
    {
      "inputs": [],
      "name": "swapTokensAtAmount",
      "outputs": [
        {
          "internalType": "uint256",
          "name": "",
          "type": "uint256"
        }
      ],
      "stateMutability": "view",
      "type": "function",
      "constant": true
    },
    {
      "inputs": [],
      "name": "symbol",
      "outputs": [
        {
          "internalType": "string",
          "name": "",
          "type": "string"
        }
      ],
      "stateMutability": "view",
      "type": "function",
      "constant": true
    },
    {
      "inputs": [],
      "name": "totalSupply",
      "outputs": [
        {
          "internalType": "uint256",
          "name": "",
          "type": "uint256"
        }
      ],
      "stateMutability": "view",
      "type": "function",
      "constant": true
    },
    {
      "inputs": [],
      "name": "tradingOpen",
      "outputs": [
        {
          "internalType": "bool",
          "name": "",
          "type": "bool"
        }
      ],
      "stateMutability": "view",
      "type": "function",
      "constant": true
    },
    {
      "inputs": [
        {
          "internalType": "address",
          "name": "recipient",
          "type": "address"
        },
        {
          "internalType": "uint256",
          "name": "amount",
          "type": "uint256"
        }
      ],
      "name": "transfer",
      "outputs": [
        {
          "internalType": "bool",
          "name": "",
          "type": "bool"
        }
      ],
      "stateMutability": "nonpayable",
      "type": "function"
    },
    {
      "inputs": [
        {
          "internalType": "address",
          "name": "sender",
          "type": "address"
        },
        {
          "internalType": "address",
          "name": "recipient",
          "type": "address"
        },
        {
          "internalType": "uint256",
          "name": "amount",
          "type": "uint256"
        }
      ],
      "name": "transferFrom",
      "outputs": [
        {
          "internalType": "bool",
          "name": "",
          "type": "bool"
        }
      ],
      "stateMutability": "nonpayable",
      "type": "function"
    },
    {
      "inputs": [
        {
          "internalType": "address",
          "name": "newOwner",
          "type": "address"
        }
      ],
      "name": "transferOwnership",
      "outputs": [],
      "stateMutability": "nonpayable",
      "type": "function"
    },
    {
      "inputs": [],
      "name": "uniswapV2Pair",
      "outputs": [
        {
          "internalType": "address",
          "name": "",
          "type": "address"
        }
      ],
      "stateMutability": "view",
      "type": "function",
      "constant": true
    },
    {
      "inputs": [],
      "name": "uniswapV2Router",
      "outputs": [
        {
          "internalType": "contract IUniswapV2Router02",
          "name": "",
          "type": "address"
        }
      ],
      "stateMutability": "view",
      "type": "function",
      "constant": true
    },
    {
      "stateMutability": "payable",
      "type": "receive",
      "payable": true
    },
    {
      "inputs": [
        {
          "internalType": "address",
          "name": "newAddress",
          "type": "address"
        }
      ],
      "name": "updateUniswapV2Router",
      "outputs": [
        {
          "internalType": "bool",
          "name": "",
          "type": "bool"
        }
      ],
      "stateMutability": "nonpayable",
      "type": "function"
    },
    {
      "inputs": [
        {
          "internalType": "address",
          "name": "account",
          "type": "address"
        },
        {
          "internalType": "bool",
          "name": "excluded",
          "type": "bool"
        }
      ],
      "name": "excludeFromFees",
      "outputs": [
        {
          "internalType": "bool",
          "name": "",
          "type": "bool"
        }
      ],
      "stateMutability": "nonpayable",
      "type": "function"
    },
    {
      "inputs": [
        {
          "internalType": "address[]",
          "name": "accounts",
          "type": "address[]"
        },
        {
          "internalType": "bool",
          "name": "excluded",
          "type": "bool"
        }
      ],
      "name": "excludeMultipleAccountsFromFees",
      "outputs": [
        {
          "internalType": "bool",
          "name": "",
          "type": "bool"
        }
      ],
      "stateMutability": "nonpayable",
      "type": "function"
    },
    {
      "inputs": [
        {
          "internalType": "uint256",
          "name": "value",
          "type": "uint256"
        }
      ],
      "name": "setLiquidityFee",
      "outputs": [
        {
          "internalType": "bool",
          "name": "",
          "type": "bool"
        }
      ],
      "stateMutability": "nonpayable",
      "type": "function"
    },
    {
      "inputs": [
        {
          "internalType": "address",
          "name": "wallet",
          "type": "address"
        }
      ],
      "name": "setMarketingWallet",
      "outputs": [
        {
          "internalType": "bool",
          "name": "",
          "type": "bool"
        }
      ],
      "stateMutability": "nonpayable",
      "type": "function"
    },
    {
      "inputs": [
        {
          "internalType": "address",
          "name": "wallet",
          "type": "address"
        }
      ],
      "name": "setDevWallet",
      "outputs": [
        {
          "internalType": "bool",
          "name": "",
          "type": "bool"
        }
      ],
      "stateMutability": "nonpayable",
      "type": "function"
    },
    {
      "inputs": [
        {
          "internalType": "address",
          "name": "account",
          "type": "address"
        }
      ],
      "name": "isExcludedFromFees",
      "outputs": [
        {
          "internalType": "bool",
          "name": "",
          "type": "bool"
        }
      ],
      "stateMutability": "view",
      "type": "function",
      "constant": true
    },
    {
      "inputs": [
        {
          "internalType": "address",
          "name": "account",
          "type": "address"
        },
        {
          "internalType": "bool",
          "name": "value",
          "type": "bool"
        }
      ],
      "name": "blacklistAddress",
      "outputs": [
        {
          "internalType": "bool",
          "name": "",
          "type": "bool"
        }
      ],
      "stateMutability": "nonpayable",
      "type": "function"
    },
    {
      "inputs": [
        {
          "internalType": "address",
          "name": "account",
          "type": "address"
        }
      ],
      "name": "isBlacklisted",
      "outputs": [
        {
          "internalType": "bool",
          "name": "",
          "type": "bool"
        }
      ],
      "stateMutability": "view",
      "type": "function",
      "constant": true
    },
    {
      "inputs": [],
      "name": "removeAllFee",
      "outputs": [],
      "stateMutability": "nonpayable",
      "type": "function"
    },
    {
      "inputs": [],
      "name": "restoreAllFee",
      "outputs": [],
      "stateMutability": "nonpayable",
      "type": "function"
    },
    {
      "inputs": [
        {
          "internalType": "bool",
          "name": "_status",
          "type": "bool"
        },
        {
          "internalType": "uint256",
          "name": "_deadBlocks",
          "type": "uint256"
        }
      ],
      "name": "tradingStatus",
      "outputs": [],
      "stateMutability": "nonpayable",
      "type": "function"
    },
    {
      "inputs": [],
      "name": "withdraw",
      "outputs": [
        {
          "internalType": "bool",
          "name": "",
          "type": "bool"
        }
      ],
      "stateMutability": "nonpayable",
      "type": "function"
    }
  ],
  "bytecode": "0x6080604052730534474c7d2e7023196c5d5c769ccec8fcb239bd600860006101000a81548173ffffffffffffffffffffffffffffffffffffffff021916908373ffffffffffffffffffffffffffffffffffffffff16021790555073bd25a03b27cd302cd3681ba3274a36f3aafc84f7600960006101000a81548173ffffffffffffffffffffffffffffffffffffffff021916908373ffffffffffffffffffffffffffffffffffffffff160217905550692a5a058fc295ed000000600a5569d3c21bcecceda1000000600b556a0422ca8b0a00a425000000600c556003600f556004601155600360135560636015556000601660006101000a81548160ff021916908315150217905550600660175560006018556200014b60115462000137601354600f546200052760201b6200204a1790919060201c565b6200052760201b6200204a1790919060201c565b601a553480156200015b57600080fd5b506040518060400160405280600d81526020017f4c756369644c616e647347656d000000000000000000000000000000000000008152506040518060400160405280600381526020017f4c4c4700000000000000000000000000000000000000000000000000000000008152508160039080519060200190620001e092919062000992565b508060049080519060200190620001f992919062000992565b5050506200021c620002106200053f60201b60201c565b6200054760201b60201c565b600073d99d1c33f9fc3444f8101754abc46c52416550d1905060008173ffffffffffffffffffffffffffffffffffffffff1663c45a01556040518163ffffffff1660e01b815260040160206040518083038186803b1580156200027e57600080fd5b505afa15801562000293573d6000803e3d6000fd5b505050506040513d601f19601f82011682018060405250810190620002b9919062000a59565b73ffffffffffffffffffffffffffffffffffffffff1663c9c65396308473ffffffffffffffffffffffffffffffffffffffff1663ad5c46486040518163ffffffff1660e01b815260040160206040518083038186803b1580156200031c57600080fd5b505afa15801562000331573d6000803e3d6000fd5b505050506040513d601f19601f8201168201806040525081019062000357919062000a59565b6040518363ffffffff1660e01b81526004016200037692919062000b2d565b602060405180830381600087803b1580156200039157600080fd5b505af1158015620003a6573d6000803e3d6000fd5b505050506040513d601f19601f82011682018060405250810190620003cc919062000a59565b905081600660006101000a81548173ffffffffffffffffffffffffffffffffffffffff021916908373ffffffffffffffffffffffffffffffffffffffff16021790555080600760006101000a81548173ffffffffffffffffffffffffffffffffffffffff021916908373ffffffffffffffffffffffffffffffffffffffff16021790555062000472620004646200060d60201b60201c565b60016200063760201b60201c565b50620004a8600860009054906101000a900473ffffffffffffffffffffffffffffffffffffffff1660016200063760201b60201c565b50620004de600960009054906101000a900473ffffffffffffffffffffffffffffffffffffffff1660016200063760201b60201c565b50620004f23060016200063760201b60201c565b506200051f620005076200060d60201b60201c565b6a52b7d2dcc80cd2e40000006200080f60201b60201c565b505062000e01565b6000818362000537919062000c0b565b905092915050565b600033905090565b6000600560009054906101000a900473ffffffffffffffffffffffffffffffffffffffff16905081600560006101000a81548173ffffffffffffffffffffffffffffffffffffffff021916908373ffffffffffffffffffffffffffffffffffffffff1602179055508173ffffffffffffffffffffffffffffffffffffffff168173ffffffffffffffffffffffffffffffffffffffff167f8be0079c531659141344cd1fd0a4f28419497f9722a3daafe3b4186f6b6457e060405160405180910390a35050565b6000600560009054906101000a900473ffffffffffffffffffffffffffffffffffffffff16905090565b6000620006496200053f60201b60201c565b73ffffffffffffffffffffffffffffffffffffffff166200066f6200060d60201b60201c565b73ffffffffffffffffffffffffffffffffffffffff1614620006c8576040517f08c379a0000000000000000000000000000000000000000000000000000000008152600401620006bf9062000b77565b60405180910390fd5b811515600e60008573ffffffffffffffffffffffffffffffffffffffff1673ffffffffffffffffffffffffffffffffffffffff16815260200190815260200160002060009054906101000a900460ff16151514156200075e576040517f08c379a0000000000000000000000000000000000000000000000000000000008152600401620007559062000b99565b60405180910390fd5b81600e60008573ffffffffffffffffffffffffffffffffffffffff1673ffffffffffffffffffffffffffffffffffffffff16815260200190815260200160002060006101000a81548160ff0219169083151502179055508273ffffffffffffffffffffffffffffffffffffffff167f9d8f7706ea1113d1a167b526eca956215946dd36cc7df39eb16180222d8b5df783604051620007fd919062000b5a565b60405180910390a26001905092915050565b600073ffffffffffffffffffffffffffffffffffffffff168273ffffffffffffffffffffffffffffffffffffffff16141562000882576040517f08c379a0000000000000000000000000000000000000000000000000000000008152600401620008799062000bbb565b60405180910390fd5b62000896600083836200098860201b60201c565b8060026000828254620008aa919062000c0b565b92505081905550806000808473ffffffffffffffffffffffffffffffffffffffff1673ffffffffffffffffffffffffffffffffffffffff168152602001908152602001600020600082825462000901919062000c0b565b925050819055508173ffffffffffffffffffffffffffffffffffffffff16600073ffffffffffffffffffffffffffffffffffffffff167fddf252ad1be2c89b69c2b068fc378daa952ba7f163c4a11628f55a4df523b3ef8360405162000968919062000bdd565b60405180910390a362000984600083836200098d60201b60201c565b5050565b505050565b505050565b828054620009a09062000cb2565b90600052602060002090601f016020900481019282620009c4576000855562000a10565b82601f10620009df57805160ff191683800117855562000a10565b8280016001018555821562000a10579182015b8281111562000a0f578251825591602001919060010190620009f2565b5b50905062000a1f919062000a23565b5090565b5b8082111562000a3e57600081600090555060010162000a24565b5090565b60008151905062000a538162000de7565b92915050565b60006020828403121562000a6c57600080fd5b600062000a7c8482850162000a42565b91505092915050565b62000a908162000c68565b82525050565b62000aa18162000c7c565b82525050565b600062000ab660208362000bfa565b915062000ac38262000d46565b602082019050919050565b600062000add60348362000bfa565b915062000aea8262000d6f565b604082019050919050565b600062000b04601f8362000bfa565b915062000b118262000dbe565b602082019050919050565b62000b278162000ca8565b82525050565b600060408201905062000b44600083018562000a85565b62000b53602083018462000a85565b9392505050565b600060208201905062000b71600083018462000a96565b92915050565b6000602082019050818103600083015262000b928162000aa7565b9050919050565b6000602082019050818103600083015262000bb48162000ace565b9050919050565b6000602082019050818103600083015262000bd68162000af5565b9050919050565b600060208201905062000bf4600083018462000b1c565b92915050565b600082825260208201905092915050565b600062000c188262000ca8565b915062000c258362000ca8565b9250827fffffffffffffffffffffffffffffffffffffffffffffffffffffffffffffffff0382111562000c5d5762000c5c62000ce8565b5b828201905092915050565b600062000c758262000c88565b9050919050565b60008115159050919050565b600073ffffffffffffffffffffffffffffffffffffffff82169050919050565b6000819050919050565b6000600282049050600182168062000ccb57607f821691505b6020821081141562000ce25762000ce162000d17565b5b50919050565b7f4e487b7100000000000000000000000000000000000000000000000000000000600052601160045260246000fd5b7f4e487b7100000000000000000000000000000000000000000000000000000000600052602260045260246000fd5b7f4f776e61626c653a2063616c6c6572206973206e6f7420746865206f776e6572600082015250565b7f4c756369644c616e647347656d3a204163636f756e7420697320616c7265616460008201527f79206578636c756465642066726f6d2066656573000000000000000000000000602082015250565b7f45524332303a206d696e7420746f20746865207a65726f206164647265737300600082015250565b62000df28162000c68565b811462000dfe57600080fd5b50565b6145de8062000e116000396000f3fe6080604052600436106102815760003560e01c80636bc87c3a1161014f578063bf56b371116100c1578063e7e3e3a71161007a578063e7e3e3a714610a3b578063f2fde38b14610a52578063fabb0b4f14610a7b578063fe575a8714610aa6578063fea4fa4d14610ae3578063ffb54a9914610b0e57610288565b8063bf56b37114610903578063bf8623911461092e578063c024666814610959578063c492f04614610996578063dd62ed3e146109d3578063e2f4560514610a1057610288565b80638da5cb5b116101135780638da5cb5b146107dd57806395d89b4114610808578063a457c2d714610833578063a9059cbb14610870578063aa45026b146108ad578063b425bac3146108d857610288565b80636bc87c3a146107085780636c0a24eb1461073357806370a082311461075e578063715018a61461079b5780637d1db4a5146107b257610288565b8063313ce567116101f357806349bd5a5e116101ac57806349bd5a5e146105d05780634ea77f18146105fb5780634fbee193146106265780635d098b381461066357806365b8dbc0146106a0578063699d5dbb146106dd57610288565b8063313ce56714610498578063357bf15c146104c357806339509351146105005780633ccfd60b1461053d5780634144d9e414610568578063455a43961461059357610288565b80631f53ac02116102455780631f53ac021461038857806322976e0d146103c557806323b872dd146103f057806326e353b81461042d5780632701a4f214610456578063301370af1461048157610288565b806306fdde031461028d578063095ea7b3146102b85780631694505e146102f557806318160ddd146103205780631cdd3be31461034b57610288565b3661028857005b600080fd5b34801561029957600080fd5b506102a2610b39565b6040516102af9190613aa1565b60405180910390f35b3480156102c457600080fd5b506102df60048036038101906102da919061347d565b610bcb565b6040516102ec9190613a6b565b60405180910390f35b34801561030157600080fd5b5061030a610be9565b6040516103179190613a86565b60405180910390f35b34801561032c57600080fd5b50610335610c0f565b6040516103429190613cc3565b60405180910390f35b34801561035757600080fd5b50610372600480360381019061036d9190613364565b610c19565b60405161037f9190613a6b565b60405180910390f35b34801561039457600080fd5b506103af60048036038101906103aa9190613364565b610c39565b6040516103bc9190613a6b565b60405180910390f35b3480156103d157600080fd5b506103da610d01565b6040516103e79190613cc3565b60405180910390f35b3480156103fc57600080fd5b50610417600480360381019061041291906133f2565b610d07565b6040516104249190613a6b565b60405180910390f35b34801561043957600080fd5b50610454600480360381019061044f9190613511565b610dff565b005b34801561046257600080fd5b5061046b610ecb565b6040516104789190613cc3565b60405180910390f35b34801561048d57600080fd5b50610496610ed1565b005b3480156104a457600080fd5b506104ad610f57565b6040516104ba9190613d6f565b60405180910390f35b3480156104cf57600080fd5b506104ea60048036038101906104e5919061354d565b610f60565b6040516104f79190613a6b565b60405180910390f35b34801561050c57600080fd5b506105276004803603810190610522919061347d565b610fee565b6040516105349190613a6b565b60405180910390f35b34801561054957600080fd5b5061055261109a565b60405161055f9190613a6b565b60405180910390f35b34801561057457600080fd5b5061057d611166565b60405161058a9190613994565b60405180910390f35b34801561059f57600080fd5b506105ba60048036038101906105b59190613441565b61118c565b6040516105c79190613a6b565b60405180910390f35b3480156105dc57600080fd5b506105e561126b565b6040516105f29190613979565b60405180910390f35b34801561060757600080fd5b50610610611291565b60405161061d9190613cc3565b60405180910390f35b34801561063257600080fd5b5061064d60048036038101906106489190613364565b611297565b60405161065a9190613a6b565b60405180910390f35b34801561066f57600080fd5b5061068a60048036038101906106859190613364565b6112ed565b6040516106979190613a6b565b60405180910390f35b3480156106ac57600080fd5b506106c760048036038101906106c29190613364565b6113b5565b6040516106d49190613a6b565b60405180910390f35b3480156106e957600080fd5b506106f261179b565b6040516106ff9190613cc3565b60405180910390f35b34801561071457600080fd5b5061071d6117a1565b60405161072a9190613cc3565b60405180910390f35b34801561073f57600080fd5b506107486117a7565b6040516107559190613cc3565b60405180910390f35b34801561076a57600080fd5b5061078560048036038101906107809190613364565b6117ad565b6040516107929190613cc3565b60405180910390f35b3480156107a757600080fd5b506107b06117f5565b005b3480156107be57600080fd5b506107c761187d565b6040516107d49190613cc3565b60405180910390f35b3480156107e957600080fd5b506107f2611883565b6040516107ff9190613979565b60405180910390f35b34801561081457600080fd5b5061081d6118ad565b60405161082a9190613aa1565b60405180910390f35b34801561083f57600080fd5b5061085a6004803603810190610855919061347d565b61193f565b6040516108679190613a6b565b60405180910390f35b34801561087c57600080fd5b506108976004803603810190610892919061347d565b611a2a565b6040516108a49190613a6b565b60405180910390f35b3480156108b957600080fd5b506108c2611a48565b6040516108cf9190613cc3565b60405180910390f35b3480156108e457600080fd5b506108ed611a4e565b6040516108fa9190613994565b60405180910390f35b34801561090f57600080fd5b50610918611a74565b6040516109259190613cc3565b60405180910390f35b34801561093a57600080fd5b50610943611a7a565b6040516109509190613cc3565b60405180910390f35b34801561096557600080fd5b50610980600480360381019061097b9190613441565b611a80565b60405161098d9190613a6b565b60405180910390f35b3480156109a257600080fd5b506109bd60048036038101906109b891906134b9565b611c40565b6040516109ca9190613a6b565b60405180910390f35b3480156109df57600080fd5b506109fa60048036038101906109f591906133b6565b611dca565b604051610a079190613cc3565b60405180910390f35b348015610a1c57600080fd5b50610a25611e51565b604051610a329190613cc3565b60405180910390f35b348015610a4757600080fd5b50610a50611e57565b005b348015610a5e57600080fd5b50610a796004803603810190610a749190613364565b611edd565b005b348015610a8757600080fd5b50610a90611fd5565b604051610a9d9190613cc3565b60405180910390f35b348015610ab257600080fd5b50610acd6004803603810190610ac89190613364565b611fdb565b604051610ada9190613a6b565b60405180910390f35b348015610aef57600080fd5b50610af8612031565b604051610b059190613cc3565b60405180910390f35b348015610b1a57600080fd5b50610b23612037565b604051610b309190613a6b565b60405180910390f35b606060038054610b4890613ff2565b80601f0160208091040260200160405190810160405280929190818152602001828054610b7490613ff2565b8015610bc15780601f10610b9657610100808354040283529160200191610bc1565b820191906000526020600020905b815481529060010190602001808311610ba457829003601f168201915b5050505050905090565b6000610bdf610bd8612060565b8484612068565b6001905092915050565b600660009054906101000a900473ffffffffffffffffffffffffffffffffffffffff1681565b6000600254905090565b600d6020528060005260406000206000915054906101000a900460ff1681565b6000610c43612060565b73ffffffffffffffffffffffffffffffffffffffff16610c61611883565b73ffffffffffffffffffffffffffffffffffffffff1614610cb7576040517f08c379a0000000000000000000000000000000000000000000000000000000008152600401610cae90613be3565b60405180910390fd5b81600960006101000a81548173ffffffffffffffffffffffffffffffffffffffff021916908373ffffffffffffffffffffffffffffffffffffffff16021790555060019050919050565b60135481565b6000610d14848484612233565b6000600160008673ffffffffffffffffffffffffffffffffffffffff1673ffffffffffffffffffffffffffffffffffffffff1681526020019081526020016000206000610d5f612060565b73ffffffffffffffffffffffffffffffffffffffff1673ffffffffffffffffffffffffffffffffffffffff16815260200190815260200160002054905082811015610ddf576040517f08c379a0000000000000000000000000000000000000000000000000000000008152600401610dd690613bc3565b60405180910390fd5b610df385610deb612060565b858403612068565b60019150509392505050565b610e07612060565b73ffffffffffffffffffffffffffffffffffffffff16610e25611883565b73ffffffffffffffffffffffffffffffffffffffff1614610e7b576040517f08c379a0000000000000000000000000000000000000000000000000000000008152600401610e7290613be3565b60405180910390fd5b81601660006101000a81548160ff021916908315150217905550601660009054906101000a900460ff168015610eb357506000601854145b15610ec75743601881905550806017819055505b5050565b60105481565b610ed9612060565b73ffffffffffffffffffffffffffffffffffffffff16610ef7611883565b73ffffffffffffffffffffffffffffffffffffffff1614610f4d576040517f08c379a0000000000000000000000000000000000000000000000000000000008152600401610f4490613be3565b60405180910390fd5b610f55612930565b565b60006012905090565b6000610f6a612060565b73ffffffffffffffffffffffffffffffffffffffff16610f88611883565b73ffffffffffffffffffffffffffffffffffffffff1614610fde576040517f08c379a0000000000000000000000000000000000000000000000000000000008152600401610fd590613be3565b60405180910390fd5b81600f8190555060019050919050565b6000611090610ffb612060565b848460016000611009612060565b73ffffffffffffffffffffffffffffffffffffffff1673ffffffffffffffffffffffffffffffffffffffff16815260200190815260200160002060008873ffffffffffffffffffffffffffffffffffffffff1673ffffffffffffffffffffffffffffffffffffffff1681526020019081526020016000205461108b9190613e0d565b612068565b6001905092915050565b60006110a4612060565b73ffffffffffffffffffffffffffffffffffffffff166110c2611883565b73ffffffffffffffffffffffffffffffffffffffff1614611118576040517f08c379a000000000000000000000000000000000000000000000000000000000815260040161110f90613be3565b60405180910390fd5b3373ffffffffffffffffffffffffffffffffffffffff166108fc479081150290604051600060405180830381858888f1935050505015801561115e573d6000803e3d6000fd5b506001905090565b600860009054906101000a900473ffffffffffffffffffffffffffffffffffffffff1681565b6000611196612060565b73ffffffffffffffffffffffffffffffffffffffff166111b4611883565b73ffffffffffffffffffffffffffffffffffffffff161461120a576040517f08c379a000000000000000000000000000000000000000000000000000000000815260040161120190613be3565b60405180910390fd5b81600d60008573ffffffffffffffffffffffffffffffffffffffff1673ffffffffffffffffffffffffffffffffffffffff16815260200190815260200160002060006101000a81548160ff0219169083151502179055506001905092915050565b600760009054906101000a900473ffffffffffffffffffffffffffffffffffffffff1681565b60125481565b6000600e60008373ffffffffffffffffffffffffffffffffffffffff1673ffffffffffffffffffffffffffffffffffffffff16815260200190815260200160002060009054906101000a900460ff169050919050565b60006112f7612060565b73ffffffffffffffffffffffffffffffffffffffff16611315611883565b73ffffffffffffffffffffffffffffffffffffffff161461136b576040517f08c379a000000000000000000000000000000000000000000000000000000000815260040161136290613be3565b60405180910390fd5b81600860006101000a81548173ffffffffffffffffffffffffffffffffffffffff021916908373ffffffffffffffffffffffffffffffffffffffff16021790555060019050919050565b60006113bf612060565b73ffffffffffffffffffffffffffffffffffffffff166113dd611883565b73ffffffffffffffffffffffffffffffffffffffff1614611433576040517f08c379a000000000000000000000000000000000000000000000000000000000815260040161142a90613be3565b60405180910390fd5b600660009054906101000a900473ffffffffffffffffffffffffffffffffffffffff1673ffffffffffffffffffffffffffffffffffffffff168273ffffffffffffffffffffffffffffffffffffffff1614156114c4576040517f08c379a00000000000000000000000000000000000000000000000000000000081526004016114bb90613b63565b60405180910390fd5b600660009054906101000a900473ffffffffffffffffffffffffffffffffffffffff1673ffffffffffffffffffffffffffffffffffffffff168273ffffffffffffffffffffffffffffffffffffffff167f8fc842bbd331dfa973645f4ed48b11683d501ebf1352708d77a5da2ab49a576e60405160405180910390a381600660006101000a81548173ffffffffffffffffffffffffffffffffffffffff021916908373ffffffffffffffffffffffffffffffffffffffff1602179055506000600660009054906101000a900473ffffffffffffffffffffffffffffffffffffffff1673ffffffffffffffffffffffffffffffffffffffff1663c45a01556040518163ffffffff1660e01b815260040160206040518083038186803b1580156115eb57600080fd5b505afa1580156115ff573d6000803e3d6000fd5b505050506040513d601f19601f82011682018060405250810190611623919061338d565b73ffffffffffffffffffffffffffffffffffffffff1663c9c6539630600660009054906101000a900473ffffffffffffffffffffffffffffffffffffffff1673ffffffffffffffffffffffffffffffffffffffff1663ad5c46486040518163ffffffff1660e01b815260040160206040518083038186803b1580156116a757600080fd5b505afa1580156116bb573d6000803e3d6000fd5b505050506040513d601f19601f820116820180604052508101906116df919061338d565b6040518363ffffffff1660e01b81526004016116fc9291906139af565b602060405180830381600087803b15801561171657600080fd5b505af115801561172a573d6000803e3d6000fd5b505050506040513d601f19601f8201168201806040525081019061174e919061338d565b905080600760006101000a81548173ffffffffffffffffffffffffffffffffffffffff021916908373ffffffffffffffffffffffffffffffffffffffff1602179055506001915050919050565b60145481565b600f5481565b600c5481565b60008060008373ffffffffffffffffffffffffffffffffffffffff1673ffffffffffffffffffffffffffffffffffffffff168152602001908152602001600020549050919050565b6117fd612060565b73ffffffffffffffffffffffffffffffffffffffff1661181b611883565b73ffffffffffffffffffffffffffffffffffffffff1614611871576040517f08c379a000000000000000000000000000000000000000000000000000000000815260040161186890613be3565b60405180910390fd5b61187b6000612992565b565b600b5481565b6000600560009054906101000a900473ffffffffffffffffffffffffffffffffffffffff16905090565b6060600480546118bc90613ff2565b80601f01602080910402602001604051908101604052809291908181526020018280546118e890613ff2565b80156119355780601f1061190a57610100808354040283529160200191611935565b820191906000526020600020905b81548152906001019060200180831161191857829003601f168201915b5050505050905090565b6000806001600061194e612060565b73ffffffffffffffffffffffffffffffffffffffff1673ffffffffffffffffffffffffffffffffffffffff16815260200190815260200160002060008573ffffffffffffffffffffffffffffffffffffffff1673ffffffffffffffffffffffffffffffffffffffff16815260200190815260200160002054905082811015611a0b576040517f08c379a0000000000000000000000000000000000000000000000000000000008152600401611a0290613c83565b60405180910390fd5b611a1f611a16612060565b85858403612068565b600191505092915050565b6000611a3e611a37612060565b8484612233565b6001905092915050565b60115481565b600960009054906101000a900473ffffffffffffffffffffffffffffffffffffffff1681565b60185481565b60155481565b6000611a8a612060565b73ffffffffffffffffffffffffffffffffffffffff16611aa8611883565b73ffffffffffffffffffffffffffffffffffffffff1614611afe576040517f08c379a0000000000000000000000000000000000000000000000000000000008152600401611af590613be3565b60405180910390fd5b811515600e60008573ffffffffffffffffffffffffffffffffffffffff1673ffffffffffffffffffffffffffffffffffffffff16815260200190815260200160002060009054906101000a900460ff1615151415611b91576040517f08c379a0000000000000000000000000000000000000000000000000000000008152600401611b8890613c43565b60405180910390fd5b81600e60008573ffffffffffffffffffffffffffffffffffffffff1673ffffffffffffffffffffffffffffffffffffffff16815260200190815260200160002060006101000a81548160ff0219169083151502179055508273ffffffffffffffffffffffffffffffffffffffff167f9d8f7706ea1113d1a167b526eca956215946dd36cc7df39eb16180222d8b5df783604051611c2e9190613a6b565b60405180910390a26001905092915050565b6000611c4a612060565b73ffffffffffffffffffffffffffffffffffffffff16611c68611883565b73ffffffffffffffffffffffffffffffffffffffff1614611cbe576040517f08c379a0000000000000000000000000000000000000000000000000000000008152600401611cb590613be3565b60405180910390fd5b60005b84849050811015611d835782600e6000878785818110611d0a577f4e487b7100000000000000000000000000000000000000000000000000000000600052603260045260246000fd5b9050602002016020810190611d1f9190613364565b73ffffffffffffffffffffffffffffffffffffffff1673ffffffffffffffffffffffffffffffffffffffff16815260200190815260200160002060006101000a81548160ff0219169083151502179055508080611d7b90614024565b915050611cc1565b507f7fdaf542373fa84f4ee8d662c642f44e4c2276a217d7d29e548b6eb29a233b35848484604051611db793929190613a39565b60405180910390a1600190509392505050565b6000600160008473ffffffffffffffffffffffffffffffffffffffff1673ffffffffffffffffffffffffffffffffffffffff16815260200190815260200160002060008373ffffffffffffffffffffffffffffffffffffffff1673ffffffffffffffffffffffffffffffffffffffff16815260200190815260200160002054905092915050565b600a5481565b611e5f612060565b73ffffffffffffffffffffffffffffffffffffffff16611e7d611883565b73ffffffffffffffffffffffffffffffffffffffff1614611ed3576040517f08c379a0000000000000000000000000000000000000000000000000000000008152600401611eca90613be3565b60405180910390fd5b611edb612a58565b565b611ee5612060565b73ffffffffffffffffffffffffffffffffffffffff16611f03611883565b73ffffffffffffffffffffffffffffffffffffffff1614611f59576040517f08c379a0000000000000000000000000000000000000000000000000000000008152600401611f5090613be3565b60405180910390fd5b600073ffffffffffffffffffffffffffffffffffffffff168173ffffffffffffffffffffffffffffffffffffffff161415611fc9576040517f08c379a0000000000000000000000000000000000000000000000000000000008152600401611fc090613ae3565b60405180910390fd5b611fd281612992565b50565b60175481565b6000600d60008373ffffffffffffffffffffffffffffffffffffffff1673ffffffffffffffffffffffffffffffffffffffff16815260200190815260200160002060009054906101000a900460ff169050919050565b601a5481565b601660009054906101000a900460ff1681565b600081836120589190613e0d565b905092915050565b600033905090565b600073ffffffffffffffffffffffffffffffffffffffff168373ffffffffffffffffffffffffffffffffffffffff1614156120d8576040517f08c379a00000000000000000000000000000000000000000000000000000000081526004016120cf90613c23565b60405180910390fd5b600073ffffffffffffffffffffffffffffffffffffffff168273ffffffffffffffffffffffffffffffffffffffff161415612148576040517f08c379a000000000000000000000000000000000000000000000000000000000815260040161213f90613b03565b60405180910390fd5b80600160008573ffffffffffffffffffffffffffffffffffffffff1673ffffffffffffffffffffffffffffffffffffffff16815260200190815260200160002060008473ffffffffffffffffffffffffffffffffffffffff1673ffffffffffffffffffffffffffffffffffffffff168152602001908152602001600020819055508173ffffffffffffffffffffffffffffffffffffffff168373ffffffffffffffffffffffffffffffffffffffff167f8c5be1e5ebec7d5bd14f71427d1e84f3dd0314c0f7b2291e5b200ac8c7c3b925836040516122269190613cc3565b60405180910390a3505050565b600073ffffffffffffffffffffffffffffffffffffffff168373ffffffffffffffffffffffffffffffffffffffff1614156122a3576040517f08c379a000000000000000000000000000000000000000000000000000000000815260040161229a90613c03565b60405180910390fd5b600073ffffffffffffffffffffffffffffffffffffffff168273ffffffffffffffffffffffffffffffffffffffff161415612313576040517f08c379a000000000000000000000000000000000000000000000000000000000815260040161230a90613ac3565b60405180910390fd5b60008111612356576040517f08c379a000000000000000000000000000000000000000000000000000000000815260040161234d90613c63565b60405180910390fd5b600d60008473ffffffffffffffffffffffffffffffffffffffff1673ffffffffffffffffffffffffffffffffffffffff16815260200190815260200160002060009054906101000a900460ff161580156123fa5750600d60008373ffffffffffffffffffffffffffffffffffffffff1673ffffffffffffffffffffffffffffffffffffffff16815260200190815260200160002060009054906101000a900460ff16155b612439576040517f08c379a000000000000000000000000000000000000000000000000000000000815260040161243090613b43565b60405180910390fd5b600e60008473ffffffffffffffffffffffffffffffffffffffff1673ffffffffffffffffffffffffffffffffffffffff16815260200190815260200160002060009054906101000a900460ff1615806124dc5750600e60008373ffffffffffffffffffffffffffffffffffffffff1673ffffffffffffffffffffffffffffffffffffffff16815260200190815260200160002060009054906101000a900460ff16155b1561258557600b54811115612526576040517f08c379a000000000000000000000000000000000000000000000000000000000815260040161251d90613b83565b60405180910390fd5b6000612531836117ad565b9050600c5482826125429190613e0d565b1115612583576040517f08c379a000000000000000000000000000000000000000000000000000000000815260040161257a90613ca3565b60405180910390fd5b505b601660009054906101000a900460ff166125d4576040517f08c379a00000000000000000000000000000000000000000000000000000000081526004016125cb90613ba3565b60405180910390fd5b436017546018546125e59190613e0d565b1115612648576000612615606461260760155485612a7590919063ffffffff16565b612a8b90919063ffffffff16565b905061262a8183612aa190919063ffffffff16565b9150612637843083612ab7565b612642848484612ab7565b5061292b565b6000612653306117ad565b90506000600a5482101590508080156126795750601960009054906101000a900460ff16155b80156126b85750612688611883565b73ffffffffffffffffffffffffffffffffffffffff168573ffffffffffffffffffffffffffffffffffffffff1614155b80156126f757506126c7611883565b73ffffffffffffffffffffffffffffffffffffffff168473ffffffffffffffffffffffffffffffffffffffff1614155b80156127515750600760009054906101000a900473ffffffffffffffffffffffffffffffffffffffff1673ffffffffffffffffffffffffffffffffffffffff168573ffffffffffffffffffffffffffffffffffffffff1614155b15612808576001601960006101000a81548160ff02191690831515021790555060006127a9601a5461279b60115460135461278c9190613e0d565b86612a7590919063ffffffff16565b612a8b90919063ffffffff16565b90506127b481612d38565b60006127df601a546127d1600f5487612a7590919063ffffffff16565b612a8b90919063ffffffff16565b90506127ea81612e0a565b6000601960006101000a81548160ff02191690831515021790555050505b6000601960009054906101000a900460ff16159050600e60008773ffffffffffffffffffffffffffffffffffffffff1673ffffffffffffffffffffffffffffffffffffffff16815260200190815260200160002060009054906101000a900460ff16806128be5750600e60008673ffffffffffffffffffffffffffffffffffffffff1673ffffffffffffffffffffffffffffffffffffffff16815260200190815260200160002060009054906101000a900460ff165b156128c857600090505b801561291c5760006128f860646128ea601a5488612a7590919063ffffffff16565b612a8b90919063ffffffff16565b905061290d8186612aa190919063ffffffff16565b945061291a873083612ab7565b505b612927868686612ab7565b5050505b505050565b600060115414801561294457506000601354145b801561295257506000600f54145b1561295c57612990565b601154601281905550601354601481905550600f54601081905550600060118190555060006013819055506000600f819055505b565b6000600560009054906101000a900473ffffffffffffffffffffffffffffffffffffffff16905081600560006101000a81548173ffffffffffffffffffffffffffffffffffffffff021916908373ffffffffffffffffffffffffffffffffffffffff1602179055508173ffffffffffffffffffffffffffffffffffffffff168173ffffffffffffffffffffffffffffffffffffffff167f8be0079c531659141344cd1fd0a4f28419497f9722a3daafe3b4186f6b6457e060405160405180910390a35050565b601254601181905550601454601381905550601054600f81905550565b60008183612a839190613e94565b905092915050565b60008183612a999190613e63565b905092915050565b60008183612aaf9190613eee565b905092915050565b600073ffffffffffffffffffffffffffffffffffffffff168373ffffffffffffffffffffffffffffffffffffffff161415612b27576040517f08c379a0000000000000000000000000000000000000000000000000000000008152600401612b1e90613c03565b60405180910390fd5b600073ffffffffffffffffffffffffffffffffffffffff168273ffffffffffffffffffffffffffffffffffffffff161415612b97576040517f08c379a0000000000000000000000000000000000000000000000000000000008152600401612b8e90613ac3565b60405180910390fd5b612ba2838383612eaa565b60008060008573ffffffffffffffffffffffffffffffffffffffff1673ffffffffffffffffffffffffffffffffffffffff16815260200190815260200160002054905081811015612c28576040517f08c379a0000000000000000000000000000000000000000000000000000000008152600401612c1f90613b23565b60405180910390fd5b8181036000808673ffffffffffffffffffffffffffffffffffffffff1673ffffffffffffffffffffffffffffffffffffffff16815260200190815260200160002081905550816000808573ffffffffffffffffffffffffffffffffffffffff1673ffffffffffffffffffffffffffffffffffffffff1681526020019081526020016000206000828254612cbb9190613e0d565b925050819055508273ffffffffffffffffffffffffffffffffffffffff168473ffffffffffffffffffffffffffffffffffffffff167fddf252ad1be2c89b69c2b068fc378daa952ba7f163c4a11628f55a4df523b3ef84604051612d1f9190613cc3565b60405180910390a3612d32848484612eaf565b50505050565b6000479050612d4682612eb4565b6000612d5b8247612aa190919063ffffffff16565b9050612db1600860009054906101000a900473ffffffffffffffffffffffffffffffffffffffff16612dac601a54612d9e60135486612a7590919063ffffffff16565b612a8b90919063ffffffff16565b613178565b612e05600960009054906101000a900473ffffffffffffffffffffffffffffffffffffffff16612e00601a54612df260115486612a7590919063ffffffff16565b612a8b90919063ffffffff16565b613178565b505050565b6000612e20600283612a8b90919063ffffffff16565b90506000612e378284612aa190919063ffffffff16565b90506000479050612e4783612eb4565b6000612e5c8247612aa190919063ffffffff16565b9050612e6883826131c3565b7f17bbfb9a6069321b6ded73bd96327c9e6b7212a5cd51ff219cd61370acafb561848285604051612e9b93929190613d38565b60405180910390a15050505050565b505050565b505050565b6000600267ffffffffffffffff811115612ef7577f4e487b7100000000000000000000000000000000000000000000000000000000600052604160045260246000fd5b604051908082528060200260200182016040528015612f255781602001602082028036833780820191505090505b5090503081600081518110612f63577f4e487b7100000000000000000000000000000000000000000000000000000000600052603260045260246000fd5b602002602001019073ffffffffffffffffffffffffffffffffffffffff16908173ffffffffffffffffffffffffffffffffffffffff1681525050600660009054906101000a900473ffffffffffffffffffffffffffffffffffffffff1673ffffffffffffffffffffffffffffffffffffffff1663ad5c46486040518163ffffffff1660e01b815260040160206040518083038186803b15801561300557600080fd5b505afa158015613019573d6000803e3d6000fd5b505050506040513d601f19601f8201168201806040525081019061303d919061338d565b81600181518110613077577f4e487b7100000000000000000000000000000000000000000000000000000000600052603260045260246000fd5b602002602001019073ffffffffffffffffffffffffffffffffffffffff16908173ffffffffffffffffffffffffffffffffffffffff16815250506130de30600660009054906101000a900473ffffffffffffffffffffffffffffffffffffffff1684612068565b600660009054906101000a900473ffffffffffffffffffffffffffffffffffffffff1673ffffffffffffffffffffffffffffffffffffffff1663791ac9478360008430426040518663ffffffff1660e01b8152600401613142959493929190613cde565b600060405180830381600087803b15801561315c57600080fd5b505af1158015613170573d6000803e3d6000fd5b505050505050565b8173ffffffffffffffffffffffffffffffffffffffff166108fc829081150290604051600060405180830381858888f193505050501580156131be573d6000803e3d6000fd5b505050565b6131f030600660009054906101000a900473ffffffffffffffffffffffffffffffffffffffff1684612068565b600660009054906101000a900473ffffffffffffffffffffffffffffffffffffffff1673ffffffffffffffffffffffffffffffffffffffff1663f305d7198230856000806000426040518863ffffffff1660e01b8152600401613258969594939291906139d8565b6060604051808303818588803b15801561327157600080fd5b505af1158015613285573d6000803e3d6000fd5b50505050506040513d601f19601f820116820180604052508101906132aa9190613576565b5050505050565b6000813590506132c081614563565b92915050565b6000815190506132d581614563565b92915050565b60008083601f8401126132ed57600080fd5b8235905067ffffffffffffffff81111561330657600080fd5b60208301915083602082028301111561331e57600080fd5b9250929050565b6000813590506133348161457a565b92915050565b60008135905061334981614591565b92915050565b60008151905061335e81614591565b92915050565b60006020828403121561337657600080fd5b6000613384848285016132b1565b91505092915050565b60006020828403121561339f57600080fd5b60006133ad848285016132c6565b91505092915050565b600080604083850312156133c957600080fd5b60006133d7858286016132b1565b92505060206133e8858286016132b1565b9150509250929050565b60008060006060848603121561340757600080fd5b6000613415868287016132b1565b9350506020613426868287016132b1565b92505060406134378682870161333a565b9150509250925092565b6000806040838503121561345457600080fd5b6000613462858286016132b1565b925050602061347385828601613325565b9150509250929050565b6000806040838503121561349057600080fd5b600061349e858286016132b1565b92505060206134af8582860161333a565b9150509250929050565b6000806000604084860312156134ce57600080fd5b600084013567ffffffffffffffff8111156134e857600080fd5b6134f4868287016132db565b9350935050602061350786828701613325565b9150509250925092565b6000806040838503121561352457600080fd5b600061353285828601613325565b92505060206135438582860161333a565b9150509250929050565b60006020828403121561355f57600080fd5b600061356d8482850161333a565b91505092915050565b60008060006060848603121561358b57600080fd5b60006135998682870161334f565b93505060206135aa8682870161334f565b92505060406135bb8682870161334f565b9150509250925092565b60006135d183836135ec565b60208301905092915050565b6135e681613f34565b82525050565b6135f581613f22565b82525050565b61360481613f22565b82525050565b60006136168385613dd4565b935061362182613d8a565b8060005b8581101561365a576136378284613df6565b61364188826135c5565b975061364c83613dba565b925050600181019050613625565b5085925050509392505050565b600061367282613da4565b61367c8185613dd4565b935061368783613d94565b8060005b838110156136b857815161369f88826135c5565b97506136aa83613dc7565b92505060018101905061368b565b5085935050505092915050565b6136ce81613f46565b82525050565b6136dd81613f89565b82525050565b6136ec81613fad565b82525050565b60006136fd82613daf565b6137078185613de5565b9350613717818560208601613fbf565b613720816140fa565b840191505092915050565b6000613738602383613de5565b91506137438261410b565b604082019050919050565b600061375b602683613de5565b91506137668261415a565b604082019050919050565b600061377e602283613de5565b9150613789826141a9565b604082019050919050565b60006137a1602683613de5565b91506137ac826141f8565b604082019050919050565b60006137c4601383613de5565b91506137cf82614247565b602082019050919050565b60006137e7603283613de5565b91506137f282614270565b604082019050919050565b600061380a602883613de5565b9150613815826142bf565b604082019050919050565b600061382d601483613de5565b91506138388261430e565b602082019050919050565b6000613850602883613de5565b915061385b82614337565b604082019050919050565b6000613873602083613de5565b915061387e82614386565b602082019050919050565b6000613896602583613de5565b91506138a1826143af565b604082019050919050565b60006138b9602483613de5565b91506138c4826143fe565b604082019050919050565b60006138dc603483613de5565b91506138e78261444d565b604082019050919050565b60006138ff602883613de5565b915061390a8261449c565b604082019050919050565b6000613922602583613de5565b915061392d826144eb565b604082019050919050565b6000613945601383613de5565b91506139508261453a565b602082019050919050565b61396481613f72565b82525050565b61397381613f7c565b82525050565b600060208201905061398e60008301846135fb565b92915050565b60006020820190506139a960008301846135dd565b92915050565b60006040820190506139c460008301856135fb565b6139d160208301846135fb565b9392505050565b600060c0820190506139ed60008301896135fb565b6139fa602083018861395b565b613a0760408301876136e3565b613a1460608301866136e3565b613a2160808301856135fb565b613a2e60a083018461395b565b979650505050505050565b60006040820190508181036000830152613a5481858761360a565b9050613a6360208301846136c5565b949350505050565b6000602082019050613a8060008301846136c5565b92915050565b6000602082019050613a9b60008301846136d4565b92915050565b60006020820190508181036000830152613abb81846136f2565b905092915050565b60006020820190508181036000830152613adc8161372b565b9050919050565b60006020820190508181036000830152613afc8161374e565b9050919050565b60006020820190508181036000830152613b1c81613771565b9050919050565b60006020820190508181036000830152613b3c81613794565b9050919050565b60006020820190508181036000830152613b5c816137b7565b9050919050565b60006020820190508181036000830152613b7c816137da565b9050919050565b60006020820190508181036000830152613b9c816137fd565b9050919050565b60006020820190508181036000830152613bbc81613820565b9050919050565b60006020820190508181036000830152613bdc81613843565b9050919050565b60006020820190508181036000830152613bfc81613866565b9050919050565b60006020820190508181036000830152613c1c81613889565b9050919050565b60006020820190508181036000830152613c3c816138ac565b9050919050565b60006020820190508181036000830152613c5c816138cf565b9050919050565b60006020820190508181036000830152613c7c816138f2565b9050919050565b60006020820190508181036000830152613c9c81613915565b9050919050565b60006020820190508181036000830152613cbc81613938565b9050919050565b6000602082019050613cd8600083018461395b565b92915050565b600060a082019050613cf3600083018861395b565b613d0060208301876136e3565b8181036040830152613d128186613667565b9050613d2160608301856135fb565b613d2e608083018461395b565b9695505050505050565b6000606082019050613d4d600083018661395b565b613d5a602083018561395b565b613d67604083018461395b565b949350505050565b6000602082019050613d84600083018461396a565b92915050565b6000819050919050565b6000819050602082019050919050565b600081519050919050565b600081519050919050565b6000602082019050919050565b6000602082019050919050565b600082825260208201905092915050565b600082825260208201905092915050565b6000613e0560208401846132b1565b905092915050565b6000613e1882613f72565b9150613e2383613f72565b9250827fffffffffffffffffffffffffffffffffffffffffffffffffffffffffffffffff03821115613e5857613e5761406d565b5b828201905092915050565b6000613e6e82613f72565b9150613e7983613f72565b925082613e8957613e8861409c565b5b828204905092915050565b6000613e9f82613f72565b9150613eaa83613f72565b9250817fffffffffffffffffffffffffffffffffffffffffffffffffffffffffffffffff0483118215151615613ee357613ee261406d565b5b828202905092915050565b6000613ef982613f72565b9150613f0483613f72565b925082821015613f1757613f1661406d565b5b828203905092915050565b6000613f2d82613f52565b9050919050565b6000613f3f82613f52565b9050919050565b60008115159050919050565b600073ffffffffffffffffffffffffffffffffffffffff82169050919050565b6000819050919050565b600060ff82169050919050565b6000613f9482613f9b565b9050919050565b6000613fa682613f52565b9050919050565b6000613fb882613f72565b9050919050565b60005b83811015613fdd578082015181840152602081019050613fc2565b83811115613fec576000848401525b50505050565b6000600282049050600182168061400a57607f821691505b6020821081141561401e5761401d6140cb565b5b50919050565b600061402f82613f72565b91507fffffffffffffffffffffffffffffffffffffffffffffffffffffffffffffffff8214156140625761406161406d565b5b600182019050919050565b7f4e487b7100000000000000000000000000000000000000000000000000000000600052601160045260246000fd5b7f4e487b7100000000000000000000000000000000000000000000000000000000600052601260045260246000fd5b7f4e487b7100000000000000000000000000000000000000000000000000000000600052602260045260246000fd5b6000601f19601f8301169050919050565b7f45524332303a207472616e7366657220746f20746865207a65726f206164647260008201527f6573730000000000000000000000000000000000000000000000000000000000602082015250565b7f4f776e61626c653a206e6577206f776e657220697320746865207a65726f206160008201527f6464726573730000000000000000000000000000000000000000000000000000602082015250565b7f45524332303a20617070726f766520746f20746865207a65726f20616464726560008201527f7373000000000000000000000000000000000000000000000000000000000000602082015250565b7f45524332303a207472616e7366657220616d6f756e742065786365656473206260008201527f616c616e63650000000000000000000000000000000000000000000000000000602082015250565b7f426c61636b6c6973746564206164647265737300000000000000000000000000600082015250565b7f4c756369644c616e647347656d3a2054686520726f7574657220616c7265616460008201527f7920686173207468617420616464726573730000000000000000000000000000602082015250565b7f5472616e7366657220616d6f756e74206578636565647320746865206d61785460008201527f78416d6f756e742e000000000000000000000000000000000000000000000000602082015250565b7f54726164696e67206e6f74206f70656e20796574000000000000000000000000600082015250565b7f45524332303a207472616e7366657220616d6f756e742065786365656473206160008201527f6c6c6f77616e6365000000000000000000000000000000000000000000000000602082015250565b7f4f776e61626c653a2063616c6c6572206973206e6f7420746865206f776e6572600082015250565b7f45524332303a207472616e736665722066726f6d20746865207a65726f20616460008201527f6472657373000000000000000000000000000000000000000000000000000000602082015250565b7f45524332303a20617070726f76652066726f6d20746865207a65726f2061646460008201527f7265737300000000000000000000000000000000000000000000000000000000602082015250565b7f4c756369644c616e647347656d3a204163636f756e7420697320616c7265616460008201527f79206578636c756465642066726f6d2066656573000000000000000000000000602082015250565b7f5472616e7366657220416d6f756e742053686f756c642062652067726561746560008201527f72207468616e2030000000000000000000000000000000000000000000000000602082015250565b7f45524332303a2064656372656173656420616c6c6f77616e63652062656c6f7760008201527f207a65726f000000000000000000000000000000000000000000000000000000602082015250565b7f4d61782077616c6c657420457863656564656400000000000000000000000000600082015250565b61456c81613f22565b811461457757600080fd5b50565b61458381613f46565b811461458e57600080fd5b50565b61459a81613f72565b81146145a557600080fd5b5056fea264697066735822122023fded7efdf0f67e68d3d2a5f2df4487d0117634dcf71b7847491b914d1e482764736f6c63430008040033",
  "immutableReferences": {},
  "source": "// SPDX-License-Identifier: MIT\r\npragma solidity 0.8.4;\r\n\r\nimport \"./SafeMath.sol\";\r\nimport \"./Ownable.sol\";\r\nimport \"./IUniswapV2Pair.sol\";\r\nimport \"./IUniswapV2Factory.sol\";\r\nimport \"./IUniswapV2Router02.sol\";\r\nimport \"./ERC20.sol\";\r\n\r\ncontract LucidLandsGem is Context, ERC20, Ownable {\r\n    using SafeMath for uint256;\r\n\r\n    IUniswapV2Router02 public uniswapV2Router;\r\n    address public uniswapV2Pair;\r\n\r\n    address payable public _marketingWalletAddress =\r\n        payable(0x0534474C7D2E7023196c5d5c769cCEc8FcB239BD);\r\n\r\n    address payable public _devWalletAddress =\r\n        payable(0xBd25a03B27CD302CD3681bA3274a36F3Aafc84f7);\r\n\r\n    address private constant deadWallet =\r\n        0x000000000000000000000000000000000000dEaD;\r\n\r\n    uint256 public swapTokensAtAmount = 200000 * (10**18);\r\n\r\n    uint256 public _maxTxAmount = 1000000 * (10**18);\r\n    uint256 public _maxWalletAmount = 5000000 * (10**18);\r\n\r\n    uint256 private constant _totalsupply = 100000000 * (10**18);\r\n\r\n    mapping(address => bool) public _isBlacklisted;\r\n\r\n    mapping(address => bool) private _isExcludedFromFees;\r\n\r\n    uint256 public _liquidityFee = 3;\r\n    uint256 public _previousLiquidityFee;\r\n    uint256 public _devFee = 4;\r\n    uint256 public _prevDevFee;\r\n    uint256 public _marketingFee = 3;\r\n    uint256 public _prevMarketingFee;\r\n    uint256 public botFee = 99;\r\n    bool public tradingOpen = false;\r\n    uint256 public deadBlocks = 6;\r\n    uint256 public launchedAt = 0;\r\n    bool private swapping;\r\n\r\n    uint256 public _totalFees = _liquidityFee.add(_marketingFee).add(_devFee);\r\n\r\n    event ExcludeFromFees(address indexed account, bool isExcluded);\r\n    event ExcludeMultipleAccountsFromFees(address[] accounts, bool isExcluded);\r\n    event SwapAndLiquify(\r\n        uint256 tokensSwapped,\r\n        uint256 ethReceived,\r\n        uint256 tokensIntoLiqudity\r\n    );\r\n\r\n    event UpdateUniswapV2Router(\r\n        address indexed newAddress,\r\n        address indexed oldAddress\r\n    );\r\n\r\n    constructor() ERC20(\"LucidLandsGem\", \"LLG\") {\r\n        IUniswapV2Router02 _uniswapV2Router = IUniswapV2Router02(\r\n            0xD99D1c33F9fC3444f8101754aBC46c52416550D1\r\n        );\r\n        // Create a uniswap pair for this new token\r\n        address _uniswapV2Pair = IUniswapV2Factory(_uniswapV2Router.factory())\r\n            .createPair(address(this), _uniswapV2Router.WETH());\r\n\r\n        uniswapV2Router = _uniswapV2Router;\r\n        uniswapV2Pair = _uniswapV2Pair;\r\n\r\n        // exclude from paying fees or having max transaction amount\r\n        excludeFromFees(owner(), true);\r\n        excludeFromFees(_marketingWalletAddress, true);\r\n        excludeFromFees(_devWalletAddress, true);\r\n        excludeFromFees(address(this), true);\r\n\r\n        /*\r\n            _mint is an internal function in ERC20.sol that is only called here,\r\n            and CANNOT be called ever again\r\n        */\r\n        _mint(owner(), _totalsupply);\r\n    }\r\n\r\n    receive() external payable {}\r\n\r\n    function updateUniswapV2Router(address newAddress)\r\n        external\r\n        onlyOwner\r\n        returns (bool)\r\n    {\r\n        require(\r\n            newAddress != address(uniswapV2Router),\r\n            \"LucidLandsGem: The router already has that address\"\r\n        );\r\n        emit UpdateUniswapV2Router(newAddress, address(uniswapV2Router));\r\n        uniswapV2Router = IUniswapV2Router02(newAddress);\r\n        address _uniswapV2Pair = IUniswapV2Factory(uniswapV2Router.factory())\r\n            .createPair(address(this), uniswapV2Router.WETH());\r\n        uniswapV2Pair = _uniswapV2Pair;\r\n\r\n        return true;\r\n    }\r\n\r\n    function excludeFromFees(address account, bool excluded)\r\n        public\r\n        onlyOwner\r\n        returns (bool)\r\n    {\r\n        require(\r\n            _isExcludedFromFees[account] != excluded,\r\n            \"LucidLandsGem: Account is already excluded from fees\"\r\n        );\r\n        _isExcludedFromFees[account] = excluded;\r\n\r\n        emit ExcludeFromFees(account, excluded);\r\n\r\n        return true;\r\n    }\r\n\r\n    function excludeMultipleAccountsFromFees(\r\n        address[] calldata accounts,\r\n        bool excluded\r\n    ) external onlyOwner returns (bool) {\r\n        for (uint256 i = 0; i < accounts.length; i++) {\r\n            _isExcludedFromFees[accounts[i]] = excluded;\r\n        }\r\n\r\n        emit ExcludeMultipleAccountsFromFees(accounts, excluded);\r\n\r\n        return true;\r\n    }\r\n\r\n    function setLiquidityFee(uint256 value) external onlyOwner returns (bool) {\r\n        _liquidityFee = value;\r\n\r\n        return true;\r\n    }\r\n\r\n    function setMarketingWallet(address wallet)\r\n        external\r\n        onlyOwner\r\n        returns (bool)\r\n    {\r\n        _marketingWalletAddress = payable(wallet);\r\n\r\n        return true;\r\n    }\r\n\r\n    function setDevWallet(address wallet) external onlyOwner returns (bool) {\r\n        _devWalletAddress = payable(wallet);\r\n\r\n        return true;\r\n    }\r\n\r\n    function isExcludedFromFees(address account) external view returns (bool) {\r\n        return _isExcludedFromFees[account];\r\n    }\r\n\r\n    function blacklistAddress(address account, bool value)\r\n        external\r\n        onlyOwner\r\n        returns (bool)\r\n    {\r\n        _isBlacklisted[account] = value;\r\n\r\n        return true;\r\n    }\r\n\r\n    function isBlacklisted(address account) external view returns (bool) {\r\n        return _isBlacklisted[account];\r\n    }\r\n\r\n    function _transfer(\r\n        address from,\r\n        address to,\r\n        uint256 amount\r\n    ) internal override {\r\n        require(from != address(0), \"ERC20: transfer from the zero address\");\r\n        require(to != address(0), \"ERC20: transfer to the zero address\");\r\n        require(amount > 0, \"Transfer Amount Should be greater than 0\");\r\n        require(\r\n            !_isBlacklisted[from] && !_isBlacklisted[to],\r\n            \"Blacklisted address\"\r\n        );\r\n        if (!_isExcludedFromFees[from] || !_isExcludedFromFees[to]) {\r\n            require(\r\n                amount <= _maxTxAmount,\r\n                \"Transfer amount exceeds the maxTxAmount.\"\r\n            );\r\n            uint256 accountBalance = balanceOf(to);\r\n            require(\r\n                (accountBalance + amount) <= _maxWalletAmount,\r\n                \"Max wallet Exceeded\"\r\n            );\r\n        }\r\n\r\n        require(tradingOpen, \"Trading not open yet\");\r\n\r\n        if (launchedAt + deadBlocks > block.number) {\r\n            uint256 fees = amount.mul(botFee).div(100);\r\n\r\n            amount = amount.sub(fees);\r\n\r\n            super._transfer(from, address(this), fees);\r\n\r\n            super._transfer(from, to, amount);\r\n        } else {\r\n            uint256 contractTokenBalance = balanceOf(address(this));\r\n            bool canSwap = contractTokenBalance >= swapTokensAtAmount;\r\n\r\n            if (\r\n                canSwap &&\r\n                !swapping &&\r\n                from != owner() &&\r\n                to != owner() &&\r\n                from != uniswapV2Pair\r\n            ) {\r\n                swapping = true;\r\n\r\n                uint256 feesTokens = contractTokenBalance\r\n                    .mul(_marketingFee + _devFee)\r\n                    .div(_totalFees);\r\n                swapAndSendToFee(feesTokens);\r\n\r\n                uint256 swapTokens = contractTokenBalance\r\n                    .mul(_liquidityFee)\r\n                    .div(_totalFees);\r\n                swapAndLiquify(swapTokens);\r\n\r\n                swapping = false;\r\n            }\r\n\r\n            bool takeFee = !swapping;\r\n\r\n            // if any account belongs to _isExcludedFromFee account then remove the fee\r\n            if (_isExcludedFromFees[from] || _isExcludedFromFees[to]) {\r\n                takeFee = false;\r\n            }\r\n\r\n            if (takeFee) {\r\n                uint256 fees = amount.mul(_totalFees).div(100);\r\n\r\n                amount = amount.sub(fees);\r\n\r\n                super._transfer(from, address(this), fees);\r\n            }\r\n\r\n            super._transfer(from, to, amount);\r\n        }\r\n    }\r\n\r\n    function swapAndLiquify(uint256 tokens) private {\r\n        // split the contract balance into halves\r\n        uint256 half = tokens.div(2);\r\n        uint256 otherHalf = tokens.sub(half);\r\n\r\n        // capture the contract's current ETH balance.\r\n        // this is so that we can capture exactly the amount of ETH that the\r\n        // swap creates, and not make the liquidity event include any ETH that\r\n        // has been manually sent to the contract\r\n        uint256 initialBalance = address(this).balance;\r\n\r\n        // swap tokens for ETH\r\n        swapTokensForEth(half); // swap half of the tokens for ETH\r\n\r\n        // how much ETH did we just swap into?\r\n        uint256 newBalance = address(this).balance.sub(initialBalance);\r\n\r\n        // add liquidity to uniswap\r\n        addLiquidity(otherHalf, newBalance);\r\n\r\n        emit SwapAndLiquify(half, newBalance, otherHalf);\r\n    }\r\n\r\n    function swapAndSendToFee(uint256 tokens) private {\r\n        uint256 initialBalance = address(this).balance;\r\n        swapTokensForEth(tokens);\r\n        uint256 transferredBalance = address(this).balance.sub(initialBalance);\r\n\r\n        //Send to Marketing address\r\n        transferToAddressETH(\r\n            _marketingWalletAddress,\r\n            transferredBalance.mul(_marketingFee).div(_totalFees)\r\n        );\r\n\r\n        //Send to Dev address\r\n        transferToAddressETH(\r\n            _devWalletAddress,\r\n            transferredBalance.mul(_devFee).div(_totalFees)\r\n        );\r\n    }\r\n\r\n    function swapTokensForEth(uint256 tokenAmount) private {\r\n        // generate the uniswap pair path of token -> weth\r\n        address[] memory path = new address[](2);\r\n        path[0] = address(this);\r\n        path[1] = uniswapV2Router.WETH();\r\n\r\n        _approve(address(this), address(uniswapV2Router), tokenAmount);\r\n\r\n        // make the swap\r\n        uniswapV2Router.swapExactTokensForETHSupportingFeeOnTransferTokens(\r\n            tokenAmount,\r\n            0, // accept any amount of ETH\r\n            path,\r\n            address(this),\r\n            block.timestamp\r\n        );\r\n    }\r\n\r\n    function addLiquidity(uint256 tokenAmount, uint256 ethAmount) private {\r\n        // approve token transfer to cover all possible scenarios\r\n        _approve(address(this), address(uniswapV2Router), tokenAmount);\r\n\r\n        // add the liquidity\r\n        uniswapV2Router.addLiquidityETH{value: ethAmount}(\r\n            address(this),\r\n            tokenAmount,\r\n            0, // slippage is unavoidable\r\n            0, // slippage is unavoidable\r\n            address(0),\r\n            block.timestamp\r\n        );\r\n    }\r\n\r\n    function transferToAddressETH(address payable recipient, uint256 amount)\r\n        private\r\n    {\r\n        recipient.transfer(amount);\r\n    }\r\n\r\n    function _removeAllFee() private {\r\n        if (_devFee == 0 && _marketingFee == 0 && _liquidityFee == 0) return;\r\n\r\n        _prevDevFee = _devFee;\r\n        _prevMarketingFee = _marketingFee;\r\n        _previousLiquidityFee = _liquidityFee;\r\n\r\n        _devFee = 0;\r\n        _marketingFee = 0;\r\n        _liquidityFee = 0;\r\n    }\r\n\r\n    function _restoreAllFee() private {\r\n        _devFee = _prevDevFee;\r\n        _marketingFee = _prevMarketingFee;\r\n        _liquidityFee = _previousLiquidityFee;\r\n    }\r\n\r\n    function removeAllFee() external onlyOwner {\r\n        _removeAllFee();\r\n    }\r\n\r\n    function restoreAllFee() external onlyOwner {\r\n        _restoreAllFee();\r\n    }\r\n\r\n    function tradingStatus(bool _status, uint256 _deadBlocks) public onlyOwner {\r\n        tradingOpen = _status;\r\n        if (tradingOpen && launchedAt == 0) {\r\n            launchedAt = block.number;\r\n            deadBlocks = _deadBlocks;\r\n        }\r\n    }\r\n\r\n    function withdraw() external onlyOwner returns (bool) {\r\n        payable(msg.sender).transfer(address(this).balance);\r\n\r\n        return true;\r\n    }\r\n}\r\n",
  "sourcePath": "C:/Users/vikas/Desktop/graphic-nft-new/src/contracts/LucidLandsGem.sol",
  "compiler": {
    "name": "solc",
    "version": "0.8.4+commit.c7e474f2.Emscripten.clang"
  },
  "schemaVersion": "3.4.1",
  "updatedAt": "2021-11-08T15:49:07.467Z",
  "networkType": "ethereum",
  "devdoc": {
    "kind": "dev",
    "methods": {
      "allowance(address,address)": {
        "details": "See {IERC20-allowance}."
      },
      "approve(address,uint256)": {
        "details": "See {IERC20-approve}. Requirements: - `spender` cannot be the zero address."
      },
      "balanceOf(address)": {
        "details": "See {IERC20-balanceOf}."
      },
      "decimals()": {
        "details": "Returns the number of decimals used to get its user representation. For example, if `decimals` equals `2`, a balance of `505` tokens should be displayed to a user as `5.05` (`505 / 10 ** 2`). Tokens usually opt for a value of 18, imitating the relationship between Ether and Wei. This is the value {ERC20} uses, unless this function is overridden; NOTE: This information is only used for _display_ purposes: it in no way affects any of the arithmetic of the contract, including {IERC20-balanceOf} and {IERC20-transfer}."
      },
      "decreaseAllowance(address,uint256)": {
        "details": "Atomically decreases the allowance granted to `spender` by the caller. This is an alternative to {approve} that can be used as a mitigation for problems described in {IERC20-approve}. Emits an {Approval} event indicating the updated allowance. Requirements: - `spender` cannot be the zero address. - `spender` must have allowance for the caller of at least `subtractedValue`."
      },
      "increaseAllowance(address,uint256)": {
        "details": "Atomically increases the allowance granted to `spender` by the caller. This is an alternative to {approve} that can be used as a mitigation for problems described in {IERC20-approve}. Emits an {Approval} event indicating the updated allowance. Requirements: - `spender` cannot be the zero address."
      },
      "name()": {
        "details": "Returns the name of the token."
      },
      "owner()": {
        "details": "Returns the address of the current owner."
      },
      "renounceOwnership()": {
        "details": "Leaves the contract without owner. It will not be possible to call `onlyOwner` functions anymore. Can only be called by the current owner. NOTE: Renouncing ownership will leave the contract without an owner, thereby removing any functionality that is only available to the owner."
      },
      "symbol()": {
        "details": "Returns the symbol of the token, usually a shorter version of the name."
      },
      "totalSupply()": {
        "details": "See {IERC20-totalSupply}."
      },
      "transfer(address,uint256)": {
        "details": "See {IERC20-transfer}. Requirements: - `recipient` cannot be the zero address. - the caller must have a balance of at least `amount`."
      },
      "transferFrom(address,address,uint256)": {
        "details": "See {IERC20-transferFrom}. Emits an {Approval} event indicating the updated allowance. This is not required by the EIP. See the note at the beginning of {ERC20}. Requirements: - `sender` and `recipient` cannot be the zero address. - `sender` must have a balance of at least `amount`. - the caller must have allowance for ``sender``'s tokens of at least `amount`."
      },
      "transferOwnership(address)": {
        "details": "Transfers ownership of the contract to a new account (`newOwner`). Can only be called by the current owner."
      }
    },
    "version": 1
  },
  "userdoc": {
    "kind": "user",
    "methods": {},
    "version": 1
  }
}