{
  "contractName": "ShroomieS",
  "abi": [
    {
      "inputs": [],
      "stateMutability": "nonpayable",
      "type": "constructor"
    },
    {
      "anonymous": false,
      "inputs": [
        {
          "indexed": true,
          "internalType": "address",
          "name": "owner",
          "type": "address"
        },
        {
          "indexed": true,
          "internalType": "address",
          "name": "approved",
          "type": "address"
        },
        {
          "indexed": true,
          "internalType": "uint256",
          "name": "tokenId",
          "type": "uint256"
        }
      ],
      "name": "Approval",
      "type": "event"
    },
    {
      "anonymous": false,
      "inputs": [
        {
          "indexed": true,
          "internalType": "address",
          "name": "owner",
          "type": "address"
        },
        {
          "indexed": true,
          "internalType": "address",
          "name": "operator",
          "type": "address"
        },
        {
          "indexed": false,
          "internalType": "bool",
          "name": "approved",
          "type": "bool"
        }
      ],
      "name": "ApprovalForAll",
      "type": "event"
    },
    {
      "anonymous": false,
      "inputs": [
        {
          "indexed": true,
          "internalType": "address",
          "name": "from",
          "type": "address"
        },
        {
          "indexed": true,
          "internalType": "address",
          "name": "to",
          "type": "address"
        },
        {
          "indexed": true,
          "internalType": "uint256",
          "name": "tokenId",
          "type": "uint256"
        }
      ],
      "name": "Transfer",
      "type": "event"
    },
    {
      "inputs": [
        {
          "internalType": "uint256",
          "name": "",
          "type": "uint256"
        }
      ],
      "name": "allShroomieS",
      "outputs": [
        {
          "internalType": "uint256",
          "name": "tokenId",
          "type": "uint256"
        },
        {
          "internalType": "string",
          "name": "tokenName",
          "type": "string"
        },
        {
          "internalType": "string",
          "name": "tokenURI",
          "type": "string"
        },
        {
          "internalType": "address payable",
          "name": "mintedBy",
          "type": "address"
        },
        {
          "internalType": "address payable",
          "name": "currentOwner",
          "type": "address"
        },
        {
          "internalType": "address payable",
          "name": "previousOwner",
          "type": "address"
        },
        {
          "internalType": "uint256",
          "name": "price",
          "type": "uint256"
        },
        {
          "internalType": "uint256",
          "name": "numberOfTransfers",
          "type": "uint256"
        },
        {
          "internalType": "bool",
          "name": "forSale",
          "type": "bool"
        }
      ],
      "stateMutability": "view",
      "type": "function",
      "constant": true
    },
    {
      "inputs": [
        {
          "internalType": "address",
          "name": "to",
          "type": "address"
        },
        {
          "internalType": "uint256",
          "name": "tokenId",
          "type": "uint256"
        }
      ],
      "name": "approve",
      "outputs": [],
      "stateMutability": "nonpayable",
      "type": "function"
    },
    {
      "inputs": [
        {
          "internalType": "address",
          "name": "owner",
          "type": "address"
        }
      ],
      "name": "balanceOf",
      "outputs": [
        {
          "internalType": "uint256",
          "name": "",
          "type": "uint256"
        }
      ],
      "stateMutability": "view",
      "type": "function",
      "constant": true
    },
    {
      "inputs": [],
      "name": "baseURI",
      "outputs": [
        {
          "internalType": "string",
          "name": "",
          "type": "string"
        }
      ],
      "stateMutability": "view",
      "type": "function",
      "constant": true
    },
    {
      "inputs": [],
      "name": "collectionName",
      "outputs": [
        {
          "internalType": "string",
          "name": "",
          "type": "string"
        }
      ],
      "stateMutability": "view",
      "type": "function",
      "constant": true
    },
    {
      "inputs": [],
      "name": "collectionNameSymbol",
      "outputs": [
        {
          "internalType": "string",
          "name": "",
          "type": "string"
        }
      ],
      "stateMutability": "view",
      "type": "function",
      "constant": true
    },
    {
      "inputs": [
        {
          "internalType": "uint256",
          "name": "tokenId",
          "type": "uint256"
        }
      ],
      "name": "getApproved",
      "outputs": [
        {
          "internalType": "address",
          "name": "",
          "type": "address"
        }
      ],
      "stateMutability": "view",
      "type": "function",
      "constant": true
    },
    {
      "inputs": [
        {
          "internalType": "address",
          "name": "owner",
          "type": "address"
        },
        {
          "internalType": "address",
          "name": "operator",
          "type": "address"
        }
      ],
      "name": "isApprovedForAll",
      "outputs": [
        {
          "internalType": "bool",
          "name": "",
          "type": "bool"
        }
      ],
      "stateMutability": "view",
      "type": "function",
      "constant": true
    },
    {
      "inputs": [],
      "name": "mintPrice",
      "outputs": [
        {
          "internalType": "uint256",
          "name": "",
          "type": "uint256"
        }
      ],
      "stateMutability": "view",
      "type": "function",
      "constant": true
    },
    {
      "inputs": [],
      "name": "name",
      "outputs": [
        {
          "internalType": "string",
          "name": "",
          "type": "string"
        }
      ],
      "stateMutability": "view",
      "type": "function",
      "constant": true
    },
    {
      "inputs": [
        {
          "internalType": "uint256",
          "name": "tokenId",
          "type": "uint256"
        }
      ],
      "name": "ownerOf",
      "outputs": [
        {
          "internalType": "address",
          "name": "",
          "type": "address"
        }
      ],
      "stateMutability": "view",
      "type": "function",
      "constant": true
    },
    {
      "inputs": [
        {
          "internalType": "address",
          "name": "from",
          "type": "address"
        },
        {
          "internalType": "address",
          "name": "to",
          "type": "address"
        },
        {
          "internalType": "uint256",
          "name": "tokenId",
          "type": "uint256"
        }
      ],
      "name": "safeTransferFrom",
      "outputs": [],
      "stateMutability": "nonpayable",
      "type": "function"
    },
    {
      "inputs": [
        {
          "internalType": "address",
          "name": "from",
          "type": "address"
        },
        {
          "internalType": "address",
          "name": "to",
          "type": "address"
        },
        {
          "internalType": "uint256",
          "name": "tokenId",
          "type": "uint256"
        },
        {
          "internalType": "bytes",
          "name": "_data",
          "type": "bytes"
        }
      ],
      "name": "safeTransferFrom",
      "outputs": [],
      "stateMutability": "nonpayable",
      "type": "function"
    },
    {
      "inputs": [
        {
          "internalType": "address",
          "name": "operator",
          "type": "address"
        },
        {
          "internalType": "bool",
          "name": "approved",
          "type": "bool"
        }
      ],
      "name": "setApprovalForAll",
      "outputs": [],
      "stateMutability": "nonpayable",
      "type": "function"
    },
    {
      "inputs": [],
      "name": "shroomYCounter",
      "outputs": [
        {
          "internalType": "uint256",
          "name": "",
          "type": "uint256"
        }
      ],
      "stateMutability": "view",
      "type": "function",
      "constant": true
    },
    {
      "inputs": [
        {
          "internalType": "bytes4",
          "name": "interfaceId",
          "type": "bytes4"
        }
      ],
      "name": "supportsInterface",
      "outputs": [
        {
          "internalType": "bool",
          "name": "",
          "type": "bool"
        }
      ],
      "stateMutability": "view",
      "type": "function",
      "constant": true
    },
    {
      "inputs": [],
      "name": "symbol",
      "outputs": [
        {
          "internalType": "string",
          "name": "",
          "type": "string"
        }
      ],
      "stateMutability": "view",
      "type": "function",
      "constant": true
    },
    {
      "inputs": [
        {
          "internalType": "uint256",
          "name": "index",
          "type": "uint256"
        }
      ],
      "name": "tokenByIndex",
      "outputs": [
        {
          "internalType": "uint256",
          "name": "",
          "type": "uint256"
        }
      ],
      "stateMutability": "view",
      "type": "function",
      "constant": true
    },
    {
      "inputs": [
        {
          "internalType": "string",
          "name": "",
          "type": "string"
        }
      ],
      "name": "tokenNameExists",
      "outputs": [
        {
          "internalType": "bool",
          "name": "",
          "type": "bool"
        }
      ],
      "stateMutability": "view",
      "type": "function",
      "constant": true
    },
    {
      "inputs": [
        {
          "internalType": "address",
          "name": "owner",
          "type": "address"
        },
        {
          "internalType": "uint256",
          "name": "index",
          "type": "uint256"
        }
      ],
      "name": "tokenOfOwnerByIndex",
      "outputs": [
        {
          "internalType": "uint256",
          "name": "",
          "type": "uint256"
        }
      ],
      "stateMutability": "view",
      "type": "function",
      "constant": true
    },
    {
      "inputs": [
        {
          "internalType": "uint256",
          "name": "tokenId",
          "type": "uint256"
        }
      ],
      "name": "tokenURI",
      "outputs": [
        {
          "internalType": "string",
          "name": "",
          "type": "string"
        }
      ],
      "stateMutability": "view",
      "type": "function",
      "constant": true
    },
    {
      "inputs": [
        {
          "internalType": "string",
          "name": "",
          "type": "string"
        }
      ],
      "name": "tokenURIExists",
      "outputs": [
        {
          "internalType": "bool",
          "name": "",
          "type": "bool"
        }
      ],
      "stateMutability": "view",
      "type": "function",
      "constant": true
    },
    {
      "inputs": [],
      "name": "totalSupply",
      "outputs": [
        {
          "internalType": "uint256",
          "name": "",
          "type": "uint256"
        }
      ],
      "stateMutability": "view",
      "type": "function",
      "constant": true
    },
    {
      "inputs": [
        {
          "internalType": "address",
          "name": "from",
          "type": "address"
        },
        {
          "internalType": "address",
          "name": "to",
          "type": "address"
        },
        {
          "internalType": "uint256",
          "name": "tokenId",
          "type": "uint256"
        }
      ],
      "name": "transferFrom",
      "outputs": [],
      "stateMutability": "nonpayable",
      "type": "function"
    },
    {
      "inputs": [
        {
          "internalType": "string",
          "name": "_name",
          "type": "string"
        },
        {
          "internalType": "string",
          "name": "_tokenURI",
          "type": "string"
        },
        {
          "internalType": "uint256",
          "name": "_price",
          "type": "uint256"
        }
      ],
      "name": "mintShroomY",
      "outputs": [],
      "stateMutability": "payable",
      "type": "function",
      "payable": true
    },
    {
      "inputs": [],
      "name": "getOwner",
      "outputs": [
        {
          "internalType": "address",
          "name": "",
          "type": "address"
        }
      ],
      "stateMutability": "view",
      "type": "function",
      "constant": true
    },
    {
      "inputs": [],
      "name": "getMintPrice",
      "outputs": [
        {
          "internalType": "uint256",
          "name": "",
          "type": "uint256"
        }
      ],
      "stateMutability": "view",
      "type": "function",
      "constant": true
    },
    {
      "inputs": [
        {
          "internalType": "uint256",
          "name": "_price",
          "type": "uint256"
        }
      ],
      "name": "setMintPrice",
      "outputs": [
        {
          "internalType": "bool",
          "name": "",
          "type": "bool"
        }
      ],
      "stateMutability": "nonpayable",
      "type": "function"
    },
    {
      "inputs": [
        {
          "internalType": "uint256",
          "name": "_tokenId",
          "type": "uint256"
        }
      ],
      "name": "getTokenOwner",
      "outputs": [
        {
          "internalType": "address",
          "name": "",
          "type": "address"
        }
      ],
      "stateMutability": "view",
      "type": "function",
      "constant": true
    },
    {
      "inputs": [
        {
          "internalType": "uint256",
          "name": "_tokenId",
          "type": "uint256"
        }
      ],
      "name": "getTokenMetaData",
      "outputs": [
        {
          "internalType": "string",
          "name": "",
          "type": "string"
        }
      ],
      "stateMutability": "view",
      "type": "function",
      "constant": true
    },
    {
      "inputs": [],
      "name": "getNumberOfTokensMinted",
      "outputs": [
        {
          "internalType": "uint256",
          "name": "",
          "type": "uint256"
        }
      ],
      "stateMutability": "view",
      "type": "function",
      "constant": true
    },
    {
      "inputs": [
        {
          "internalType": "address",
          "name": "_owner",
          "type": "address"
        }
      ],
      "name": "getTotalNumberOfTokensOwnedByAnAddress",
      "outputs": [
        {
          "internalType": "uint256",
          "name": "",
          "type": "uint256"
        }
      ],
      "stateMutability": "view",
      "type": "function",
      "constant": true
    },
    {
      "inputs": [
        {
          "internalType": "uint256",
          "name": "_tokenId",
          "type": "uint256"
        }
      ],
      "name": "getTokenExists",
      "outputs": [
        {
          "internalType": "bool",
          "name": "",
          "type": "bool"
        }
      ],
      "stateMutability": "view",
      "type": "function",
      "constant": true
    },
    {
      "inputs": [
        {
          "internalType": "uint256",
          "name": "_tokenId",
          "type": "uint256"
        }
      ],
      "name": "buyToken",
      "outputs": [],
      "stateMutability": "payable",
      "type": "function",
      "payable": true
    },
    {
      "inputs": [
        {
          "internalType": "uint256",
          "name": "_tokenId",
          "type": "uint256"
        },
        {
          "internalType": "address payable",
          "name": "_receiver",
          "type": "address"
        }
      ],
      "name": "giftToken",
      "outputs": [],
      "stateMutability": "payable",
      "type": "function",
      "payable": true
    },
    {
      "inputs": [
        {
          "internalType": "uint256",
          "name": "_tokenId",
          "type": "uint256"
        },
        {
          "internalType": "uint256",
          "name": "_newPrice",
          "type": "uint256"
        }
      ],
      "name": "changeTokenPrice",
      "outputs": [],
      "stateMutability": "nonpayable",
      "type": "function"
    },
    {
      "inputs": [
        {
          "internalType": "uint256",
          "name": "_tokenId",
          "type": "uint256"
        }
      ],
      "name": "toggleForSale",
      "outputs": [],
      "stateMutability": "nonpayable",
      "type": "function"
    }
  ],
  "bytecode": "0x60806040523480156200001157600080fd5b506040518060400160405280601281526020017f5368726f6f6d7920436f6c6c656374696f6e00000000000000000000000000008152506040518060400160405280600481526020017f53434f4c00000000000000000000000000000000000000000000000000000000815250620000966301ffc9a760e01b620001b760201b60201c565b8160069080519060200190620000ae9291906200040c565b508060079080519060200190620000c79291906200040c565b50620000e06380ac58cd60e01b620001b760201b60201c565b620000f8635b5e139f60e01b620001b760201b60201c565b6200011063780e9d6360e01b620001b760201b60201c565b505062000122620002c060201b60201c565b600a9080519060200190620001399291906200040c565b506200014a6200036660201b60201c565b600b9080519060200190620001619291906200040c565b50662386f26fc10000600d8190555033600e60006101000a81548173ffffffffffffffffffffffffffffffffffffffff021916908373ffffffffffffffffffffffffffffffffffffffff160217905550620004c2565b63ffffffff60e01b817bffffffffffffffffffffffffffffffffffffffffffffffffffffffff1916141562000254576040517f08c379a000000000000000000000000000000000000000000000000000000000815260040180806020018281038252601c8152602001807f4552433136353a20696e76616c696420696e746572666163652069640000000081525060200191505060405180910390fd5b6001600080837bffffffffffffffffffffffffffffffffffffffffffffffffffffffff19167bffffffffffffffffffffffffffffffffffffffffffffffffffffffff1916815260200190815260200160002060006101000a81548160ff02191690831515021790555050565b606060068054600181600116156101000203166002900480601f0160208091040260200160405190810160405280929190818152602001828054600181600116156101000203166002900480156200035c5780601f1062000330576101008083540402835291602001916200035c565b820191906000526020600020905b8154815290600101906020018083116200033e57829003601f168201915b5050505050905090565b606060078054600181600116156101000203166002900480601f016020809104026020016040519081016040528092919081815260200182805460018160011615610100020316600290048015620004025780601f10620003d65761010080835404028352916020019162000402565b820191906000526020600020905b815481529060010190602001808311620003e457829003601f168201915b5050505050905090565b828054600181600116156101000203166002900490600052602060002090601f01602090048101928262000444576000855562000490565b82601f106200045f57805160ff191683800117855562000490565b8280016001018555821562000490579182015b828111156200048f57825182559160200191906001019062000472565b5b5090506200049f9190620004a3565b5090565b5b80821115620004be576000816000905550600101620004a4565b5090565b6150b880620004d26000396000f3fe60806040526004361061021a5760003560e01c80636817c76c11610123578063a5cd761f116100ab578063cc151f3a1161006f578063cc151f3a1461082e578063cff284ab14610859578063e5326ab11461089e578063e985e9c5146108c9578063f4a0a528146109065761021a565b8063a5cd761f14610744578063a7f93ebd14610781578063a9a94a78146107ac578063b88d4fde146107c8578063c87b56dd146107f15761021a565b8063893d20e8116100f2578063893d20e81461065f57806395d89b411461068a578063a22cb465146106b5578063a32018b9146106de578063a46b1fac146107075761021a565b80636817c76c146105a15780636c0360eb146105cc5780636f9507f9146105f757806370a08231146106225761021a565b806342842e0e116101a65780634f6ccce7116101755780634f6ccce7146104a557806358beb7c1146104e257806362e8e8ac146104fe5780636352211e1461052757806367c623cf146105645761021a565b806342842e0e146103d7578063439028501461040057806343d32ae71461043d57806347cbd56e1461047a5761021a565b8063142687f3116101ed578063142687f3146102ed57806318160ddd1461032a57806323b872dd146103555780632d296bf11461037e5780632f745c591461039a5761021a565b806301ffc9a71461021f57806306fdde031461025c578063081812fc14610287578063095ea7b3146102c4575b600080fd5b34801561022b57600080fd5b50610246600480360381019061024191906148ae565b610943565b6040516102539190614b10565b60405180910390f35b34801561026857600080fd5b506102716109aa565b60405161027e9190614b2b565b60405180910390f35b34801561029357600080fd5b506102ae60048036038101906102a99190614997565b610a4c565b6040516102bb9190614af5565b60405180910390f35b3480156102d057600080fd5b506102eb60048036038101906102e69190614872565b610ae7565b005b3480156102f957600080fd5b50610314600480360381019061030f9190614997565b610c2b565b6040516103219190614b10565b60405180910390f35b34801561033657600080fd5b5061033f610c42565b60405161034c9190614b4d565b60405180910390f35b34801561036157600080fd5b5061037c6004803603810190610377919061476c565b610c53565b005b61039860048036038101906103939190614997565b610cc9565b005b3480156103a657600080fd5b506103c160048036038101906103bc9190614872565b6112a2565b6040516103ce9190614b4d565b60405180910390f35b3480156103e357600080fd5b506103fe60048036038101906103f9919061476c565b6112fd565b005b34801561040c57600080fd5b5061042760048036038101906104229190614707565b61131d565b6040516104349190614b4d565b60405180910390f35b34801561044957600080fd5b50610464600480360381019061045f91906148d7565b611334565b6040516104719190614b10565b60405180910390f35b34801561048657600080fd5b5061048f61136a565b60405161049c9190614b4d565b60405180910390f35b3480156104b157600080fd5b506104cc60048036038101906104c79190614997565b611370565b6040516104d99190614b4d565b60405180910390f35b6104fc60048036038101906104f791906149c0565b611393565b005b34801561050a57600080fd5b50610525600480360381019061052091906149fc565b6118fb565b005b34801561053357600080fd5b5061054e60048036038101906105499190614997565b611da3565b60405161055b9190614af5565b60405180910390f35b34801561057057600080fd5b5061058b60048036038101906105869190614997565b611dda565b6040516105989190614b2b565b60405180910390f35b3480156105ad57600080fd5b506105b6611df2565b6040516105c39190614b4d565b60405180910390f35b3480156105d857600080fd5b506105e1611df8565b6040516105ee9190614b2b565b60405180910390f35b34801561060357600080fd5b5061060c611e9a565b6040516106199190614b2b565b60405180910390f35b34801561062e57600080fd5b5061064960048036038101906106449190614707565b611f38565b6040516106569190614b4d565b60405180910390f35b34801561066b57600080fd5b5061067461200d565b6040516106819190614af5565b60405180910390f35b34801561069657600080fd5b5061069f612037565b6040516106ac9190614b2b565b60405180910390f35b3480156106c157600080fd5b506106dc60048036038101906106d79190614836565b6120d9565b005b3480156106ea57600080fd5b5061070560048036038101906107009190614997565b61228f565b005b34801561071357600080fd5b5061072e600480360381019061072991906148d7565b612761565b60405161073b9190614b10565b60405180910390f35b34801561075057600080fd5b5061076b60048036038101906107669190614997565b612797565b6040516107789190614af5565b60405180910390f35b34801561078d57600080fd5b506107966127ae565b6040516107a39190614b4d565b60405180910390f35b6107c660048036038101906107c19190614918565b6127b8565b005b3480156107d457600080fd5b506107ef60048036038101906107ea91906147bb565b612b74565b005b3480156107fd57600080fd5b5061081860048036038101906108139190614997565b612bec565b6040516108259190614b2b565b60405180910390f35b34801561083a57600080fd5b50610843612ebd565b6040516108509190614b4d565b60405180910390f35b34801561086557600080fd5b50610880600480360381019061087b9190614997565b612ed1565b60405161089599989796959493929190614b68565b60405180910390f35b3480156108aa57600080fd5b506108b36130bc565b6040516108c09190614b2b565b60405180910390f35b3480156108d557600080fd5b506108f060048036038101906108eb9190614730565b61315a565b6040516108fd9190614b10565b60405180910390f35b34801561091257600080fd5b5061092d60048036038101906109289190614997565b6131ee565b60405161093a9190614b10565b60405180910390f35b6000806000837bffffffffffffffffffffffffffffffffffffffffffffffffffffffff19167bffffffffffffffffffffffffffffffffffffffffffffffffffffffff1916815260200190815260200160002060009054906101000a900460ff169050919050565b606060068054600181600116156101000203166002900480601f016020809104026020016040519081016040528092919081815260200182805460018160011615610100020316600290048015610a425780601f10610a1757610100808354040283529160200191610a42565b820191906000526020600020905b815481529060010190602001808311610a2557829003601f168201915b5050505050905090565b6000610a578261325a565b610aac576040517f08c379a000000000000000000000000000000000000000000000000000000000815260040180806020018281038252602c815260200180614f81602c913960400191505060405180910390fd5b6004600083815260200190815260200160002060009054906101000a900473ffffffffffffffffffffffffffffffffffffffff169050919050565b6000610af282611da3565b90508073ffffffffffffffffffffffffffffffffffffffff168373ffffffffffffffffffffffffffffffffffffffff161415610b79576040517f08c379a00000000000000000000000000000000000000000000000000000000081526004018080602001828103825260218152602001806150316021913960400191505060405180910390fd5b8073ffffffffffffffffffffffffffffffffffffffff16610b98613277565b73ffffffffffffffffffffffffffffffffffffffff161480610bc75750610bc681610bc1613277565b61315a565b5b610c1c576040517f08c379a0000000000000000000000000000000000000000000000000000000008152600401808060200182810382526038815260200180614ed46038913960400191505060405180910390fd5b610c26838361327f565b505050565b600080610c378361325a565b905080915050919050565b6000610c4e6002613338565b905090565b610c64610c5e613277565b8261334d565b610cb9576040517f08c379a00000000000000000000000000000000000000000000000000000000081526004018080602001828103825260318152602001806150526031913960400191505060405180910390fd5b610cc4838383613441565b505050565b600073ffffffffffffffffffffffffffffffffffffffff163373ffffffffffffffffffffffffffffffffffffffff161415610d0357600080fd5b610d0c8161325a565b610d1557600080fd5b6000610d2082611da3565b9050600073ffffffffffffffffffffffffffffffffffffffff168173ffffffffffffffffffffffffffffffffffffffff161415610d5c57600080fd5b3373ffffffffffffffffffffffffffffffffffffffff168173ffffffffffffffffffffffffffffffffffffffff161415610d9557600080fd5b6000600f60008481526020019081526020016000206040518061012001604052908160008201548152602001600182018054600181600116156101000203166002900480601f016020809104026020016040519081016040528092919081815260200182805460018160011615610100020316600290048015610e595780601f10610e2e57610100808354040283529160200191610e59565b820191906000526020600020905b815481529060010190602001808311610e3c57829003601f168201915b50505050508152602001600282018054600181600116156101000203166002900480601f016020809104026020016040519081016040528092919081815260200182805460018160011615610100020316600290048015610efb5780601f10610ed057610100808354040283529160200191610efb565b820191906000526020600020905b815481529060010190602001808311610ede57829003601f168201915b505050505081526020016003820160009054906101000a900473ffffffffffffffffffffffffffffffffffffffff1673ffffffffffffffffffffffffffffffffffffffff1673ffffffffffffffffffffffffffffffffffffffff1681526020016004820160009054906101000a900473ffffffffffffffffffffffffffffffffffffffff1673ffffffffffffffffffffffffffffffffffffffff1673ffffffffffffffffffffffffffffffffffffffff1681526020016005820160009054906101000a900473ffffffffffffffffffffffffffffffffffffffff1673ffffffffffffffffffffffffffffffffffffffff1673ffffffffffffffffffffffffffffffffffffffff16815260200160068201548152602001600782015481526020016008820160009054906101000a900460ff16151515158152505090508060c0015134101561104857600080fd5b80610100015161105757600080fd5b611062823385613441565b6000816080015190508073ffffffffffffffffffffffffffffffffffffffff166108fc349081150290604051600060405180830381858888f193505050501580156110b1573d6000803e3d6000fd5b5081608001518260a0019073ffffffffffffffffffffffffffffffffffffffff16908173ffffffffffffffffffffffffffffffffffffffff168152505033826080019073ffffffffffffffffffffffffffffffffffffffff16908173ffffffffffffffffffffffffffffffffffffffff168152505060018260e001818151019150818152505081600f6000868152602001908152602001600020600082015181600001556020820151816001019080519060200190611171929190614523565b50604082015181600201908051906020019061118e929190614523565b5060608201518160030160006101000a81548173ffffffffffffffffffffffffffffffffffffffff021916908373ffffffffffffffffffffffffffffffffffffffff16021790555060808201518160040160006101000a81548173ffffffffffffffffffffffffffffffffffffffff021916908373ffffffffffffffffffffffffffffffffffffffff16021790555060a08201518160050160006101000a81548173ffffffffffffffffffffffffffffffffffffffff021916908373ffffffffffffffffffffffffffffffffffffffff16021790555060c0820151816006015560e082015181600701556101008201518160080160006101000a81548160ff02191690831515021790555090505050505050565b60006112f582600160008673ffffffffffffffffffffffffffffffffffffffff1673ffffffffffffffffffffffffffffffffffffffff16815260200190815260200160002061368490919063ffffffff16565b905092915050565b61131883838360405180602001604052806000815250612b74565b505050565b60008061132983611f38565b905080915050919050565b6011818051602081018201805184825260208301602085012081835280955050505050506000915054906101000a900460ff1681565b600c5481565b60008061138783600261369e90919063ffffffff16565b50905080915050919050565b600073ffffffffffffffffffffffffffffffffffffffff163373ffffffffffffffffffffffffffffffffffffffff1614156113cd57600080fd5b6113d68261325a565b6113df57600080fd5b60006113ea83611da3565b9050600073ffffffffffffffffffffffffffffffffffffffff168173ffffffffffffffffffffffffffffffffffffffff16141561142657600080fd5b3373ffffffffffffffffffffffffffffffffffffffff168173ffffffffffffffffffffffffffffffffffffffff161461145e57600080fd5b6000600f60008581526020019081526020016000206040518061012001604052908160008201548152602001600182018054600181600116156101000203166002900480601f0160208091040260200160405190810160405280929190818152602001828054600181600116156101000203166002900480156115225780601f106114f757610100808354040283529160200191611522565b820191906000526020600020905b81548152906001019060200180831161150557829003601f168201915b50505050508152602001600282018054600181600116156101000203166002900480601f0160208091040260200160405190810160405280929190818152602001828054600181600116156101000203166002900480156115c45780601f10611599576101008083540402835291602001916115c4565b820191906000526020600020905b8154815290600101906020018083116115a757829003601f168201915b505050505081526020016003820160009054906101000a900473ffffffffffffffffffffffffffffffffffffffff1673ffffffffffffffffffffffffffffffffffffffff1673ffffffffffffffffffffffffffffffffffffffff1681526020016004820160009054906101000a900473ffffffffffffffffffffffffffffffffffffffff1673ffffffffffffffffffffffffffffffffffffffff1673ffffffffffffffffffffffffffffffffffffffff1681526020016005820160009054906101000a900473ffffffffffffffffffffffffffffffffffffffff1673ffffffffffffffffffffffffffffffffffffffff1673ffffffffffffffffffffffffffffffffffffffff16815260200160068201548152602001600782015481526020016008820160009054906101000a900460ff161515151581525050905061170b828486613441565b80608001518160a0019073ffffffffffffffffffffffffffffffffffffffff16908173ffffffffffffffffffffffffffffffffffffffff168152505082816080019073ffffffffffffffffffffffffffffffffffffffff16908173ffffffffffffffffffffffffffffffffffffffff168152505060018160e001818151019150818152505080600f60008681526020019081526020016000206000820151816000015560208201518160010190805190602001906117ca929190614523565b5060408201518160020190805190602001906117e7929190614523565b5060608201518160030160006101000a81548173ffffffffffffffffffffffffffffffffffffffff021916908373ffffffffffffffffffffffffffffffffffffffff16021790555060808201518160040160006101000a81548173ffffffffffffffffffffffffffffffffffffffff021916908373ffffffffffffffffffffffffffffffffffffffff16021790555060a08201518160050160006101000a81548173ffffffffffffffffffffffffffffffffffffffff021916908373ffffffffffffffffffffffffffffffffffffffff16021790555060c0820151816006015560e082015181600701556101008201518160080160006101000a81548160ff02191690831515021790555090505050505050565b600073ffffffffffffffffffffffffffffffffffffffff163373ffffffffffffffffffffffffffffffffffffffff16141561193557600080fd5b61193e8261325a565b61194757600080fd5b600061195283611da3565b90503373ffffffffffffffffffffffffffffffffffffffff168173ffffffffffffffffffffffffffffffffffffffff161461198c57600080fd5b6000600f60008581526020019081526020016000206040518061012001604052908160008201548152602001600182018054600181600116156101000203166002900480601f016020809104026020016040519081016040528092919081815260200182805460018160011615610100020316600290048015611a505780601f10611a2557610100808354040283529160200191611a50565b820191906000526020600020905b815481529060010190602001808311611a3357829003601f168201915b50505050508152602001600282018054600181600116156101000203166002900480601f016020809104026020016040519081016040528092919081815260200182805460018160011615610100020316600290048015611af25780601f10611ac757610100808354040283529160200191611af2565b820191906000526020600020905b815481529060010190602001808311611ad557829003601f168201915b505050505081526020016003820160009054906101000a900473ffffffffffffffffffffffffffffffffffffffff1673ffffffffffffffffffffffffffffffffffffffff1673ffffffffffffffffffffffffffffffffffffffff1681526020016004820160009054906101000a900473ffffffffffffffffffffffffffffffffffffffff1673ffffffffffffffffffffffffffffffffffffffff1673ffffffffffffffffffffffffffffffffffffffff1681526020016005820160009054906101000a900473ffffffffffffffffffffffffffffffffffffffff1673ffffffffffffffffffffffffffffffffffffffff1673ffffffffffffffffffffffffffffffffffffffff16815260200160068201548152602001600782015481526020016008820160009054906101000a900460ff1615151515815250509050828160c001818152505080600f6000868152602001908152602001600020600082015181600001556020820151816001019080519060200190611c72929190614523565b506040820151816002019080519060200190611c8f929190614523565b5060608201518160030160006101000a81548173ffffffffffffffffffffffffffffffffffffffff021916908373ffffffffffffffffffffffffffffffffffffffff16021790555060808201518160040160006101000a81548173ffffffffffffffffffffffffffffffffffffffff021916908373ffffffffffffffffffffffffffffffffffffffff16021790555060a08201518160050160006101000a81548173ffffffffffffffffffffffffffffffffffffffff021916908373ffffffffffffffffffffffffffffffffffffffff16021790555060c0820151816006015560e082015181600701556101008201518160080160006101000a81548160ff02191690831515021790555090505050505050565b6000611dd382604051806060016040528060298152602001614f366029913960026136ca9092919063ffffffff16565b9050919050565b60606000611de783612bec565b905080915050919050565b600d5481565b606060098054600181600116156101000203166002900480601f016020809104026020016040519081016040528092919081815260200182805460018160011615610100020316600290048015611e905780601f10611e6557610100808354040283529160200191611e90565b820191906000526020600020905b815481529060010190602001808311611e7357829003601f168201915b5050505050905090565b600b8054600181600116156101000203166002900480601f016020809104026020016040519081016040528092919081815260200182805460018160011615610100020316600290048015611f305780601f10611f0557610100808354040283529160200191611f30565b820191906000526020600020905b815481529060010190602001808311611f1357829003601f168201915b505050505081565b60008073ffffffffffffffffffffffffffffffffffffffff168273ffffffffffffffffffffffffffffffffffffffff161415611fbf576040517f08c379a000000000000000000000000000000000000000000000000000000000815260040180806020018281038252602a815260200180614f0c602a913960400191505060405180910390fd5b612006600160008473ffffffffffffffffffffffffffffffffffffffff1673ffffffffffffffffffffffffffffffffffffffff1681526020019081526020016000206136e9565b9050919050565b6000600e60009054906101000a900473ffffffffffffffffffffffffffffffffffffffff16905090565b606060078054600181600116156101000203166002900480601f0160208091040260200160405190810160405280929190818152602001828054600181600116156101000203166002900480156120cf5780601f106120a4576101008083540402835291602001916120cf565b820191906000526020600020905b8154815290600101906020018083116120b257829003601f168201915b5050505050905090565b6120e1613277565b73ffffffffffffffffffffffffffffffffffffffff168273ffffffffffffffffffffffffffffffffffffffff161415612182576040517f08c379a00000000000000000000000000000000000000000000000000000000081526004018080602001828103825260198152602001807f4552433732313a20617070726f766520746f2063616c6c65720000000000000081525060200191505060405180910390fd5b806005600061218f613277565b73ffffffffffffffffffffffffffffffffffffffff1673ffffffffffffffffffffffffffffffffffffffff16815260200190815260200160002060008473ffffffffffffffffffffffffffffffffffffffff1673ffffffffffffffffffffffffffffffffffffffff16815260200190815260200160002060006101000a81548160ff0219169083151502179055508173ffffffffffffffffffffffffffffffffffffffff1661223c613277565b73ffffffffffffffffffffffffffffffffffffffff167f17307eab39ab6107e8899845ad3d59bd9653f200f220920489ca2b5937696c318360405180821515815260200191505060405180910390a35050565b600073ffffffffffffffffffffffffffffffffffffffff163373ffffffffffffffffffffffffffffffffffffffff1614156122c957600080fd5b6122d28161325a565b6122db57600080fd5b60006122e682611da3565b90503373ffffffffffffffffffffffffffffffffffffffff168173ffffffffffffffffffffffffffffffffffffffff161461232057600080fd5b6000600f60008481526020019081526020016000206040518061012001604052908160008201548152602001600182018054600181600116156101000203166002900480601f0160208091040260200160405190810160405280929190818152602001828054600181600116156101000203166002900480156123e45780601f106123b9576101008083540402835291602001916123e4565b820191906000526020600020905b8154815290600101906020018083116123c757829003601f168201915b50505050508152602001600282018054600181600116156101000203166002900480601f0160208091040260200160405190810160405280929190818152602001828054600181600116156101000203166002900480156124865780601f1061245b57610100808354040283529160200191612486565b820191906000526020600020905b81548152906001019060200180831161246957829003601f168201915b505050505081526020016003820160009054906101000a900473ffffffffffffffffffffffffffffffffffffffff1673ffffffffffffffffffffffffffffffffffffffff1673ffffffffffffffffffffffffffffffffffffffff1681526020016004820160009054906101000a900473ffffffffffffffffffffffffffffffffffffffff1673ffffffffffffffffffffffffffffffffffffffff1673ffffffffffffffffffffffffffffffffffffffff1681526020016005820160009054906101000a900473ffffffffffffffffffffffffffffffffffffffff1673ffffffffffffffffffffffffffffffffffffffff1673ffffffffffffffffffffffffffffffffffffffff16815260200160068201548152602001600782015481526020016008820160009054906101000a900460ff1615151515815250509050806101000151156125e4576000816101000190151590811515815250506125f7565b6001816101000190151590811515815250505b80600f6000858152602001908152602001600020600082015181600001556020820151816001019080519060200190612631929190614523565b50604082015181600201908051906020019061264e929190614523565b5060608201518160030160006101000a81548173ffffffffffffffffffffffffffffffffffffffff021916908373ffffffffffffffffffffffffffffffffffffffff16021790555060808201518160040160006101000a81548173ffffffffffffffffffffffffffffffffffffffff021916908373ffffffffffffffffffffffffffffffffffffffff16021790555060a08201518160050160006101000a81548173ffffffffffffffffffffffffffffffffffffffff021916908373ffffffffffffffffffffffffffffffffffffffff16021790555060c0820151816006015560e082015181600701556101008201518160080160006101000a81548160ff021916908315150217905550905050505050565b6010818051602081018201805184825260208301602085012081835280955050505050506000915054906101000a900460ff1681565b6000806127a383611da3565b905080915050919050565b6000600d54905090565b600073ffffffffffffffffffffffffffffffffffffffff163373ffffffffffffffffffffffffffffffffffffffff1614156127f257600080fd5b600c6000815480929190600101919050555061280f600c5461325a565b1561281957600080fd5b6011826040516128299190614ade565b908152602001604051809103902060009054906101000a900460ff161561284f57600080fd5b60108360405161285f9190614ade565b908152602001604051809103902060009054906101000a900460ff161561288557600080fd5b61289133600c546136fe565b61289d600c54836138f2565b60016011836040516128af9190614ade565b908152602001604051809103902060006101000a81548160ff02191690831515021790555060016010846040516128e69190614ade565b908152602001604051809103902060006101000a81548160ff0219169083151502179055506000600e60009054906101000a900473ffffffffffffffffffffffffffffffffffffffff1690508073ffffffffffffffffffffffffffffffffffffffff166108fc349081150290604051600060405180830381858888f19350505050158015612978573d6000803e3d6000fd5b506000604051806101200160405280600c5481526020018681526020018581526020013373ffffffffffffffffffffffffffffffffffffffff1681526020013373ffffffffffffffffffffffffffffffffffffffff168152602001600073ffffffffffffffffffffffffffffffffffffffff1681526020018481526020016000815260200160001515815250905080600f6000600c548152602001908152602001600020600082015181600001556020820151816001019080519060200190612a42929190614523565b506040820151816002019080519060200190612a5f929190614523565b5060608201518160030160006101000a81548173ffffffffffffffffffffffffffffffffffffffff021916908373ffffffffffffffffffffffffffffffffffffffff16021790555060808201518160040160006101000a81548173ffffffffffffffffffffffffffffffffffffffff021916908373ffffffffffffffffffffffffffffffffffffffff16021790555060a08201518160050160006101000a81548173ffffffffffffffffffffffffffffffffffffffff021916908373ffffffffffffffffffffffffffffffffffffffff16021790555060c0820151816006015560e082015181600701556101008201518160080160006101000a81548160ff0219169083151502179055509050505050505050565b612b85612b7f613277565b8361334d565b612bda576040517f08c379a00000000000000000000000000000000000000000000000000000000081526004018080602001828103825260318152602001806150526031913960400191505060405180910390fd5b612be68484848461397c565b50505050565b6060612bf78261325a565b612c4c576040517f08c379a000000000000000000000000000000000000000000000000000000000815260040180806020018281038252602f815260200180615002602f913960400191505060405180910390fd5b6000600860008481526020019081526020016000208054600181600116156101000203166002900480601f016020809104026020016040519081016040528092919081815260200182805460018160011615610100020316600290048015612cf55780601f10612cca57610100808354040283529160200191612cf5565b820191906000526020600020905b815481529060010190602001808311612cd857829003601f168201915b505050505090506000612d06611df8565b9050600081511415612d1c578192505050612eb8565b600082511115612ded5780826040516020018083805190602001908083835b60208310612d5e5780518252602082019150602081019050602083039250612d3b565b6001836020036101000a03801982511681845116808217855250505050505090500182805190602001908083835b60208310612daf5780518252602082019150602081019050602083039250612d8c565b6001836020036101000a0380198251168184511680821785525050505050509050019250505060405160208183030381529060405292505050612eb8565b80612df7856139ee565b6040516020018083805190602001908083835b60208310612e2d5780518252602082019150602081019050602083039250612e0a565b6001836020036101000a03801982511681845116808217855250505050505090500182805190602001908083835b60208310612e7e5780518252602082019150602081019050602083039250612e5b565b6001836020036101000a03801982511681845116808217855250505050505090500192505050604051602081830303815290604052925050505b919050565b600080612ec8610c42565b90508091505090565b600f602052806000526040600020600091509050806000015490806001018054600181600116156101000203166002900480601f016020809104026020016040519081016040528092919081815260200182805460018160011615610100020316600290048015612f835780601f10612f5857610100808354040283529160200191612f83565b820191906000526020600020905b815481529060010190602001808311612f6657829003601f168201915b505050505090806002018054600181600116156101000203166002900480601f0160208091040260200160405190810160405280929190818152602001828054600181600116156101000203166002900480156130215780601f10612ff657610100808354040283529160200191613021565b820191906000526020600020905b81548152906001019060200180831161300457829003601f168201915b5050505050908060030160009054906101000a900473ffffffffffffffffffffffffffffffffffffffff16908060040160009054906101000a900473ffffffffffffffffffffffffffffffffffffffff16908060050160009054906101000a900473ffffffffffffffffffffffffffffffffffffffff16908060060154908060070154908060080160009054906101000a900460ff16905089565b600a8054600181600116156101000203166002900480601f0160208091040260200160405190810160405280929190818152602001828054600181600116156101000203166002900480156131525780601f1061312757610100808354040283529160200191613152565b820191906000526020600020905b81548152906001019060200180831161313557829003601f168201915b505050505081565b6000600560008473ffffffffffffffffffffffffffffffffffffffff1673ffffffffffffffffffffffffffffffffffffffff16815260200190815260200160002060008373ffffffffffffffffffffffffffffffffffffffff1673ffffffffffffffffffffffffffffffffffffffff16815260200190815260200160002060009054906101000a900460ff16905092915050565b60003373ffffffffffffffffffffffffffffffffffffffff16600e60009054906101000a900473ffffffffffffffffffffffffffffffffffffffff1673ffffffffffffffffffffffffffffffffffffffff161461324a57600080fd5b81600d8190555060019050919050565b6000613270826002613b3590919063ffffffff16565b9050919050565b600033905090565b816004600083815260200190815260200160002060006101000a81548173ffffffffffffffffffffffffffffffffffffffff021916908373ffffffffffffffffffffffffffffffffffffffff160217905550808273ffffffffffffffffffffffffffffffffffffffff166132f283611da3565b73ffffffffffffffffffffffffffffffffffffffff167f8c5be1e5ebec7d5bd14f71427d1e84f3dd0314c0f7b2291e5b200ac8c7c3b92560405160405180910390a45050565b600061334682600001613b4f565b9050919050565b60006133588261325a565b6133ad576040517f08c379a000000000000000000000000000000000000000000000000000000000815260040180806020018281038252602c815260200180614ea8602c913960400191505060405180910390fd5b60006133b883611da3565b90508073ffffffffffffffffffffffffffffffffffffffff168473ffffffffffffffffffffffffffffffffffffffff16148061342757508373ffffffffffffffffffffffffffffffffffffffff1661340f84610a4c565b73ffffffffffffffffffffffffffffffffffffffff16145b806134385750613437818561315a565b5b91505092915050565b8273ffffffffffffffffffffffffffffffffffffffff1661346182611da3565b73ffffffffffffffffffffffffffffffffffffffff16146134cd576040517f08c379a0000000000000000000000000000000000000000000000000000000008152600401808060200182810382526029815260200180614fd96029913960400191505060405180910390fd5b600073ffffffffffffffffffffffffffffffffffffffff168273ffffffffffffffffffffffffffffffffffffffff161415613553576040517f08c379a0000000000000000000000000000000000000000000000000000000008152600401808060200182810382526024815260200180614e5e6024913960400191505060405180910390fd5b61355e838383613b60565b61356960008261327f565b6135ba81600160008673ffffffffffffffffffffffffffffffffffffffff1673ffffffffffffffffffffffffffffffffffffffff168152602001908152602001600020613b6590919063ffffffff16565b5061360c81600160008573ffffffffffffffffffffffffffffffffffffffff1673ffffffffffffffffffffffffffffffffffffffff168152602001908152602001600020613b7f90919063ffffffff16565b5061362381836002613b999092919063ffffffff16565b50808273ffffffffffffffffffffffffffffffffffffffff168473ffffffffffffffffffffffffffffffffffffffff167fddf252ad1be2c89b69c2b068fc378daa952ba7f163c4a11628f55a4df523b3ef60405160405180910390a4505050565b60006136938360000183613bce565b60001c905092915050565b6000806000806136b18660000186613c51565b915091508160001c8160001c9350935050509250929050565b60006136dd846000018460001b84613cea565b60001c90509392505050565b60006136f782600001613de0565b9050919050565b600073ffffffffffffffffffffffffffffffffffffffff168273ffffffffffffffffffffffffffffffffffffffff1614156137a1576040517f08c379a00000000000000000000000000000000000000000000000000000000081526004018080602001828103825260208152602001807f4552433732313a206d696e7420746f20746865207a65726f206164647265737381525060200191505060405180910390fd5b6137aa8161325a565b1561381d576040517f08c379a000000000000000000000000000000000000000000000000000000000815260040180806020018281038252601c8152602001807f4552433732313a20746f6b656e20616c7265616479206d696e7465640000000081525060200191505060405180910390fd5b61382960008383613b60565b61387a81600160008573ffffffffffffffffffffffffffffffffffffffff1673ffffffffffffffffffffffffffffffffffffffff168152602001908152602001600020613b7f90919063ffffffff16565b5061389181836002613b999092919063ffffffff16565b50808273ffffffffffffffffffffffffffffffffffffffff16600073ffffffffffffffffffffffffffffffffffffffff167fddf252ad1be2c89b69c2b068fc378daa952ba7f163c4a11628f55a4df523b3ef60405160405180910390a45050565b6138fb8261325a565b613950576040517f08c379a000000000000000000000000000000000000000000000000000000000815260040180806020018281038252602c815260200180614fad602c913960400191505060405180910390fd5b80600860008481526020019081526020016000209080519060200190613977929190614523565b505050565b613987848484613441565b61399384848484613df1565b6139e8576040517f08c379a0000000000000000000000000000000000000000000000000000000008152600401808060200182810382526032815260200180614e2c6032913960400191505060405180910390fd5b50505050565b60606000821415613a36576040518060400160405280600181526020017f30000000000000000000000000000000000000000000000000000000000000008152509050613b30565b600082905060005b60008214613a60578080600101915050600a8281613a5857fe5b049150613a3e565b60008167ffffffffffffffff81118015613a7957600080fd5b506040519080825280601f01601f191660200182016040528015613aac5781602001600182028036833780820191505090505b50905060006001830390508593505b60008414613b2857600a8481613acd57fe5b0660300160f81b82828060019003935081518110613ae757fe5b60200101907effffffffffffffffffffffffffffffffffffffffffffffffffffffffffffff1916908160001a905350600a8481613b2057fe5b049350613abb565b819450505050505b919050565b6000613b47836000018360001b61400a565b905092915050565b600081600001805490509050919050565b505050565b6000613b77836000018360001b61402d565b905092915050565b6000613b91836000018360001b614115565b905092915050565b6000613bc5846000018460001b8473ffffffffffffffffffffffffffffffffffffffff1660001b614185565b90509392505050565b600081836000018054905011613c2f576040517f08c379a0000000000000000000000000000000000000000000000000000000008152600401808060200182810382526022815260200180614e0a6022913960400191505060405180910390fd5b826000018281548110613c3e57fe5b9060005260206000200154905092915050565b60008082846000018054905011613cb3576040517f08c379a0000000000000000000000000000000000000000000000000000000008152600401808060200182810382526022815260200180614f5f6022913960400191505060405180910390fd5b6000846000018481548110613cc457fe5b906000526020600020906002020190508060000154816001015492509250509250929050565b60008084600101600085815260200190815260200160002054905060008114158390613db1576040517f08c379a00000000000000000000000000000000000000000000000000000000081526004018080602001828103825283818151815260200191508051906020019080838360005b83811015613d76578082015181840152602081019050613d5b565b50505050905090810190601f168015613da35780820380516001836020036101000a031916815260200191505b509250505060405180910390fd5b50846000016001820381548110613dc457fe5b9060005260206000209060020201600101549150509392505050565b600081600001805490509050919050565b6000613e128473ffffffffffffffffffffffffffffffffffffffff16614261565b613e1f5760019050614002565b6000613f8963150b7a0260e01b613e34613277565b888787604051602401808573ffffffffffffffffffffffffffffffffffffffff1681526020018473ffffffffffffffffffffffffffffffffffffffff16815260200183815260200180602001828103825283818151815260200191508051906020019080838360005b83811015613eb8578082015181840152602081019050613e9d565b50505050905090810190601f168015613ee55780820380516001836020036101000a031916815260200191505b5095505050505050604051602081830303815290604052907bffffffffffffffffffffffffffffffffffffffffffffffffffffffff19166020820180517bffffffffffffffffffffffffffffffffffffffffffffffffffffffff8381831617835250505050604051806060016040528060328152602001614e2c603291398773ffffffffffffffffffffffffffffffffffffffff166142749092919063ffffffff16565b90506000818060200190516020811015613fa257600080fd5b8101908080519060200190929190505050905063150b7a0260e01b7bffffffffffffffffffffffffffffffffffffffffffffffffffffffff1916817bffffffffffffffffffffffffffffffffffffffffffffffffffffffff191614925050505b949350505050565b600080836001016000848152602001908152602001600020541415905092915050565b60008083600101600084815260200190815260200160002054905060008114614109576000600182039050600060018660000180549050039050600086600001828154811061407857fe5b906000526020600020015490508087600001848154811061409557fe5b90600052602060002001819055506001830187600101600083815260200190815260200160002081905550866000018054806140cd57fe5b6001900381819060005260206000200160009055905586600101600087815260200190815260200160002060009055600194505050505061410f565b60009150505b92915050565b6000614121838361428c565b61417a57826000018290806001815401808255809150506001900390600052602060002001600090919091909150558260000180549050836001016000848152602001908152602001600020819055506001905061417f565b600090505b92915050565b600080846001016000858152602001908152602001600020549050600081141561422c5784600001604051806040016040528086815260200185815250908060018154018082558091505060019003906000526020600020906002020160009091909190915060008201518160000155602082015181600101555050846000018054905085600101600086815260200190815260200160002081905550600191505061425a565b8285600001600183038154811061423f57fe5b90600052602060002090600202016001018190555060009150505b9392505050565b600080823b905060008111915050919050565b606061428384846000856142af565b90509392505050565b600080836001016000848152602001908152602001600020541415905092915050565b60608247101561430a576040517f08c379a0000000000000000000000000000000000000000000000000000000008152600401808060200182810382526026815260200180614e826026913960400191505060405180910390fd5b61431385614261565b614385576040517f08c379a000000000000000000000000000000000000000000000000000000000815260040180806020018281038252601d8152602001807f416464726573733a2063616c6c20746f206e6f6e2d636f6e747261637400000081525060200191505060405180910390fd5b6000808673ffffffffffffffffffffffffffffffffffffffff1685876040518082805190602001908083835b602083106143d457805182526020820191506020810190506020830392506143b1565b6001836020036101000a03801982511681845116808217855250505050505090500191505060006040518083038185875af1925050503d8060008114614436576040519150601f19603f3d011682016040523d82523d6000602084013e61443b565b606091505b509150915061444b828286614457565b92505050949350505050565b606083156144675782905061451c565b60008351111561447a5782518084602001fd5b816040517f08c379a00000000000000000000000000000000000000000000000000000000081526004018080602001828103825283818151815260200191508051906020019080838360005b838110156144e15780820151818401526020810190506144c6565b50505050905090810190601f16801561450e5780820380516001836020036101000a031916815260200191505b509250505060405180910390fd5b9392505050565b828054600181600116156101000203166002900490600052602060002090601f01602090048101928261455957600085556145a0565b82601f1061457257805160ff19168380011785556145a0565b828001600101855582156145a0579182015b8281111561459f578251825591602001919060010190614584565b5b5090506145ad91906145b1565b5090565b5b808211156145ca5760008160009055506001016145b2565b5090565b60006145e16145dc84614c34565b614c03565b9050828152602081018484840111156145f957600080fd5b614604848285614d41565b509392505050565b600061461f61461a84614c64565b614c03565b90508281526020810184848401111561463757600080fd5b614642848285614d41565b509392505050565b60008135905061465981614d96565b92915050565b60008135905061466e81614dad565b92915050565b60008135905061468381614dc4565b92915050565b60008135905061469881614ddb565b92915050565b600082601f8301126146af57600080fd5b81356146bf8482602086016145ce565b91505092915050565b600082601f8301126146d957600080fd5b81356146e984826020860161460c565b91505092915050565b60008135905061470181614df2565b92915050565b60006020828403121561471957600080fd5b60006147278482850161464a565b91505092915050565b6000806040838503121561474357600080fd5b60006147518582860161464a565b92505060206147628582860161464a565b9150509250929050565b60008060006060848603121561478157600080fd5b600061478f8682870161464a565b93505060206147a08682870161464a565b92505060406147b1868287016146f2565b9150509250925092565b600080600080608085870312156147d157600080fd5b60006147df8782880161464a565b94505060206147f08782880161464a565b9350506040614801878288016146f2565b925050606085013567ffffffffffffffff81111561481e57600080fd5b61482a8782880161469e565b91505092959194509250565b6000806040838503121561484957600080fd5b60006148578582860161464a565b925050602061486885828601614674565b9150509250929050565b6000806040838503121561488557600080fd5b60006148938582860161464a565b92505060206148a4858286016146f2565b9150509250929050565b6000602082840312156148c057600080fd5b60006148ce84828501614689565b91505092915050565b6000602082840312156148e957600080fd5b600082013567ffffffffffffffff81111561490357600080fd5b61490f848285016146c8565b91505092915050565b60008060006060848603121561492d57600080fd5b600084013567ffffffffffffffff81111561494757600080fd5b614953868287016146c8565b935050602084013567ffffffffffffffff81111561497057600080fd5b61497c868287016146c8565b925050604061498d868287016146f2565b9150509250925092565b6000602082840312156149a957600080fd5b60006149b7848285016146f2565b91505092915050565b600080604083850312156149d357600080fd5b60006149e1858286016146f2565b92505060206149f28582860161465f565b9150509250929050565b60008060408385031215614a0f57600080fd5b6000614a1d858286016146f2565b9250506020614a2e858286016146f2565b9150509250929050565b614a4181614ccd565b82525050565b614a5081614cbb565b82525050565b614a5f81614cdf565b82525050565b6000614a7082614c94565b614a7a8185614c9f565b9350614a8a818560208601614d50565b614a9381614d85565b840191505092915050565b6000614aa982614c94565b614ab38185614cb0565b9350614ac3818560208601614d50565b80840191505092915050565b614ad881614d37565b82525050565b6000614aea8284614a9e565b915081905092915050565b6000602082019050614b0a6000830184614a47565b92915050565b6000602082019050614b256000830184614a56565b92915050565b60006020820190508181036000830152614b458184614a65565b905092915050565b6000602082019050614b626000830184614acf565b92915050565b600061012082019050614b7e600083018c614acf565b8181036020830152614b90818b614a65565b90508181036040830152614ba4818a614a65565b9050614bb36060830189614a38565b614bc06080830188614a38565b614bcd60a0830187614a38565b614bda60c0830186614acf565b614be760e0830185614acf565b614bf5610100830184614a56565b9a9950505050505050505050565b6000604051905081810181811067ffffffffffffffff82111715614c2a57614c29614d83565b5b8060405250919050565b600067ffffffffffffffff821115614c4f57614c4e614d83565b5b601f19601f8301169050602081019050919050565b600067ffffffffffffffff821115614c7f57614c7e614d83565b5b601f19601f8301169050602081019050919050565b600081519050919050565b600082825260208201905092915050565b600081905092915050565b6000614cc682614d17565b9050919050565b6000614cd882614d17565b9050919050565b60008115159050919050565b60007fffffffff0000000000000000000000000000000000000000000000000000000082169050919050565b600073ffffffffffffffffffffffffffffffffffffffff82169050919050565b6000819050919050565b82818337600083830152505050565b60005b83811015614d6e578082015181840152602081019050614d53565b83811115614d7d576000848401525b50505050565bfe5b6000601f19601f8301169050919050565b614d9f81614cbb565b8114614daa57600080fd5b50565b614db681614ccd565b8114614dc157600080fd5b50565b614dcd81614cdf565b8114614dd857600080fd5b50565b614de481614ceb565b8114614def57600080fd5b50565b614dfb81614d37565b8114614e0657600080fd5b5056fe456e756d657261626c655365743a20696e646578206f7574206f6620626f756e64734552433732313a207472616e7366657220746f206e6f6e20455243373231526563656976657220696d706c656d656e7465724552433732313a207472616e7366657220746f20746865207a65726f2061646472657373416464726573733a20696e73756666696369656e742062616c616e636520666f722063616c6c4552433732313a206f70657261746f7220717565727920666f72206e6f6e6578697374656e7420746f6b656e4552433732313a20617070726f76652063616c6c6572206973206e6f74206f776e6572206e6f7220617070726f76656420666f7220616c6c4552433732313a2062616c616e636520717565727920666f7220746865207a65726f20616464726573734552433732313a206f776e657220717565727920666f72206e6f6e6578697374656e7420746f6b656e456e756d657261626c654d61703a20696e646578206f7574206f6620626f756e64734552433732313a20617070726f76656420717565727920666f72206e6f6e6578697374656e7420746f6b656e4552433732314d657461646174613a2055524920736574206f66206e6f6e6578697374656e7420746f6b656e4552433732313a207472616e73666572206f6620746f6b656e2074686174206973206e6f74206f776e4552433732314d657461646174613a2055524920717565727920666f72206e6f6e6578697374656e7420746f6b656e4552433732313a20617070726f76616c20746f2063757272656e74206f776e65724552433732313a207472616e736665722063616c6c6572206973206e6f74206f776e6572206e6f7220617070726f766564a2646970667358221220445be02fa354cfc85f2537295812eedc6fe7acd603c6bffd598e07b9cf4de29364736f6c63430007060033",
  "immutableReferences": {},
  "source": "// SPDX-License-Identifier: MIT\npragma solidity >=0.4.21 <0.8.0;\npragma abicoder v2;\n\nimport \"./ERC721.sol\";\n\ncontract ShroomieS is ERC721 {\n    string public collectionName;\n    string public collectionNameSymbol;\n    uint256 public shroomYCounter;\n    uint256 public mintPrice;\n    address payable owner;\n\n    struct ShroomY {\n        uint256 tokenId;\n        string tokenName;\n        string tokenURI;\n        address payable mintedBy;\n        address payable currentOwner;\n        address payable previousOwner;\n        uint256 price;\n        uint256 numberOfTransfers;\n        bool forSale;\n    }\n\n    mapping(uint256 => ShroomY) public allShroomieS;\n    mapping(string => bool) public tokenNameExists;\n    mapping(string => bool) public tokenURIExists;\n\n    constructor() ERC721(\"Shroomy Collection\", \"SCOL\") {\n        collectionName = name();\n        collectionNameSymbol = symbol();\n        mintPrice = 0.01 * 1000000000000000000;\n        owner = msg.sender;\n    }\n\n    function mintShroomY(\n        string memory _name,\n        string memory _tokenURI,\n        uint256 _price\n    ) public payable {\n        require(msg.sender != address(0));\n        shroomYCounter++;\n        require(!_exists(shroomYCounter));\n\n        require(!tokenURIExists[_tokenURI]);\n        require(!tokenNameExists[_name]);\n\n        _mint(msg.sender, shroomYCounter);\n        _setTokenURI(shroomYCounter, _tokenURI);\n\n        tokenURIExists[_tokenURI] = true;\n        tokenNameExists[_name] = true;\n\n        address payable sendTo = owner;\n        sendTo.transfer(msg.value);\n\n        ShroomY memory newShroomY = ShroomY(\n            shroomYCounter,\n            _name,\n            _tokenURI,\n            msg.sender,\n            msg.sender,\n            address(0),\n            _price,\n            0,\n            false\n        );\n        allShroomieS[shroomYCounter] = newShroomY;\n    }\n\n    function getOwner() public view returns (address) {\n        return owner;\n    }\n\n    function getMintPrice() public view returns (uint256) {\n        return mintPrice;\n    }\n\n    function setMintPrice(uint256 _price) public returns (bool) {\n        require(owner == msg.sender);\n        mintPrice = _price;\n        return true;\n    }\n\n    function getTokenOwner(uint256 _tokenId) public view returns (address) {\n        address _tokenOwner = ownerOf(_tokenId);\n        return _tokenOwner;\n    }\n\n    function getTokenMetaData(uint256 _tokenId)\n        public\n        view\n        returns (string memory)\n    {\n        string memory tokenMetaData = tokenURI(_tokenId);\n        return tokenMetaData;\n    }\n\n    function getNumberOfTokensMinted() public view returns (uint256) {\n        uint256 totalNumberOfTokensMinted = totalSupply();\n        return totalNumberOfTokensMinted;\n    }\n\n    function getTotalNumberOfTokensOwnedByAnAddress(address _owner)\n        public\n        view\n        returns (uint256)\n    {\n        uint256 totalNumberOfTokensOwned = balanceOf(_owner);\n        return totalNumberOfTokensOwned;\n    }\n\n    function getTokenExists(uint256 _tokenId) public view returns (bool) {\n        bool tokenExists = _exists(_tokenId);\n        return tokenExists;\n    }\n\n    function buyToken(uint256 _tokenId) public payable {\n        require(msg.sender != address(0));\n        require(_exists(_tokenId));\n        address tokenOwner = ownerOf(_tokenId);\n        require(tokenOwner != address(0));\n        require(tokenOwner != msg.sender);\n        ShroomY memory shroomy = allShroomieS[_tokenId];\n        require(msg.value >= shroomy.price);\n        require(shroomy.forSale);\n        _transfer(tokenOwner, msg.sender, _tokenId);\n        address payable sendTo = shroomy.currentOwner;\n        sendTo.transfer(msg.value);\n        shroomy.previousOwner = shroomy.currentOwner;\n        shroomy.currentOwner = msg.sender;\n        shroomy.numberOfTransfers += 1;\n        allShroomieS[_tokenId] = shroomy;\n    }\n\n    function giftToken(uint256 _tokenId, address payable _receiver) public payable {\n        require(msg.sender != address(0));\n        require(_exists(_tokenId));\n        address tokenOwner = ownerOf(_tokenId);\n        require(tokenOwner != address(0));\n        require(tokenOwner == msg.sender);\n        ShroomY memory shroomy = allShroomieS[_tokenId];\n\n        _transfer(tokenOwner, _receiver, _tokenId);\n\n        shroomy.previousOwner = shroomy.currentOwner;\n        shroomy.currentOwner = _receiver;\n        shroomy.numberOfTransfers += 1;\n        allShroomieS[_tokenId] = shroomy;\n    }\n\n    function changeTokenPrice(uint256 _tokenId, uint256 _newPrice) public {\n        require(msg.sender != address(0));\n        require(_exists(_tokenId));\n        address tokenOwner = ownerOf(_tokenId);\n        require(tokenOwner == msg.sender);\n        ShroomY memory shroomy = allShroomieS[_tokenId];\n        shroomy.price = _newPrice;\n        allShroomieS[_tokenId] = shroomy;\n    }\n\n    function toggleForSale(uint256 _tokenId) public {\n        require(msg.sender != address(0));\n        require(_exists(_tokenId));\n        address tokenOwner = ownerOf(_tokenId);\n        require(tokenOwner == msg.sender);\n        ShroomY memory shroomy = allShroomieS[_tokenId];\n        if (shroomy.forSale) {\n            shroomy.forSale = false;\n        } else {\n            shroomy.forSale = true;\n        }\n        allShroomieS[_tokenId] = shroomy;\n    }\n}",
  "sourcePath": "C:/Users/vikas/Desktop/graphic-nft-new/src/contracts/ShroomieS.sol",
  "compiler": {
    "name": "solc",
    "version": "0.7.6+commit.7338295f.Emscripten.clang"
  },
  "schemaVersion": "3.4.1",
  "updatedAt": "2021-11-08T17:57:55.604Z",
  "networkType": "ethereum",
  "devdoc": {
    "kind": "dev",
    "methods": {
      "approve(address,uint256)": {
        "details": "See {IERC721-approve}."
      },
      "balanceOf(address)": {
        "details": "See {IERC721-balanceOf}."
      },
      "baseURI()": {
        "details": "Returns the base URI set via {_setBaseURI}. This will be automatically added as a prefix in {tokenURI} to each token's URI, or to the token ID if no specific URI is set for that token ID."
      },
      "getApproved(uint256)": {
        "details": "See {IERC721-getApproved}."
      },
      "isApprovedForAll(address,address)": {
        "details": "See {IERC721-isApprovedForAll}."
      },
      "name()": {
        "details": "See {IERC721Metadata-name}."
      },
      "ownerOf(uint256)": {
        "details": "See {IERC721-ownerOf}."
      },
      "safeTransferFrom(address,address,uint256)": {
        "details": "See {IERC721-safeTransferFrom}."
      },
      "safeTransferFrom(address,address,uint256,bytes)": {
        "details": "See {IERC721-safeTransferFrom}."
      },
      "setApprovalForAll(address,bool)": {
        "details": "See {IERC721-setApprovalForAll}."
      },
      "supportsInterface(bytes4)": {
        "details": "See {IERC165-supportsInterface}. Time complexity O(1), guaranteed to always use less than 30 000 gas."
      },
      "symbol()": {
        "details": "See {IERC721Metadata-symbol}."
      },
      "tokenByIndex(uint256)": {
        "details": "See {IERC721Enumerable-tokenByIndex}."
      },
      "tokenOfOwnerByIndex(address,uint256)": {
        "details": "See {IERC721Enumerable-tokenOfOwnerByIndex}."
      },
      "tokenURI(uint256)": {
        "details": "See {IERC721Metadata-tokenURI}."
      },
      "totalSupply()": {
        "details": "See {IERC721Enumerable-totalSupply}."
      },
      "transferFrom(address,address,uint256)": {
        "details": "See {IERC721-transferFrom}."
      }
    },
    "version": 1
  },
  "userdoc": {
    "kind": "user",
    "methods": {},
    "version": 1
  }
}